:020000040800F2
:10000000400D00206901000813090008630600087C
:1000100011090008D5010008E10F000800000000E8
:10002000000000000000000000000000450B000878
:10003000D70100080000000015090008790E00082B
:100040008301000883010008830100088301000880
:100050008301000883010008830100088301000870
:100060008301000883010008830100088301000860
:100070008301000883010008830100088301000850
:1000800083010008830100088301000800000000CC
:1000900000000000000000000000000083010008D4
:1000A0008301000883010008830100088301000820
:1000B0008301000883010008830100088301000810
:1000C0008301000883010008830100088301000800
:1000D00083010008830100088301000883010008F0
:1000E00083010008830100088301000883010008E0
:1000F00083010008830100080000000000000000E8
:10010000830100080000000083010008830100084B
:1001100083010008830100088301000883010008AF
:10012000830100088301000883010008830100089F
:1001300083010008DFF80CD000F03AF800480047CF
:10014000C9110008400D0020EFF30980704780F3CB
:1001500009887047EFF30880704780F3088870477C
:1001600040BA7047C0BA7047064880470648004703
:10017000FEE7FEE7FEE7FEE7FEE7FEE7FEE7FEE757
:10018000FEE7FEE77D0E00083501000840EA0103A6
:100190009B0703D009E008C9121F08C0042AFAD23D
:1001A00003E011F8013B00F8013B521EF9D2704701
:1001B000064C074D06E0E06840F0010394E80700B4
:1001C00098471034AC42F6D3FFF7B8FF7813000815
:1001D00098130008FEE770472DE9F0474FF001093A
:1001E0004FF00208042700F057F9204D06466868D2
:1001F000B04338D000F04AF904466868304368607C
:1002000000F0CAF806466868411C03D0C04300F0FD
:100210006DF80646E04340070ED0E00700D1814666
:10022000A00701D44FF00008600700D400273A4629
:100230004146484600F074F9042E04D00CA0BDE8F5
:10024000F04700F06BBD15A000F068FD1B4800F002
:1002500065FD1B4801681B4A01F4E0611143016020
:10026000BFF3408FFEE718A0E9E700000000002080
:100270004572726F723A20466C61736820777269BA
:10028000746520756E70726F74656374696F6E202B
:100290006661696C65642E2E2E0D0A0057726974B2
:1002A000652050726F74656374696F6E2064697342
:1002B00061626C65642E2E2E0D0A0000401200084B
:1002C0000CED00E00400FA05466C617368206D6572
:1002D0006D6F7279206E6F7420777269746520700B
:1002E000726F7465637465640D0A00002DE9F04354
:1002F000C043C7B2C0F30726C0F30745040E4FF44E
:100300000059484600F03CF904283BD1DFF87C80D6
:100310001D4AC8F808201E4AC8F80820D8F810203E
:1003200042F01002C8F81020FF2F06D019480780AD
:10033000484600F025F904281BD1FF2E07D01548A8
:10034000801C0680484600F01BF9042811D1FF2DBF
:1003500007D01048001D0580484600F011F9042818
:1003600007D1FF2C07D00B48801D0480484600F0C1
:1003700007F9052806D0D8F8102041F6EF731A4087
:10038000C8F81020BDE8F083230167450020024033
:10039000AB89EFCD08F8FF1F70B5A52500F06CF80C
:1003A00000B100254FF43026304600F0E9F804286B
:1003B00027D1154C1348A0601448A060206940F074
:1003C00020002061206940F040002061304600F0AC
:1003D000D7F841F6EF7604280ED1206941F6DF7197
:1003E00008402061206940F0100020610848058025
:1003F0004FF4005000F0C4F8052802D021693140C4
:10040000216170BD2301674500200240AB89EFCD1B
:1004100000F8FF1F70B505464FF43026304600F057
:10042000AFF8042811D1094C206940F00200206186
:100430006561206940F040002061304600F0A0F87E
:10044000216941F6FD721140216170BD002002401A
:1004500008490420CA68D20701D001207047CA6841
:10046000520701D502207047C968C906FBD5032091
:10047000704700000020024003490020C969890735
:1004800000D5012070470000002002400148C069EB
:1004900080087047002002400148006A7047000051
:1004A0000020024001B50098410503D0012101EB75
:1004B000D02008BDC00A08BD2DE9F841064600203D
:1004C0004FF4005700900D46384600F059F80428C4
:1004D00016D10C4C206940F0010020613580B846EF
:1004E000384600F04DF8BF1E042806D1B61C280C73
:1004F00000963080404600F043F821693940216180
:10050000BDE8F881002002400348024941600349E8
:10051000416070472301674500200240AB89EFCD61
:100520002DE9F041134C0746114816460D46A060D0
:100530001148A0604FF40058404600F021F804280C
:1005400013D1206940F01000206135430B493D4331
:1005500045F0F8000880404600F012F8052804D065
:10056000216941F6EF7211402161BDE8F081000080
:100570002301674500200240AB89EFCD02F8FF1F41
:1005800000B50346FFF764FF03E000BFFFF760FF1D
:100590005B1E012803D0002B00D1052000BD002BDD
:1005A000F4D1FAE7F0B5CA78002502F00F03D206BD
:1005B00001D58A7813430C784FF00F0E0122ECB16D
:1005C000D0F800400F8802FA05F63740B74211D143
:1005D0004FEA850C0EFA0CF724EA070703FA0CF42D
:1005E0003C43CF78282F02D0482F02D002E046614A
:1005F00000E006616D1C082DE4D304600C88FF2C1C
:100600001ED944685FF0000606F1080702FA07F5F4
:100610000F882F40AF420FD14FEA860C0EFA0CF72D
:10062000BC4303FA0CF73C43CF78282F00D1456137
:10063000CF78482F00D10561761C082EE4D34460A2
:10064000F0BD416170470161704708B500208DF829
:100650000000684600F036FB0028FAD09DF8000044
:1006600008BDFEE7F0B500220E4B164614464FF0CB
:100670000A0C00BFB1FBF3F503FB151105F13007C0
:100680008754521CB3FBFCF3851815F8015C302D20
:1006900000D126B1761C641C0A2CEBD3F0BD0022DD
:1006A000F9E7000000CA9A3B2748284C012500685A
:1006B000A0F10060000B20603E2804D205FA00F192
:1006C000491EC84301E04FF000406060FFF7E4FEC0
:1006D0006168814301D0A56001E00020A0601CA0FA
:1006E00000F01CFB2AA000F019FB39A000F016FB5B
:1006F000A06810B146A000F011FB55A000F00EFB61
:10070000FFF7A3FF312804D0322805D033280DD0BD
:100710000FE000F019FAE2E75D4841682161E1600D
:100720000068FFF71AFDE0688047D8E7A068012855
:1007300005D0A06830B157A000F0F0FACFE7FFF77E
:100740004BFDCCE763A0F7E7180000200000002075
:100750000D0A3D3D3D3D3D3D3D3D3D3D3D3D3D3D2C
:100760003D3D3D3D204D61696E204D656E75203DDE
:100770003D3D3D3D3D3D3D3D3D3D3D3D3D3D3D3DA9
:100780003D3D3D3D3D3D3D3D3D3D3D0D0A0A0000A9
:100790002020446F776E6C6F616420496D616765DE
:1007A00020546F207468652053544D3332463130E5
:1007B0007820496E7465726E616C20466C61736856
:1007C000202D2D2D2D2D2D2D20310D0A0A0000005C
:1007D00020204578656375746520546865204E65F2
:1007E000772050726F6772616D202D2D2D2D2D2D6C
:1007F0002D2D2D2D2D2D2D2D2D2D2D2D2D2D2D2D29
:100800002D2D2D2D2D2D2D2D20320D0A0A0000000D
:10081000202044697361626C65207468652077727A
:100820006974652070726F74656374696F6E202DD2
:100830002D2D2D2D2D2D2D2D2D2D2D2D2D2D2D2DE8
:100840002D2D2D2D2D2D2D2D20330D0A0A000000CC
:100850003D3D3D3D3D3D3D3D3D3D3D3D3D3D3D3DC8
:100860003D3D3D3D3D3D3D3D3D3D3D3D3D3D3D3DB8
:100870003D3D3D3D3D3D3D3D3D3D3D3D3D3D3D3DA8
:100880003D3D3D3D3D3D3D3D3D3D0D0A0A000000E5
:1008900000300008496E76616C6964204E756D62A7
:1008A00065722021203D3D3E20546865206E756DA7
:1008B0006265722073686F756C642062652065697B
:1008C0007468657220312C20322C206F7220330D19
:1008D00000000000496E76616C6964204E756D629F
:1008E00065722021203D3D3E20546865206E756D67
:1008F0006265722073686F756C642062652065693B
:10090000746865722031206F7220320D0000000083
:10091000FEE7704770470000044A0029D16901D002
:10092000014300E08143D1617047000000100240A4
:10093000044A0029916901D0014300E0814391619B
:10094000704700000010024030B521494A6812F09B
:100950000C03204A03D0042B01D0082B01D00260E5
:1009600015E04B684C6803F470134FF0020514F463
:10097000803F05EB934307D0CC6A04F00F04641C5E
:10098000B2FBF4F25A43EAE7134A534303604A685E
:100990000F23124C03EA1212A35C0268DA40426091
:1009A0004B68072505EA1323E35C22FA03F383600F
:1009B0004B6805EAD323E35CDA40C260496803234D
:1009C00003EA9131231F595CB2FBF1F1016130BDA3
:1009D0000010024000127A0000093D002C000020A7
:1009E00070B50C46054604E0284600F06BF9012876
:1009F00004D0641EF8D24FF0FF3070BD002070BDEF
:100A00002DE9F84F884600210646C8F800109246A6
:100A100011466846FFF7E4FF4FF0FF39B0BB9DF881
:100A20000000182814D006DC012809D0022809D0BB
:100A300004282BD12EE0412816D0612826D113E0BE
:100A4000802401E04FF4806401253070671D15E0BB
:100A500051466846FFF7C4FFC0B99DF8000018284A
:100A600014D1C8F8009015E00120BDE8F88F701986
:100A70005146FFF7B5FF48B96D1CADB2BD42F6D384
:100A8000B178707881F0FF01884201D04846ECE7E8
:100A9000C8F800400020E8E710B586B0012120200A
:100AA000FFF746FF01211020FFF742FF0121080553
:100AB000FFF732FF03208DF8020004208DF80300B9
:100AC0001D4CADF8000069462046FFF76BFD18206D
:100AD0008DF80300A014ADF8000069461748FFF731
:100AE00061FD10208DF803000820ADF80000694674
:100AF0002046FFF757FD4FF4E13001900020ADF89C
:100B00000800ADF80C00ADF80A00ADF810000C209C
:100B10000B4CADF80E0001A9204600F003FA0122AB
:100B200040F22551204600F0E4F90121204600F072
:100B3000CFF906B010BD00000014014000100140C4
:100B400000500040704700003EB518A207CA8DE86B
:100B5000070019A000F0E2F8264800F043FA041E4E
:100B600014DD254800F0DAF8244800F0D7F82146D3
:100B70006846FFF777FD22A000F0D0F8684600F045
:100B8000CDF822A000F0CAF823A008E0601C05D030
:100B9000A01C07D0E41C07D025A000E02CA000F08A
:100BA000BDF83EBD3AA0FAE740A0F8E7202020209B
:100BB000202020202020000057616974696E672082
:100BC000666F72207468652066696C6520746F209A
:100BD00062652073656E74202E2E2E20287072653B
:100BE00073732027612720746F2061626F727429EC
:100BF0000A0D00003C0000208C1200083C0400207C
:100C00000A0D2053697A653A200000002042797469
:100C100065730D0A000000002D2D2D2D2D2D2D2D7D
:100C20002D2D2D2D2D2D2D2D2D2D2D0A00000000CB
:100C30000A0D4661696C656420746F207265636596
:100C4000697665207468652066696C65210A0D0007
:100C50000A0A0D54686520696D6167652073697AB9
:100C60006520697320686967686572207468616EC1
:100C70002074686520616C6C6F77656420737061A7
:100C80006365206D656D6F7279210A0D00000000AB
:100C90000A0A0D566572696669636174696F6E2030
:100CA0006661696C6564210A0D0000000D0A0A4145
:100CB000626F7274656420627920757365722E0AA2
:100CC0000D00000070B5064C05462021204600F0BE
:100CD00009F9002802D0A0882870012070BD00000A
:100CE0000050004070B50B4D044608212846FFF720
:100CF000AAFC2146084C204600F06EF9402120460F
:100D000000F0F0F80028F9D02846BDE8704008212E
:100D1000FFF797BC001401400050004010B5044696
:100D200003E000BFFFF7DEFF641C20780028F9D144
:100D300010BD00000CB500211F4801910091026810
:100D400042F4803202604FF4A063026802F4003281
:100D50000092019A521C0192009A12B9019A9A4289
:100D6000F3D10268920324D50121009141684160CA
:100D70004168416041684160416821F47C114160F3
:100D8000416841F498114160016841F0807101604F
:100D900001688901FCD5416821F003014160416887
:100DA00041F0020141604168C1F381010229FAD199
:100DB0000CBD00910CBD00000010024070B5002277
:100DC00004781346302C04D14478782C0AD0582C5F
:100DD00008D06FF02F05845C74B36B2C2ED04B2C95
:100DE0002CD030E082780AB30224025D5AB1A2F11D
:100DF0004105052D0AD9A2F16106052E06D9113546
:100E0000092D07D913E001200B6011E0A2F1300693
:100E1000092E01D8303A04E0052D01D8373A00E018
:100E2000573A641C02EB03130B2CDED302E00020C4
:100E30000B2C00D3002070BD0B6002E01AB19802A9
:100E400007E0012015E06D2C01D04D2C03D112B12B
:100E500018050860F5E7A4F13006092E08D803EB61
:100E6000830305EB4303521C23440B2AB3D3E1E76E
:100E700000200B2ADED270BD70470000104810B56C
:100E8000016841F00101016041680E4A1140416072
:100E900001680D4A11400160016821F48021016060
:100EA000416821F4FE0141604FF41F01816000217F
:100EB000C162FFF73FFF05494FF00060086010BDB9
:100EC000001002400000FFF8FFFFF6FE08ED00E012
:100ED0000029818902D041F4005101E021F4005140
:100EE000818170470246002012880A4200D001200A
:100EF000704710B5C1F3421301F01F040121A14056
:100F0000012B07D0022B07D01430002A026805D02D
:100F10000A4304E00C30F8E71030F6E78A43026039
:100F200010BD000030B50446008A85B00D464CF671
:100F3000FF710840E98801432182A1894EF6F31030
:100F40000140A8882A8910436A890A431043A08176
:100F5000A08A4FF6FF410840A9890143A182684653
:100F6000FFF7F2FC1B48844201D1039800E002988D
:100F7000A1890904002900EBC00101EB00102968D8
:100F800002DA4FEA410101E04FEA8101B0FBF1F0E2
:100F90006422B0FBF2F14FEA01114FEA11136FF036
:100FA00018056B4300EB8300A3891D044FF0320347
:100FB00006D503EBC000B0FBF2F000F0070005E03F
:100FC00003EB0010B0FBF2F000F00F0008432081AB
:100FD00005B030BD00380140C1F308018180704781
:100FE000FEE700002DE9F04F80460020ADF2244DD1
:100FF0006B4CDFF8A8B1CDF80804C4F804B005467E
:1010000007464FF480194FF0FF3ACDF81004002640
:101010004A460DF20C416846FFF7F2FC88B1012800
:1010200068D0002F00DD6D1C052D79DD1820FFF73D
:1010300059FE1820FFF756FE00200DF2244DBDE8A2
:10104000F08FDDF80C240025524507D042B19DF801
:101050000100F1B288420BD015209BE00620E9E7A1
:101060000620FFF73FFEDDF810040028CFD05BE03C
:1010700046B10DF103014046FFF788F80027C4F898
:1010800010806CE09DF8030098B300210DF103007F
:10109000444B02E05A54401C491C02780AB1FF2913
:1010A000F8DD00275F543946401C0DF2144302E07E
:1010B0005A54401C491C0278202A01D01029F7DB21
:1010C0005F540DF581611846FFF778FEDDF80804DE
:1010D000B0F5002F07DB1820FFF704FE1820FFF7FC
:1010E00001FE5046A9E7FFF7DDF9C4E90270384672
:1010F0000BE016E044E06288616802FB0010FFF735
:1011000089F92070A068401CA060E168884202D282
:1011100021780429EFD00620FFF7E4FD43202AE0E0
:1011200037E00620FFF7DEFDDDF8080485E72169DA
:101130000968FFF7C1F96068216902680B689A4283
:1011400008D01820FFF7CEFD1820FFF7CBFD6FF079
:10115000010072E7091D001D21613F1D6060DDF87F
:101160000C04874206DADDF80824606802EB0B0104
:101170008842DCD30620FFF7B5FD761C012747E740
:101180001820FFF7AFFD1820FFF7ACFD6FF002004D
:1011900053E74320FFF7A6FD3AE7000000300008C0
:1011A000140000203C04002002E008C8121F08C1FF
:1011B000002AFAD170477047002001E001C1121FD8
:1011C000002AFBD170470000FFF79EF91548006820
:1011D000A0F52541A53911D0FFF75EFC1248FFF7B5
:1011E0009DFD11484C30FFF799FD0F48FFF796FD24
:1011F0000EA0FFF793FDFFF757FA11E00948803082
:1012000001680C4A1140B1F1005F09D141680A4AF6
:101210000A4C116021600068FEF79FFF206880473C
:10122000FEE70000802F0008E01200080D0A0D0AFA
:10123000000000000000FE2F100000200C00002025
:101240002E2E2E616E6420612053797374656D209B
:1012500052657365742077696C6C206265206765E0
:101260006E65726174656420746F2072652D6C6F99
:10127000616420746865206E6577206F7074696F93
:101280006E2062797465730D0A0000000A0A0D2051
:1012900050726F6772616D6D696E6720436F6D701C
:1012A0006C65746564205375636365737366756CF0
:1012B0006C79210A0D2D2D2D2D2D2D2D2D2D2D2D22
:1012C0002D2D2D2D2D2D2D2D2D2D2D2D2D2D2D2D4E
:1012D0002D2D2D2D2D0D0A204E616D653A2000001B
:1012E0000D0A3D3D3D3D3D3D3D3D3D3D3D3D3D3D91
:1012F0003D3D3D3D3D3D3D3D3D3D3D3D3D3D3D3D1E
:101300003D3D3D3D3D3D3D3D3D3D3D3D3D3D3D3D0D
:101310003D3D3D3D3D3D3D3D3D3D3D3D3D3D3D3DFD
:101320003D3D3D3D3D3D3D3D000000000D0A3D2061
:10133000202020202020202020202055736572208E
:101340006170706C69636174696F6E206E6F742078
:1013500065787369742C20656E746572696E672098
:10136000626F6F74206D6F6465202020202009203B
:101370002020203D000000009813000800000020FD
:101380003C000000A8110008D41300083C00002015
:10139000040D0000B811000800000000000000006B
:1013A0000000000000000000000000000400000831
:1013B00000300008000000000000000000000000F5
:1013C00002040608000000000102030401020304F5
:1013D00006070809FFFFFFFFFFFFFFFFFFFFFFFFFB
:1013E000FFFFFFFFFFFFFFFFFFFFFFFFFFFFFFFF0D
:1013F000FFFFFFFFFFFFFFFFFFFFFFFFFFFFFFFFFD
:10140000FFFFFFFFFFFFFFFFFFFFFFFFFFFFFFFFEC
:10141000FFFFFFFFFFFFFFFFFFFFFFFFFFFFFFFFDC
:102F8000A5A50000FFFFFFFFFFFFFFFFFFFFFFFF03
:102F9000FFFFFFFFFFFFFFFFFFFFFFFFFFFFFFFF41
:102FA000FFFFFFFFFFFFFFFFFFFFFFFFFFFFFFFF31
:102FB000FFFFFFFFFFFFFFFFFFFFFFFFFFFFFFFF21
:102FC000FFFFFFFFFFFFFFFFFFFFFFFFFFFFFFFF11
:102FD000FFFFFFFFFFFFFFFFFFFFFFFFFFFFFFFF01
:102FE000FFFFFFFFFFFFFFFFFFFFFFFFFFFFFFFFF1
:0F2FF000FFFFFFFFFFFFFFFFFFFFFFFFFFFFFFE1
:00000001FF
