:020000040800F2
:10000000400D00206901000813090008630600087C
:1000100011090008D5010008E10F000800000000E8
:10002000000000000000000000000000450B000878
:10003000D70100080000000015090008790E00082B
:100040008301000883010008830100088301000880
:100050008301000883010008830100088301000870
:100060008301000883010008830100088301000860
:100070008301000883010008830100088301000850
:1000800083010008830100088301000800000000CC
:1000900000000000000000000000000083010008D4
:1000A0008301000883010008830100088301000820
:1000B0008301000883010008830100088301000810
:1000C0008301000883010008830100088301000800
:1000D00083010008830100088301000883010008F0
:1000E00083010008830100088301000883010008E0
:1000F00083010008830100080000000000000000E8
:10010000830100080000000083010008830100084B
:1001100083010008830100088301000883010008AF
:10012000830100088301000883010008830100089F
:1001300083010008DFF80CD000F03AF800480047CF
:10014000C9110008400D0020EFF30980704780F3CB
:1001500009887047EFF30880704780F3088870477C
:1001600040BA7047C0BA7047064880470648004703
:10017000FEE7FEE7FEE7FEE7FEE7FEE7FEE7FEE757
:10018000FEE7FEE77D0E00083501000840EA0103A6
:100190009B0703D009E008C9121F08C0042AFAD23D
:1001A00003E011F8013B00F8013B521EF9D2704701
:1001B000064C074D06E0E06840F0010394E80700B4
:1001C00098471034AC42F6D3FFF7B8FF7813000815
:1001D00098130008FEE770472DE9F0474FF001093A
:1001E0004FF00208042700F057F9204D06466868D2
:1001F000B04338D000F04AF904466868304368607C
:1002000000F0CAF806466868411C03D0C04300F0FD
:100210006DF80646E04340070ED0E00700D1814666
:10022000A00701D44FF00008600700D400273A4629
:100230004146484600F074F9042E04D00CA0BDE8F5
:10024000F04700F06BBD15A000F068FD1B4800F002
:1002500065FD1B4801681B4A01F4E0611143016020
:10026000BFF3408FFEE718A0E9E700000000002080
:100270004572726F723A20466C61736820777269BA
:10028000746520756E70726F74656374696F6E202B
:100290006661696C65642E2E2E0D0A0057726974B2
:1002A000652050726F74656374696F6E2064697342
:1002B00061626C65642E2E2E0D0A0000401200084B
:1002C0000CED00E00400FA05466C617368206D6572
:1002D0006D6F7279206E6F7420777269746520700B
:1002E000726F7465637465640D0A00002DE9F04354
:1002F000C043C7B2C0F30726C0F30745040E4FF44E
:100300000059484600F03CF904283BD1DFF87C80D6
:100310001D4AC8F808201E4AC8F80820D8F810203E
:1003200042F01002C8F81020FF2F06D019480780AD
:10033000484600F025F904281BD1FF2E07D01548A8
:10034000801C0680484600F01BF9042811D1FF2DBF
:1003500007D01048001D0580484600F011F9042818
:1003600007D1FF2C07D00B48801D0480484600F0C1
:1003700007F9052806D0D8F8102041F6EF731A4087
:10038000C8F81020BDE8F083230167450020024033
:10039000AB89EFCD08F8FF1F70B5A52500F06CF80C
:1003A00000B100254FF43026304600F0E9F804286B
:1003B00027D1154C1348A0601448A060206940F074
:1003C00020002061206940F040002061304600F0AC
:1003D000D7F841F6EF7604280ED1206941F6DF7197
:1003E00008402061206940F0100020610848058025
:1003F0004FF4005000F0C4F8052802D021693140C4
:10040000216170BD2301674500200240AB89EFCD1B
:1004100000F8FF1F70B505464FF43026304600F057
:10042000AFF8042811D1094C206940F00200206186
:100430006561206940F040002061304600F0A0F87E
:10044000216941F6FD721140216170BD002002401A
:1004500008490420CA68D20701D001207047CA6841
:10046000520701D502207047C968C906FBD5032091
:10047000704700000020024003490020C969890735
:1004800000D5012070470000002002400148C069EB
:1004900080087047002002400148006A7047000051
:1004A0000020024001B50098410503D0012101EB75
:1004B000D02008BDC00A08BD2DE9F841064600203D
:1004C0004FF4005700900D46384600F059F80428C4
:1004D00016D10C4C206940F0010020613580B846EF
:1004E000384600F04DF8BF1E042806D1B61C280C73
:1004F00000963080404600F043F821693940216180
:10050000BDE8F881002002400348024941600349E8
:10051000416070472301674500200240AB89EFCD61
:100520002DE9F041134C0746114816460D46A060D0
:100530001148A0604FF40058404600F021F804280C
:1005400013D1206940F01000206135430B493D4331
:1005500045F0F8000880404600F012F8052804D065
:10056000216941F6EF7211402161BDE8F081000080
:100570002301674500200240AB89EFCD02F8FF1F41
:1005800000B50346FFF764FF03E000BFFFF760FF1D
:100590005B1E012803D0002B00D1052000BD002BDD
:1005A000F4D1FAE7F0B5CA78002502F00F03D206BD
:1005B00001D58A7813430C784FF00F0E0122ECB16D
:1005C000D0F800400F8802FA05F63740B74211D143
:1005D0004FEA850C0EFA0CF724EA070703FA0CF42D
:1005E0003C43CF78282F02D0482F02D002E046614A
:1005F00000E006616D1C082DE4D304600C88FF2C1C
:100600001ED944685FF0000606F1080702FA07F5F4
:100610000F882F40AF420FD14FEA860C0EFA0CF72D
:10062000BC4303FA0CF73C43CF78282F00D1456137
:10063000CF78482F00D10561761C082EE4D34460A2
:10064000F0BD416170470161704708B500208DF829
:100650000000684600F036FB0028FAD09DF8000044
:1006600008BDFEE7F0B500220E4B164614464FF0CB
:100670000A0C00BFB1FBF3F503FB151105F13007C0
:100680008754521CB3FBFCF3851815F8015C302D20
:1006900000D126B1761C641C0A2CEBD3F0BD0022DD
:1006A000F9E7000000CA9A3B2748284C012500685A
:1006B000A0F10060000B20603E2804D205FA00F192
:1006C000491EC84301E04FF000406060FFF7E4FEC0
:1006D0006168814301D0A56001E00020A0601CA0FA
:1006E00000F01CFB2AA000F019FB39A000F016FB5B
:1006F000A06810B146A000F011FB55A000F00EFB61
:10070000FFF7A3FF312804D0322805D033280DD0BD
:100710000FE000F019FAE2E75D4841682161E1600D
:100720000068FFF71AFDE0688047D8E7A068012855
:1007300005D0A06830B157A000F0F0FACFE7FFF77E
:100740004BFDCCE763A0F7E7180000200000002075
:100750000D0A3D3D3D3D3D3D3D3D3D3D3D3D3D3D2C
:100760003D3D3D3D204D61696E204D656E75203DDE
:100770003D3D3D3D3D3D3D3D3D3D3D3D3D3D3D3DA9
:100780003D3D3D3D3D3D3D3D3D3D3D0D0A0A0000A9
:100790002020446F776E6C6F616420496D616765DE
:1007A00020546F207468652053544D3332463130E5
:1007B0007820496E7465726E616C20466C61736856
:1007C000202D2D2D2D2D2D2D20310D0A0A0000005C
:1007D00020204578656375746520546865204E65F2
:1007E000772050726F6772616D202D2D2D2D2D2D6C
:1007F0002D2D2D2D2D2D2D2D2D2D2D2D2D2D2D2D29
:100800002D2D2D2D2D2D2D2D20320D0A0A0000000D
:10081000202044697361626C65207468652077727A
:100820006974652070726F74656374696F6E202DD2
:100830002D2D2D2D2D2D2D2D2D2D2D2D2D2D2D2DE8
:100840002D2D2D2D2D2D2D2D20330D0A0A000000CC
:100850003D3D3D3D3D3D3D3D3D3D3D3D3D3D3D3DC8
:100860003D3D3D3D3D3D3D3D3D3D3D3D3D3D3D3DB8
:100870003D3D3D3D3D3D3D3D3D3D3D3D3D3D3D3DA8
:100880003D3D3D3D3D3D3D3D3D3D0D0A0A000000E5
:1008900000300008496E76616C6964204E756D62A7
:1008A00065722021203D3D3E20546865206E756DA7
:1008B0006265722073686F756C642062652065697B
:1008C0007468657220312C20322C206F7220330D19
:1008D00000000000496E76616C6964204E756D629F
:1008E00065722021203D3D3E20546865206E756D67
:1008F0006265722073686F756C642062652065693B
:10090000746865722031206F7220320D0000000083
:10091000FEE7704770470000044A0029D16901D002
:10092000014300E08143D1617047000000100240A4
:10093000044A0029916901D0014300E0814391619B
:10094000704700000010024030B521494A6812F09B
:100950000C03204A03D0042B01D0082B01D00260E5
:1009600015E04B684C6803F470134FF0020514F463
:10097000803F05EB934307D0CC6A04F00F04641C5E
:10098000B2FBF4F25A43EAE7134A534303604A685E
:100990000F23124C03EA1212A35C0268DA40426091
:1009A0004B68072505EA1323E35C22FA03F383600F
:1009B0004B6805EAD323E35CDA40C260496803234D
:1009C00003EA9131231F595CB2FBF1F1016130BDA3
:1009D0000010024000127A0000093D002C000020A7
:1009E00070B50C46054604E0284600F06BF9012876
:1009F00004D0641EF8D24FF0FF3070BD002070BDEF
:100A00002DE9F84F884600210646C8F800109246A6
:100A100011466846FFF7E4FF4FF0FF39B0BB9DF881
:100A20000000182814D006DC012809D0022809D0BB
:100A300004282BD12EE0412816D0612826D113E0BE
:100A4000802401E04FF4806401253070671D15E0BB
:100A500051466846FFF7C4FFC0B99DF8000018284A
:100A600014D1C8F8009015E00120BDE8F88F701986
:100A70005146FFF7B5FF48B96D1CADB2BD42F6D384
:100A8000B178707881F0FF01884201D04846ECE7E8
:100A9000C8F800400020E8E710B586B0012120200A
:100AA000FFF746FF01211020FFF742FF0121080553
:100AB000FFF732FF03208DF8020004208DF80300B9
:100AC0001D4CADF8000069462046FFF76BFD18206D
:100AD0008DF80300A014ADF8000069461748FFF731
:100AE00061FD10208DF803000820ADF80000694674
:100AF0002046FFF757FD4FF4E13001900020ADF89C
:100B00000800ADF80C00ADF80A00ADF810000C209C
:100B10000B4CADF80E0001A9204600F003FA0122AB
:100B200040F22551204600F0E4F90121204600F072
:100B3000CFF906B010BD00000014014000100140C4
:100B400000500040704700003EB518A207CA8DE86B
:100B5000070019A000F0E2F8264800F043FA041E4E
:100B600014DD254800F0DAF8244800F0D7F82146D3
:100B70006846FFF777FD22A000F0D0F8684600F045
:100B8000CDF822A000F0CAF823A008E0601C05D030
:100B9000A01C07D0E41C07D025A000E02CA000F08A
:100BA000BDF83EBD3AA0FAE740A0F8E7202020209B
:100BB000202020202020000057616974696E672082
:100BC000666F72207468652066696C6520746F209A
:100BD00062652073656E74202E2E2E20287072653B
:100BE00073732027612720746F2061626F727429EC
:100BF0000A0D00003C0000208C1200083C0400207C
:100C00000A0D2053697A653A200000002042797469
:100C100065730D0A000000002D2D2D2D2D2D2D2D7D
:100C20002D2D2D2D2D2D2D2D2D2D2D0A00000000CB
:100C30000A0D4661696C656420746F207265636596
:100C4000697665207468652066696C65210A0D0007
:100C50000A0A0D54686520696D6167652073697AB9
:100C60006520697320686967686572207468616EC1
:100C70002074686520616C6C6F77656420737061A7
:100C80006365206D656D6F7279210A0D00000000AB
:100C90000A0A0D566572696669636174696F6E2030
:100CA0006661696C6564210A0D0000000D0A0A4145
:100CB000626F7274656420627920757365722E0AA2
:100CC0000D00000070B5064C05462021204600F0BE
:100CD00009F9002802D0A0882870012070BD00000A
:100CE0000050004070B50B4D044608212846FFF720
:100CF000AAFC2146084C204600F06EF9402120460F
:100D000000F0F0F80028F9D02846BDE8704008212E
:100D1000FFF797BC001401400050004010B5044696
:100D200003E000BFFFF7DEFF641C20780028F9D144
:100D300010BD00000CB500211F4801910091026810
:100D400042F4803202604FF4A063026802F4003281
:100D50000092019A521C0192009A12B9019A9A4289
:100D6000F3D10268920324D50121009141684160CA
:100D70004168416041684160416821F47C114160F3
:100D8000416841F498114160016841F0807101604F
:100D900001688901FCD5416821F003014160416887
:100DA00041F0020141604168C1F381010229FAD199
:100DB0000CBD00910CBD00000010024070B5002277
:100DC00004781346302C04D14478782C0AD0582C5F
:100DD00008D06FF02F05845C74B36B2C2ED04B2C95
:100DE0002CD030E082780AB30224025D5AB1A2F11D
:100DF0004105052D0AD9A2F16106052E06D9113546
:100E0000092D07D913E001200B6011E0A2F1300693
:100E1000092E01D8303A04E0052D01D8373A00E018
:100E2000573A641C02EB03130B2CDED302E00020C4
:100E30000B2C00D3002070BD0B6002E01AB19802A9
:100E400007E0012015E06D2C01D04D2C03D112B12B
:100E500018050860F5E7A4F13006092E08D803EB61
:100E6000830305EB4303521C23440B2AB3D3E1E76E
:100E700000200B2ADED270BD70470000104810B56C
:100E8000016841F00101016041680E4A1140416072
:100E900001680D4A11400160016821F48021016060
:100EA000416821F4FE0141604FF41F01816000217F
:100EB000C162FFF73FFF05494FF00060086010BDB9
:100EC000001002400000FFF8FFFFF6FE08ED00E012
:100ED0000029818902D041F4005101E021F4005140
:100EE000818170470246002012880A4200D001200A
:100EF000704710B5C1F3421301F01F040121A14056
:100F0000012B07D0022B07D01430002A026805D02D
:100F10000A4304E00C30F8E71030F6E78A43026039
:100F200010BD000030B50446008A85B00D464CF671
:100F3000FF710840E98801432182A1894EF6F31030
:100F40000140A8882A8910436A890A431043A08176
:100F5000A08A4FF6FF410840A9890143A182684653
:100F6000FFF7F2FC1B48844201D1039800E002988D
:100F7000A1890904002900EBC00101EB00102968D8
:100F800002DA4FEA410101E04FEA8101B0FBF1F0E2
:100F90006422B0FBF2F14FEA01114FEA11136FF036
:100FA00018056B4300EB8300A3891D044FF0320347
:100FB00006D503EBC000B0FBF2F000F0070005E03F
:100FC00003EB0010B0FBF2F000F00F0008432081AB
:100FD00005B030BD00380140C1F308018180704781
:100FE000FEE700002DE9F04F80460020ADF2244DD1
:100FF0006B4CDFF8A8B1CDF80804C4F804B005467E
:1010000007464FF480194FF0FF3ACDF81004002640
:101010004A460DF20C416846FFF7F2FC88B1012800
:1010200068D0002F00DD6D1C052D79DD1820FFF73D
:1010300059FE1820FFF756FE00200DF2244DBDE8A2
:10104000F08FDDF80C240025524507D042B19DF801
:101050000100F1B288420BD015209BE00620E9E7A1
:101060000620FFF73FFEDDF810040028CFD05BE03C
:1010700046B10DF103014046FFF788F80027C4F898
:1010800010806CE09DF8030098B300210DF103007F
:10109000444B02E05A54401C491C02780AB1FF2913
:1010A000F8DD00275F543946401C0DF2144302E07E
:1010B0005A54401C491C0278202A01D01029F7DB21
:1010C0005F540DF581611846FFF778FEDDF80804DE
:1010D000B0F5002F07DB1820FFF704FE1820FFF7FC
:1010E00001FE5046A9E7FFF7DDF9C4E90270384672
:1010F0000BE016E044E06288616802FB0010FFF735
:1011000089F92070A068401CA060E168884202D282
:1011100021780429EFD00620FFF7E4FD43202AE0E0
:1011200037E00620FFF7DEFDDDF8080485E72169DA
:101130000968FFF7C1F96068216902680B689A4283
:1011400008D01820FFF7CEFD1820FFF7CBFD6FF079
:10115000010072E7091D001D21613F1D6060DDF87F
:101160000C04874206DADDF80824606802EB0B0104
:101170008842DCD30620FFF7B5FD761C012747E740
:101180001820FFF7AFFD1820FFF7ACFD6FF002004D
:1011900053E74320FFF7A6FD3AE7000000300008C0
:1011A000140000203C04002002E008C8121F08C1FF
:1011B000002AFAD170477047002001E001C1121FD8
:1011C000002AFBD170470000FFF79EF91548006820
:1011D000A0F52541A53911D0FFF75EFC1248FFF7B5
:1011E0009DFD11484C30FFF799FD0F48FFF796FD24
:1011F0000EA0FFF793FDFFF757FA11E00948803082
:1012000001680C4A1140B1F1005F09D141680A4AF6
:101210000A4C116021600068FEF79FFF206880473C
:10122000FEE70000802F0008E01200080D0A0D0AFA
:10123000000000000000FE2F100000200C00002025
:101240002E2E2E616E6420612053797374656D209B
:1012500052657365742077696C6C206265206765E0
:101260006E65726174656420746F2072652D6C6F99
:10127000616420746865206E6577206F7074696F93
:101280006E2062797465730D0A0000000A0A0D2051
:1012900050726F6772616D6D696E6720436F6D701C
:1012A0006C65746564205375636365737366756CF0
:1012B0006C79210A0D2D2D2D2D2D2D2D2D2D2D2D22
:1012C0002D2D2D2D2D2D2D2D2D2D2D2D2D2D2D2D4E
:1012D0002D2D2D2D2D0D0A204E616D653A2000001B
:1012E0000D0A3D3D3D3D3D3D3D3D3D3D3D3D3D3D91
:1012F0003D3D3D3D3D3D3D3D3D3D3D3D3D3D3D3D1E
:101300003D3D3D3D3D3D3D3D3D3D3D3D3D3D3D3D0D
:101310003D3D3D3D3D3D3D3D3D3D3D3D3D3D3D3DFD
:101320003D3D3D3D3D3D3D3D000000000D0A3D2061
:10133000202020202020202020202055736572208E
:101340006170706C69636174696F6E206E6F742078
:1013500065787369742C20656E746572696E672098
:10136000626F6F74206D6F6465202020202009203B
:101370002020203D000000009813000800000020FD
:101380003C000000A8110008D41300083C00002015
:10139000040D0000B811000800000000000000006B
:1013A0000000000000000000000000000400000831
:1013B00000300008000000000000000000000000F5
:1013C00002040608000000000102030401020304F5
:1013D00006070809FFFFFFFFFFFFFFFFFFFFFFFFFB
:1013E000FFFFFFFFFFFFFFFFFFFFFFFFFFFFFFFF0D
:1013F000FFFFFFFFFFFFFFFFFFFFFFFFFFFFFFFFFD
:10140000FFFFFFFFFFFFFFFFFFFFFFFFFFFFFFFFEC
:10141000FFFFFFFFFFFFFFFFFFFFFFFFFFFFFFFFDC
:102F8000A5A50000FFFFFFFFFFFFFFFFFFFFFFFF03
:102F9000FFFFFFFFFFFFFFFFFFFFFFFFFFFFFFFF41
:102FA000FFFFFFFFFFFFFFFFFFFFFFFFFFFFFFFF31
:102FB000FFFFFFFFFFFFFFFFFFFFFFFFFFFFFFFF21
:102FC000FFFFFFFFFFFFFFFFFFFFFFFFFFFFFFFF11
:102FD000FFFFFFFFFFFFFFFFFFFFFFFFFFFFFFFF01
:102FE000FFFFFFFFFFFFFFFFFFFFFFFFFFFFFFFFF1
:102FF000FFFFFFFFFFFFFFFFFFFFFFFFFFFFFFFFE1
:10300000E8610020453100080B6500080F32000818
:1030100009650008A5480008D19F000800000000CD
:1030200000000000000000000000000039810008DE
:10303000CD5100080000000097310008DD81000834
:103040005F3100085F3100085F3100085F31000820
:103050005F3100085F3100085F3100085F31000810
:103060005F3100085F3100085F3100085F31000800
:103070005F3100085F3100085F3100085F310008F0
:103080005F3100085F3100085F3100085F310008E0
:103090005F3100085F3100085F3100085F310008D0
:1030A0005F310008958300085F3100085F31000838
:1030B000B9830008ED8300085F3100085F31000824
:1030C0005F3100085F3100085F3100085F310008A0
:1030D0005F3100085D950008A1950008559600082D
:1030E0005F3100085F3100085F3100085F31000880
:1030F0005F3100085F3100085F3100085F31000870
:103100005F3100085F310008258400085F31000846
:103110005F310008DD9400085F3100085F3100086E
:103120005F3100085F3100085F3100085F3100083F
:10313000DFF80CD000F00CFD00480047A5020108A4
:10314000E86100200648804706480047FEE7FEE7A2
:10315000FEE7FEE7FEE7FEE7FEE7FEE7FEE7FEE747
:103160004583000831310008EFF3108072B67047D4
:1031700080F310887047324A1368012B04D04FF057
:10318000010313602F4A10602F4A11602F484FF03F
:10319000805101607047EFF3108272B628480168D1
:1031A00091B14FF0000101602648016829B1EFF3A9
:1031B000098121E9F00F0068016023490968096865
:1031C000B1E8F00F81F3098882F310884EF0040E05
:1031D00070471D4908601B494FF0000008601849FE
:1031E0004FF0010008601A484FF47F01D0F800202A
:1031F00041EA0201016015484FF080510160154815
:103200000068006880F3088862B6704700BF1EF04F
:10321000040F14BFEFF30880EFF3098020E9F00FEB
:1032200040F804ED14BF80F3088880F3098800B5E6
:103230000FF0E8FA5DF804EB4EF0040E7047000062
:10324000F0010020E8010020EC01002004ED00E086
:1032500020ED00E008ED00E038B5D0E90221491E7C
:1032600001EB410102EBC1014268C1EB011102EB2C
:1032700081010268C1EB011102EB8103D0E9042155
:1032800001EB410102EB81013024A1F5527191FB68
:10329000F4F2154D04FB1211554303EBC5130093D3
:1032A0001A2902DB114A1A4400920C2391FBF3F213
:1032B0000F4C009D544303FB121105EBC4140D4B3E
:1032C000009408E0491E40F2A3245A5C6243009C2B
:1032D00004EBC21200920029F4DC0146684600F0BB
:1032E000CFFA009838BD00003F0C0F00805101005C
:1032F00067C2030020BA010810B500F0BBFABDE8B0
:10330000104000F0FDBA40EA01039B0703D009E03A
:1033100008C9121F08C0042AFAD203E011F8013BC1
:1033200000F8013B521EF9D27047D2B201E000F81A
:10333000012B491EFBD270470022F6E710B5134659
:103340000A4604461946FFF7F0FF204610BD10B5A7
:10335000044604E00B7800F8013B03B1491C521EFF
:10336000F8D2204610BD421C10F8011B0029FBD1E9
:10337000801A704710B5002200E0521C835C8C5C00
:10338000A34201D1002BF8D1D8B2E1B2401A10BD4E
:1033900030B505460020034600E05B1C934205D291
:1033A000EC5CC85C201A01D1002CF6D130BD70B5A0
:1033B000064607F0C3F9046805460A220021304694
:1033C00000F0FCFA2C6070BD2DE9FE4F804681EACA
:1033D0000300C00F0C46009021F0004123F000458F
:1033E000B8EB0200A94105D24046214690461C4652
:1033F0000B46024623F00040104347D0270DC7F389
:103400000A00C3F30A510290401A019040286BDA77
:10341000C3F3130040F4801B0098924620B10023B0
:10342000D2EB030A63EB0B0B01985946C0F1400243
:10343000504600F0EEF906460D4650465946019AB0
:1034400000F006FA10EB08006141002487EA1152EF
:1034500084EAE7731A4340D0009A62B3019A012AC2
:103460004FEA075215DC001B61EB02014FF00042EE
:1034700002EA0752CDE90042001C41F580113246B4
:103480002B4600F017FB03B0BDE8F08F4046214605
:10349000F9E7001B61EB0201001C41F580130018E5
:1034A0005B412018A2F5001747EB030140EAD570F5
:1034B000B6196D4111E06D084FEA360645EAC07550
:1034C0004FEA0752001B61EB0201001C41F580111D
:1034D00049084FEA30000019514132462B4603B0EB
:1034E000BDE8F04F00F0D9BA009801224000002357
:1034F000D0EB020263EBE073009821464FEAE074E0
:10350000B8EB000061EB0401E9E783F000435BE7FF
:1035100081F0004158E72DE9FE4F81EA030404F0F1
:10352000004421F0004100944FF0000B23F00043D1
:1035300050EA01045ED052EA03045BD0C3F30A549C
:10354000C1F30A552C44A4F2F3340194A0FB0254B5
:10355000C1F3130141F48011C3F3130343F4801347
:1035600001FB024400FB034E840A970A44EA81549B
:1035700047EA8357A4FB076802958D0A05FB078578
:103580004FEA932C04FB0C542705029D4FEA065882
:1035900047EA1637B5EB08056EEB070C870E920E5F
:1035A00047EA811742EA8312A7FB0201B6EB0B013F
:1035B00064EB00042B0D43EA0C335E1844EB1C5003
:1035C000DA465146E7FB0201C5F313044FEA0B3319
:1035D00043EA14534FEA0432019C43EA0603A4F180
:1035E0000C040294009CCDE900B400F063FA03B02F
:1035F000BDE8F08F00200146F9E72DE9F04D81EAA2
:10360000030404F0004B21F0004514464FF0000A7B
:1036100023F0004150EA050220D054EA01021DD0F7
:10362000C5F30A570246C5F31303C1F31300C1F3F0
:103630000A5640F4801543F48013A7EB0608101BCC
:10364000D64608F2FD3873EB050002D308F10108F5
:1036500001E092185B41B8F1000F03DA0020014647
:10366000BDE8F08D00204FF48011064684460EE040
:10367000171B73EB050705D3121B63EB050306430A
:103680004CEA010C49084FEA300092185B4150EABD
:103690000107EDD152EA030012D082EA040083EA66
:1036A0000501084305D0101BAB4106D201220023BF
:1036B00006E000224FF0004302E06FF001025310D9
:1036C0001AEB06004CEB085110EB0A0041EB0B0122
:1036D000BDE8F04D00F0E1B970B521F000430343BF
:1036E0000CD0C1F30A550024D5EB040564EB0403A8
:1036F000D617AD1AB34102DB0020014670BD201879
:1037000041EB025170BD0EB5C10F80EAE070084474
:10371000CA07002140F233438DE80E000A460B46EB
:1037200000F0C8F903B000BD0EB540F2334102917C
:103730000021CDE900110A460B4600F0BBF903B0A9
:1037400000BD20F00040C10DC0F3160040F40000A1
:103750007F2901DA00207047962903DCC1F1960128
:10376000C840704796398840704770B5C1F30A5217
:1037700001F000450024C1F3130140F2FF3341F48E
:1037800080119A4201DA002070BD40F233439A4220
:10379000A2F2334203DC524200F04AF800E09040CB
:1037A0002C43F1D0404270BDC1F30A5210B5C1F3B1
:1037B000130140F2FF3341F480119A4201DA0020F4
:1037C00010BD40F233439A42A2F2334203DC52422C
:1037D00000F02EF810BD904010BD01F0004330B451
:1037E00021F0004150EA010206D00A0DA2F56072F4
:1037F000C1F31301002A02DC30BC00207047440FE3
:1038000044EAC104C100E01830BC00EBC25000F033
:103810000DB9202A04DB203A00FA02F1002070479B
:103820009140C2F1200320FA03F3194390407047FE
:10383000202A04DB203A21FA02F00021704721FA05
:1038400002F3D040C2F1200291400843194670476C
:10385000202A06DBCB17203A41FA02F043EAE07354
:1038600006E041FA02F3D040C2F120029140084341
:1038700019467047014900F003B80000A05D002020
:1038800030B503683C22B3FBF2F002FB10330B604F
:10389000B0FBF2F302FB130018244860B3FBF4F012
:1038A00004FB10328A60021D0723B2FBF3F403FB12
:1038B00014228A61820040F2B55502F66C32B2FBE6
:1038C000F5F404F144000346486105FB1420800828
:1038D000C8613B2802D39A0700D0401C0022074C45
:1038E00013460A61E25C824203D8801A5B1C0B61BA
:1038F000F8E7401CC860084630BD00002CBA01083B
:10390000F0B52A4A2A4C85B00021836903EB4303B2
:103910000B44491CE35C02F8013B0329F5DB244C12
:103920004FF0200C002102F801CB1534036903EBA2
:1039300043030B44491CE35C02F8013B0329F5DB1C
:10394000C3680093836801934368029303680393F9
:10395000406918A100F26C706B460A27049016E0CB
:1039600002F8010B11F8010F08B1022500E004254F
:1039700010CB284606E0264694FBF7F407FB1466B6
:1039800030361654061EA0F10100F4DC2A440878F3
:103990000028E5D1177050700448017A302901D110
:1039A00080F808C005B00148F0BD0000CC5D0020E3
:1039B00038BA010820203A3A200000002DE9F047EB
:1039C00091460F4680460446002614F8015B2DB14F
:1039D00000F0D0F80068405DC007F6D12B2D02D072
:1039E0002D2D18D0641E4A463946204600F0C6F8F0
:1039F00027B13968A14201D1C7F8008071054FF0A5
:103A000002040BD54042002803DD06F097FE046057
:103A1000A007BDE8F08746F48066E4E70028F8DAFE
:103A200006F08CFE04606FF00040F2E70029A8BFAA
:103A30007047401C490008BF20F00100704710B4D7
:103A4000B0FA80FC00FA0CF050EA010404BF10BC8C
:103A5000704749B1CCF1200421FA04F411FA0CF1B9
:103A600018BF012121430843A3EB0C01CB1D4FEAF2
:103A700000614FEA102042BF002010BC704700EBED
:103A8000C35010440029A4BF10BC7047401C49001B
:103A900008BF20F0010010BC704710B5002B08DAF9
:103AA000401C41F1000192185B411A4301D120F002
:103AB000010010BD2DE9F04D92469B4611B1B1FABF
:103AC00081F202E0B0FA80F220329046FFF7A1FEC8
:103AD00004460F4640EA0A0041EA0B0153465A46A3
:103AE000084313D0114653EA010019D0C8F140022F
:103AF0005046FFF79DFE05460E4650465946424643
:103B0000FFF787FE084305D0012004E02046394630
:103B1000BDE8F08D0020054346EAE0762C433743AC
:103B20000A986305E40AA0EB08000022FD0A44EAB3
:103B300047540A3002D500200146E9E70105101973
:103B40006941DDE9084500196941BDE8F04DA4E788
:103B5000064C074D06E0E06840F0010394E80700DA
:103B600098471034AC42F6D3FFF7E6FAE4C20108F6
:103B700004C3010800487047F4BA01082DE9F05F5A
:103B800082460078002715468B460AF10104B946A3
:103B9000302801D09DB113E014F8010B01277828DB
:103BA00003D0582801D045B10AE00DB1102D07D13E
:103BB0000027102514F8010B02E0082500E00A2573
:103BC0000026B0460EE005FB080005FB06F10127C4
:103BD00001EB10461FFA80F8B6F5803F00D3B946D6
:103BE00014F8010B294600F018F80028EBDABBF1B5
:103BF000000F05D00FB1641E00E05446CBF8004022
:103C0000B9F1000F06D006F099FD02210160C81E2F
:103C1000BDE8F09F48EA0640FAE73A2800D230387B
:103C200020F02002412A01D3A2F13700884201D3BB
:103C30004FF0FF30704770B58C1810F8015B15F02D
:103C4000070301D110F8013B2A1106D110F8012B0E
:103C500003E010F8016B01F8016B5B1EF9D12B0733
:103C600005D40023521E0DD401F8013BFAE710F8E9
:103C7000013BCB1A921C03E013F8015B01F8015BD6
:103C8000521EF9D5A142D8D3002070BD70B50446AC
:103C90000F480D4684420AD00E48844207D00E4891
:103CA000844204D04FF497710CA008F0D1F855B1BC
:103CB000012D04D040F22F1108A008F0C9F8A06827
:103CC00040F0010002E0A06820F00100A06070BD9B
:103CD0000024014000280140003C01404C69627210
:103CE00061726965735C53544D3332463130785F8D
:103CF0005374645065726970685F44726976657266
:103D00005C7372635C73746D3332663130785F61FB
:103D100064632E630000000070B504460E480D4633
:103D2000844207D00D48844204D040F247110CA0D1
:103D300008F08EF855B1012D04D04FF4A47108A0FD
:103D400008F086F8A06840F4807002E0A06820F4D3
:103D50008070A06070BD000000240140003C014064
:103D60004C69627261726965735C53544D333246BB
:103D70003130785F5374645065726970685F447263
:103D8000697665725C7372635C73746D333266312D
:103D900030785F6164632E630000000070B50446F4
:103DA0000A48002584420AD00948844207D00948BD
:103DB000844204D04FF4D97107A008F049F8A068F4
:103DC000400700D50125284670BD000000240140B1
:103DD00000280140003C01404C69627261726965D3
:103DE000735C53544D3332463130785F53746450B2
:103DF00065726970685F4472697665725C7372633C
:103E00005C73746D3332663130785F6164632E6346
:103E10000000000070B504460A48002584420AD01C
:103E20000948844207D00948844204D04FF4C6713F
:103E300007A008F00DF8A068000700D50125284666
:103E400070BD00000024014000280140003C0140FA
:103E50004C69627261726965735C53544D333246CA
:103E60003130785F5374645065726970685F447272
:103E7000697665725C7372635C73746D333266313C
:103E800030785F6164632E63000000002DE9F04725
:103E9000054644480C46854209D04348854206D031
:103EA0004248854203D0DF2141A007F0D1FF4FF403
:103EB0000036206877004FF4C0284FF40029D0B1B5
:103EC000B0F5803F17D0B04215D0B0F5403F12D0CA
:103ED000B84210D0B0F5A02F0DD040450BD0B0F5B2
:103EE000E02F08D0484506D0B0F5102F03D0E021D0
:103EF0002FA007F0ADFF207928B1012803D0E121E0
:103F00002BA007F0A5FF607928B1012803D0E2219A
:103F100027A007F09DFFA068A0B1B04212D0B84220
:103F200010D040450ED048450CD0B0F5202F09D018
:103F3000B0F5402F06D0B0F5602F03D0E3211CA0D0
:103F400007F086FFE06830B1B0F5006F03D0E421E0
:103F500017A007F07DFF207C401E0F2803D9E52124
:103F600013A007F075FF686820492279084021688E
:103F700040EA022001436960A8681D490840D4E96D
:103F800002211143627940EA42000143A960E86AD4
:103F9000217C20F47000491EC9B240EA0150E86259
:103FA000BDE8F0870024014000280140003C0140AA
:103FB0004C69627261726965735C53544D33324669
:103FC0003130785F5374645065726970685F447211
:103FD000697665725C7372635C73746D33326631DB
:103FE00030785F6164632E6300000000FFFEF0FF25
:103FF000FDF7F1FF2DE9F041054648481E461746FA
:104000000C4685420AD04648854207D0454885423D
:1040100004D040F2522144A007F01AFF34B3012C1F
:1040200024D0022C22D0032C20D0042C1ED0052C0E
:104030001CD0062C1AD0072C18D0082C16D0092C0E
:1040400014D00A2C12D00B2C10D00C2C0ED00D2C0E
:104050000CD00E2C0AD00F2C08D0102C06D0112C0E
:1040600004D040F2532130A007F0F2FEA7F101087E
:10407000B8F10F0F04D94FF415712BA007F0E8FE2B
:1040800096B1012E10D0022E0ED0032E0CD0042E8D
:104090000AD0052E08D0062E06D0072E04D040F2F6
:1040A000552121A007F0D4FE0722092C0AD9E9687E
:1040B000A4F10A0000EB4000824091438640314366
:1040C000E96007E0296904EB44008240914386409F
:1040D000314329611F21072F09D26A6B08EB880041
:1040E00081408A43844022436A63BDE8F0810D2FFA
:1040F00009D22A6BFF1F07EB870081408A43844067
:1041000022432A63F1E7EA6A0D3F07EB870081400B
:104110008A4384402243EA62E7E70000002401402A
:1041200000280140003C01404C696272617269657F
:10413000735C53544D3332463130785F537464505E
:1041400065726970685F4472697665725C737263E8
:104150005C73746D3332663130785F6164632E63F3
:104160000000000010B50446094884420AD00948FE
:10417000844207D00848844204D04FF4BF7107A09E
:1041800007F066FEA06840F00800A06010BD0000C7
:104190000024014000280140003C01404C6962724B
:1041A00061726965735C53544D3332463130785FC8
:1041B0005374645065726970685F447269766572A1
:1041C0005C7372635C73746D3332663130785F6137
:1041D00064632E630000000070B504460F480D466E
:1041E00084420AD00E48844207D00E48844204D04C
:1041F0004FF4E6710CA007F02BFE55B1012D04D051
:1042000040F2CD1108A007F023FEA06840F4A00002
:1042100002E0A06820F4A000A06070BD002401406E
:1042200000280140003C01404C696272617269657E
:10423000735C53544D3332463130785F537464505D
:1042400065726970685F4472697665725C737263E7
:104250005C73746D3332663130785F6164632E63F2
:104260000000000010B50446094884420AD00948FD
:10427000844207D00848844204D04FF4D27107A08A
:1042800007F0E6FDA06840F00400A06010BD00004B
:104290000024014000280140003C01404C6962724A
:1042A00061726965735C53544D3332463130785FC7
:1042B0005374645065726970685F447269766572A0
:1042C0005C7372635C73746D3332663130785F6136
:1042D00064632E630000000010B5094C50B1012842
:1042E00004D040F2924107A007F0B2FD206840F4EC
:1042F000000002E0206820F40000206010BD0000F3
:10430000082401404C69627261726965735C5354A0
:104310004D3332463130785F537464506572697042
:10432000685F4472697665725C7372635C73746D06
:104330003332663130785F6164632E6300000000C1
:10434000F8B50400224F4FF003004FF010054FF076
:10435000080602D0012C0DD102E0ADF8005001E0BA
:10436000ADF800608DF802008DF8035069463846BC
:1043700001F01CF914B1012C06D101E0102100E07C
:104380000821384601F04CFB40F2DC5000F04AFFB7
:1043900014B1012C06D101E0102100E008213846BB
:1043A00001F090FB042014B1012C0BD102E0ADF818
:1043B000005001E0ADF800608DF803006946384612
:1043C00001F0F4F8BDE8F840282000F02BBF000011
:1043D000000C0140F8B50121082002F067FE012120
:1043E000084602F063FE0121114801F09BF91024F8
:1043F000ADF8004003250F4E8DF802508DF80340B4
:104400006946304601F0D2F81021304601F05AFBDF
:104410000820ADF800008DF802508DF80340694681
:10442000304601F0C3F80821304601F04BFBF8BDDF
:1044300000023000000C0140FFF7CCBF0100064A2B
:104440004FF0000005D0012905D10821104601F0E8
:1044500069BA1021FAE77047000C01402DE9FF47C7
:104460000025634A0746009501950295039510784B
:104470002E46401CC0B21070FF2801D33046167083
:10448000C0B20621B0FBF1F301FB13041CB1002004
:1044900004B0BDE8F0875078401CC0B250701E28B0
:1044A00001D31E2050705248B04691464146C2F892
:1044B0000660801D03F060FA4D494E4BEA468DF8C8
:1044C0000000091D80B18A1C108868B181F8008045
:1044D00060F30F06508860F31F46B7F8C80240F03B
:1044E0000100A7F8C80219E00878401C0870C0B2A3
:1044F000142812D940F21D10A3F8280340F23720E7
:10450000A3F82A03B7F8C80220F00100A7F8C802F0
:10451000FFF760FF89F8018066E0E8BBB0B24FF4B6
:104520007A72DFF8D4C090421ED2E8B1310C1BD0B1
:10453000914219D22E4EB61C3278521CD2B2327031
:10454000FF2A02D3424686F80080D2B20526B2FB8B
:10455000F6F706FB1722264E0A36308071802CF8BB
:1045600012000CEB4200418104EB840001AE03AF6A
:104570000CEB800232F8150048B136F824100844DC
:1045800026F8240017F81400401C07F8140002EB6A
:104590004500408960B100E026E006EB8401B1F8F7
:1045A00002C06044488007EB44004178491C4170D8
:1045B0006D1CEDB2052DDDD336F8240017F814106C
:1045C00007EB4402B0FBF1F0198D014403EB8400CA
:1045D000A0F8281306EB840152784988B1FBF2F168
:1045E0005A8D1144A0F82A131AF8040050E700006D
:1045F0009C000020F4030020643A0020152810D20B
:10460000DFE800F00F0F0F0F0F0F0F0F0F0F0B0B47
:104610000B0D0D0D0D0D0D0D0D00032070471E200F
:10462000704705207047000008B50A4A417882F8B3
:10463000D910C17822F8DA1F037943EA01211180E9
:1046400000910379C278417803A00EF097FB012016
:1046500008BD0000DC0700207538427566665B31D6
:104660005D3D25642C333D25642C343D25642C6C44
:104670005F7379732E4865617457617465725F4624
:104680006C6F773D25640A0010B5012002F08AFDA9
:10469000BDE81040002002F085BD000038B504469A
:1046A00000200090042C55D0082C53D00C2C51D055
:1046B000102C4FD0142C4DD0182C4BD01C2C49D082
:1046C000202C47D0242C45D0282C43D0402C41D03E
:1046D000442C3FD0482C3DD04C2C3BD0502C39D0D2
:1046E000542C37D0582C35D05C2C33D0602C31D0A2
:1046F000642C2FD0682C2DD06C2C2BD0702C29D072
:10470000742C27D0782C25D07C2C23D0802C21D041
:10471000842C1FD0882C1DD08C2C1BD0902C19D011
:10472000942C17D0982C15D09C2C13D0A02C11D0E1
:10473000A42C0FD0A82C0DD0AC2C0BD0B02C09D0B1
:10474000B42C07D0B82C05D0BC2C03D0F62104A083
:1047500007F07EFB114820440090008838BD00001F
:104760004C69627261726965735C53544D333246B1
:104770003130785F5374645065726970685F447259
:10478000697665725C7372635C73746D3332663123
:1047900030785F626B702E6300000000006C004098
:1047A00038B5044600200D460090042C55D0082C46
:1047B00053D00C2C51D0102C4FD0142C4DD0182C81
:1047C0004BD01C2C49D0202C47D0242C45D0282C51
:1047D00043D0402C41D0442C3FD0482C3DD04C2CD1
:1047E0003BD0502C39D0542C37D0582C35D05C2CA1
:1047F00033D0602C31D0642C2FD0682C2DD06C2C71
:104800002BD0702C29D0742C27D0782C25D07C2C40
:1048100023D0802C21D0842C1FD0882C1DD08C2C10
:104820001BD0902C19D0942C17D0982C15D09C2CE0
:1048300013D0A02C11D0A42C0FD0A82C0DD0AC2CB0
:104840000BD0B02C09D0B42C07D0B82C05D0BC2C80
:1048500003D0E32103A007F0FBFA114820440090A5
:10486000056038BD4C69627261726965735C53544E
:104870004D3332463130785F5374645065726970DD
:10488000685F4472697665725C7372635C73746DA1
:104890003332663130785F626B702E630000000047
:1048A000006C0040FEE700001FB51C4C204604F0E1
:1048B00047F80021ADF80610ADF802104EF6602062
:1048C000ADF80400ADF800106946204604F03CFD48
:1048D000002202231146204604F040F919208DF8E9
:1048E0000C0001218DF80F108DF80D1003208DF8AC
:1048F0000E0003A801F018FE0121204603F0C0FEBF
:1049000001221146204604F01DFB0021204604F040
:104910009FFC0121204603F037FF1FBD002C014002
:104920002DE9F04180460C461046FEF7ECFE0646A7
:104930000F462046FEF7F8FE04460D464046FEF7B9
:10494000F3FE4FF06632164BFEF7E5FD0022154BE5
:10495000FEF7E1FD0222FEF7BFFE0022124BFEF73A
:104960004CFE00224FF08043FEF7CFFD00220F4B9C
:10497000FEF7D1FD00220E4BFEF7CDFD22462B4661
:10498000FEF73BFE32463B46FEF71EFDFEF7EDFE10
:10499000002801DC47F6FF7000B2BDE8F08100009E
:1049A00066660A40000059400000D44000408F4035
:1049B0000000244070B5064D04460121284603F04E
:1049C0005FFE0021284604F043FC0020208070BDDB
:1049D000002C014070B5184D184E0020B5F91C434D
:1049E00086F8DE00B5F8B801F0B101F05DF9010715
:1049F0001AD5400618D5A4F5FE40FF3814D0B5F8F6
:104A0000BA01A0420CDA012086F8DE00014605203A
:104A10000CF076FC0121BDE8704006200CF070BC63
:104A2000B5F8BC01A04205DD002105200CF068FCB2
:104A30000021F0E770BD0000F4030020DC07002037
:104A400070B5124900228C1E0878401CC0B2087054
:104A50002378052B18D2DFE803F0140307111500A3
:104A6000FA280ED906200BE0094D2846FFF7DCFD99
:104A700028461421FEF760FC032001E00A700420A0
:104A8000207070BD6428FCD3227070BD8E000020A1
:104A90009C39002070B51E4805F00CFA1D4C01250C
:104AA000C0B284F8015294F8021251BB237800215D
:104AB000621C13B1032B27D109E0B4F806328342FC
:104AC00023D18854A4F80452032020701DE0B4F8C8
:104AD0000432B3F5007F15D29854B4F80402401C98
:104AE00080B2A4F80402A278102A04D008280CD3BB
:104AF00084F8025208E0092807D3E279093290428B
:104B0000F6D002E0A4F804122170012070BD00006C
:104B100000440040FE5A002070B5274805F0CAF94D
:104B2000264B0124C0B283F8014293F8021261BB04
:104B30001A780026591C3AB1012A0CD06502022AC3
:104B400015D0032A34D121E05A2832D17054A3F869
:104B500004421C702DE0A5282BD1B3F80422505438
:104B6000B3F80402401CA3F8040202200CE0B3F8DE
:104B70000422AA421DD283F80A025054B3F8040258
:104B8000401CA3F804020320187012E0B3F80422BA
:104B9000AA420ED25054B3F80402401C80B2A3F8CB
:104BA000040293F80A12C91C884202D383F8024215
:104BB0001E70012070BD000000440040FE5A00201D
:104BC0000121402002F0B8B910B50446000F02D010
:104BD0000848044200D124B940F20E2106A007F093
:104BE00037F9E00002D51348046010BD1248446054
:104BF00010BD00000000F0EF4C69627261726965DF
:104C0000735C53544D3332463130785F5374645083
:104C100065726970685F4472697665725C7372630D
:104C20005C73746D3332663130785F646D612E630E
:104C300000000000040402400000024070B5044679
:104C400022480D4684422FD02048143084422BD075
:104C50001E482830844227D01C483C30844223D050
:104C60001A48503084421FD01848643084421BD008
:104C700016487830844217D01548844214D014481E
:104C80001430844210D01248283084420CD010488E
:104C90003C30844208D00E485030844204D040F268
:104CA00029110CA007F0D4F855B1012D04D04FF410
:104CB000957108A007F0CCF8206840F0010003E0EF
:104CC00020684FF6FE710840206070BD0800024069
:104CD000080402404C69627261726965735C5354E6
:104CE0004D3332463130785F537464506572697069
:104CF000685F4472697665725C7372635C73746D2D
:104D00003332663130785F646D612E6300000000DD
:104D10002DE9F05F4D4E4D4F4C4DDFF83081DFF8FF
:104D20002C91DFF828A1DFF824B114362837044687
:104D300008F13C0809F150090AF1640A0BF1780BFB
:104D4000A84222D0B44220D0BC421ED044451CD040
:104D50004C451AD0544518D05C4516D03C48844286
:104D600013D03B48143084420FD039482830844255
:104D70000BD037483C30844207D03548503084420D
:104D800003D06F2133A007F063F820684FF6FE715F
:104D900008402060002020606060A060E0602B4838
:104DA0000838AC4203D1416841F00F0104E0B4423D
:104DB00005D1416841F0F0014160BDE8F09FBC427F
:104DC00003D1416841F47061F6E7444503D141687D
:104DD00041F47041F0E74C4503D1416841F4702142
:104DE000EAE7544503D1416841F47001E4E75C45CA
:104DF00003D1416841F07061DEE71549081F8C421C
:104E000003D1016841F00F0106E0114914318C42D1
:104E100004D1016841F0F0010160CEE70C4928316E
:104E20008C4203D1016841F47061F5E708493C31D7
:104E30008C4203D1016841F47041EDE704495031DF
:104E40008C42BAD1016841F47021E5E708000240C4
:104E5000080402404C69627261726965735C535464
:104E60004D3332463130785F5374645065726970E7
:104E7000685F4472697665725C7372635C73746DAB
:104E80003332663130785F646D612E63000000005C
:104E900070B50025044601287ED0022C7CD0042C5D
:104EA0007AD0082C78D0102C76D0202C7FD0402CB3
:104EB0007DD0802C7BD0B4F5807F78D0B4F5007F96
:104EC00075D0B4F5806F72D0B4F5006F6FD0B4F5C3
:104ED000805F6CD0B4F5005F69D0B4F5804F66D0C8
:104EE000B4F5004F63D0B4F5803F60D0B4F5003F17
:104EF0005DD0B4F5802F5AD0B4F5002F57D0B4F55B
:104F0000801F54D0B4F5001F51D0B4F5800F4ED09F
:104F1000B4F5000F4BD0B4F1807F48D0B4F1007FDE
:104F200045D0B4F1806F42D0B4F1006F3FD06FF044
:104F30008050C4423BD0A4F18050801E37D0801EE8
:104F400035D0001F33D0083831D010382FD020385A
:104F50002DD040382BD01B48844228D01A48844298
:104F600025D01A48844222D0194884421FD0B4F177
:104F7000102F1CD04FEAF030844218D015488442DC
:104F800015D01548844212D0144884420FD01448DA
:104F900084420CD0134800E009E0844207D0124854
:104FA000844204D040F2B71110A006F051FFE00097
:104FB00001D51D4800E01D480068204200D00125B1
:104FC000284670BD0001001000020010000400100F
:104FD00000080010004000100080001000000110C8
:104FE0000000021000000410000008104C696272FA
:104FF00061726965735C53544D3332463130785F6A
:105000005374645065726970685F44726976657242
:105010005C7372635C73746D3332663130785F64D5
:105020006D612E6300000000000402400000024099
:1050300070B5054654480C4685422ED0524814306F
:1050400085422AD050482830854226D04E483C30F0
:10505000854222D04C48503085421ED04A486430A8
:1050600085421AD048487830854216D04748854254
:1050700013D04648143085420FD04448283085422A
:105080000BD042483C30854207D0404850308542E2
:1050900003D0CF213EA006F0DBFEA068102804D08C
:1050A00018B1D0213AA006F0D3FEE0684FF6FF71A8
:1050B000401E884203D3D12135A006F0C9FE2069E5
:1050C000402804D018B1D22131A006F0C1FE606999
:1050D000802804D018B1D3212DA006F0B9FEA06914
:1050E00048B1B0F5807F06D0B0F5007F03D0D42161
:1050F00027A006F0ADFEE06948B1B0F5806F06D09C
:10510000B0F5006F03D0D52121A006F0A1FE206AE2
:10511000202804D018B1D6211DA006F099FE606A9F
:10512000B0F5405F0AD0B0F5005F07D0B0F5805F02
:1051300004D018B1D72116A006F08AFEA06AB0F5F7
:10514000804F04D018B1D82111A006F081FE296843
:1051500047F6F0708143226AA0681043D4E9042323
:105160001A431043A2691043E2691043626A104374
:10517000A26A104308432860E06868602068A8605D
:105180006068E86070BD000008000240080402404A
:105190004C69627261726965735C53544D33324677
:1051A0003130785F5374645065726970685F44721F
:1051B000697665725C7372635C73746D33326631E9
:1051C00030785F646D612E6300000000704700005E
:1051D00070B5134DB5F91603B5F97011B5F918434B
:1051E000814201DD012204E0B5F97211814204DA45
:1051F00000220421002011F08FFCB5F97001A042BB
:1052000001DD012204E0B5F97201A04206DA0022B4
:10521000BDE870400521002011F07EBC70BD00008B
:10522000F403002004E00021491CC9B20929FBD382
:10523000401EF8D27047000008B50121C80201F0F5
:1052400035FF0121052001F031FF4FF48050ADF80A
:10525000000004208DF8030003208DF80200694649
:10526000034800F0A3F9BDE80840FFF71DBB0000AC
:105270000008014072B6704762B6704710B5144816
:10528000144CB0F8880198B100F00EFD800601D5ED
:10529000002100E001210D200CF032F814F8D40FA9
:1052A00040F008002070607840F00800607010BD89
:1052B00014F8D40F002120F008002070607820F04E
:1052C00008006070BDE810400D200CF019B8000017
:1052D000F4030020DC07002010B5044630F0350050
:1052E00000D124B940F2B65102A006F0B1FD104839
:1052F000C46010BD4C69627261726965735C53541D
:105300004D3332463130785F537464506572697042
:10531000685F4472697665725C7372635C73746D06
:105320003332663130785F666C6173682E630000DB
:105330000020024070B505461149A0F10060884286
:1053400004D340F2A7110FA006F082FD4FF43026DF
:10535000304600F019F9042811D1194C206940F0A9
:10536000020020616561206940F040002061304604
:1053700000F00AF9216941F6FD721140216170BD0A
:10538000FFFF0F004C69627261726965735C535470
:105390004D3332463130785F5374645065726970B2
:1053A000685F4472697665725C7372635C73746D76
:1053B0003332663130785F666C6173682E6300004B
:1053C0000020024008490420CA68D20701D0012009
:1053D0007047CA68520701D502207047C968C906DC
:1053E000FBD50320704700000020024002480169FD
:1053F00041F08001016170470020024010B5044671
:10540000102805D024B140F22F1106A006F020FD8F
:105410001348016821F01001016001682143016017
:1054200010BD00004C69627261726965735C53540F
:105430004D3332463130785F537464506572697011
:10544000685F4472697665725C7372635C73746DD5
:105450003332663130785F666C6173682E630000AA
:10546000002002402DE9F84304460E46002000903B
:105470001449A4F10060884204D340F2AF2112A085
:1054800006F0E6FC4FF40057384600F07DF804289B
:1054900016D11C4D286940F0010028612680B846CD
:1054A000384600F071F8BF1E042806D1A41C300C49
:1054B00000942080404600F067F82969394029614E
:1054C000BDE8F883FFFF0F004C6962726172696585
:1054D000735C53544D3332463130785F53746450AB
:1054E00065726970685F4472697665725C73726335
:1054F0005C73746D3332663130785F666C617368EB
:105500002E6300000020024010B5040008D0012CDA
:1055100006D0022C04D040F2031105A006F098FC3E
:105520001249086800F038002043086010BD0000F0
:105530004C69627261726965735C53544D333246D3
:105540003130785F5374645065726970685F44727B
:10555000697665725C7372635C73746D3332663145
:1055600030785F666C6173682E6300000020024033
:105570000348024941600349416070472301674580
:1055800000200240AB89EFCD00B50346FFF71AFFBC
:1055900002E0FFF717FF5B1E012803D0002B00D1AC
:1055A000052000BD002BF4D1FAE700002DE9F04101
:1055B0000446464800260D46844215D0444884429D
:1055C00012D0444884420FD0434884420CD0434810
:1055D000844209D04248844206D04248844203D0E3
:1055E000B22141A006F034FCE87888B104280FD03D
:1055F00028280DD048280BD0142809D0102807D00F
:105600001C2805D0182803D0B32137A006F020FCB1
:10561000288818B9B42134A006F01AFCE87800F004
:105620000F07C0060CD5A878012807D0022805D09E
:10563000032803D0BB212CA006F00AFCA87807435E
:1056400028784FF00F0C10F0FF0F4FF0010E1BD019
:1056500021682A880EFA06F00240824210D1B20078
:105660000CFA02F321EA030307FA02F1EA7819437C
:10567000282A02D0482A02D002E0606100E02061BE
:10568000761C082EE5D321602888FF281CD9616884
:10569000002000F108030EFA03F22B881340934216
:1056A0000ED183000CFA03F6B14307FA03F6EB7848
:1056B0003143282B00D16261EB78482B00D1226165
:1056C000401C0828E5D36160BDE8F0810008014076
:1056D000000C01400010014000140140001801407E
:1056E000001C0140002001404C69627261726965D2
:1056F000735C53544D3332463130785F5374645089
:1057000065726970685F4472697665725C73726312
:105710005C73746D3332663130785F6770696F2EF9
:10572000630000002DE9F0410D46044601287DD0BC
:10573000022C7BD0042C79D0082C77D0A4F5A010B3
:1057400010387DD020387BD0A4F5B010403877D009
:10575000803875D05348844272D0534884426FD009
:10576000524884426CD05248844269D051488442A5
:1057700066D0B4F5805F63D0B4F5EA1F60D0B4F5AD
:10578000EB1F5DD0B4F5004F5AD06FF40010C44247
:1057900056D0A4F50010801E52D0801E50D0001F9D
:1057A0004ED008384CD0B4F1201F49D0303847D003
:1057B0004148844244D04148844241D040488442D8
:1057C0003ED0404884423BD03F48844238D0B4F574
:1057D000011F35D06FF00040C44231D0C01C84425C
:1057E0002ED0801C84422BD0001D844228D0374804
:1057F000844225D035481030844221D0334830309F
:1058000084421DD031487030844219D02F48F03086
:10581000844215D02E48844212D02E4884420FD0A4
:105820002D4884420CD02D48844200E008E007D087
:105830002B48844204D040F22A212AA006F008FB1B
:1058400035B1012D04D040F22B2126A006F000FB3B
:105850003349002C01DACA6900E04A68630D1E0171
:10586000A3B2C4F30157B340C4F30340032F05D0E0
:10587000E6020AD503268640B24307E022F07060B4
:105880004A6822F070624A6002E09A4342F0706017
:1058900005B11843002C02DAC861BDE8F081486008
:1058A000FBE70000000118000002180000031800C8
:1058B00000081A00000C1A0000013000000230003D
:1058C00000043000001120000020200010000080A3
:1058D00000020080000400800008008000100080AA
:1058E000002000804C69627261726965735C535478
:1058F0004D3332463130785F53746450657269704D
:10590000685F4472697665725C7372635C73746D10
:105910003332663130785F6770696F2E6300000044
:105920000000014070B50546274800260C46854218
:1059300016D02648854213D02548854210D02548E8
:1059400085420DD0244885420AD02448854207D09C
:105950002348854204D04FF48F7122A006F078FAD4
:10596000012C2AD0022C28D0042C26D0082C24D09C
:10597000102C22D0202C20D0402C1ED0802C1CD0CB
:10598000B4F5807F19D0B4F5007F16D0B4F5806FE0
:1059900013D0B4F5006F10D0B4F5805F0DD0B4F51E
:1059A000005F0AD0B4F5804F07D0B4F5004F04D0A3
:1059B00040F21F110BA006F04BFAA868204200D05D
:1059C0000126304670BD000000080140000C014077
:1059D000001001400014014000180140001C01406B
:1059E000002001404C69627261726965735C5354B6
:1059F0004D3332463130785F53746450657269704C
:105A0000685F4472697665725C7372635C73746D0F
:105A10003332663130785F6770696F2E6300000043
:105A200070B5044611480D46844216D01048844291
:105A300013D01048844210D00F4884420DD00F4834
:105A400084420AD00E48844207D00E48844204D0D3
:105A500040F279110CA006F0FBF925B94FF4BD71A5
:105A600009A006F0F5F9656170BD0000000801406D
:105A7000000C0140001001400014014000180140DA
:105A8000001C0140002001404C696272617269652E
:105A9000735C53544D3332463130785F53746450E5
:105AA00065726970685F4472697665725C7372636F
:105AB0005C73746D3332663130785F6770696F2E56
:105AC0006300000070B5044611480D46844216D0AC
:105AD0001048844213D01048844210D00F488442AA
:105AE0000DD00F4884420AD00E48844207D00E4899
:105AF000844204D040F269110CA006F0A9F925B93E
:105B00004FF4B57109A006F0A3F9256170BD00003E
:105B100000080140000C0140001001400014014049
:105B200000180140001C0140002001404C696272D5
:105B300061726965735C53544D3332463130785F1E
:105B40005374645065726970685F447269766572F7
:105B50005C7372635C73746D3332663130785F6787
:105B600070696F2E6300000070B505462A4816461E
:105B70000C46854216D02948854213D028488542D4
:105B800010D0284885420DD0274885420AD02748A2
:105B9000854207D02648854204D040F28D1125A0C9
:105BA00006F056F9012C2AD0022C28D0042C26D03D
:105BB000082C24D0102C22D0202C20D0402C1ED0F9
:105BC000802C1CD0B4F5807F19D0B4F5007F16D09E
:105BD000B4F5806F13D0B4F5006F10D0B4F5805FCA
:105BE0000DD0B4F5005F0AD0B4F5804F07D0B4F5FE
:105BF000004F04D04FF4C7710EA006F029F946B14A
:105C0000012E04D040F28F110AA006F021F92C6178
:105C100070BD6C6170BD000000080140000C0140C7
:105C2000001001400014014000180140001C014018
:105C3000002001404C69627261726965735C535463
:105C40004D3332463130785F5374645065726970F9
:105C5000685F4472697665725C7372635C73746DBD
:105C60003332663130785F6770696F2E63000000F1
:105C700070B50B4D002420212846FFF753FE00B9D4
:105C8000022410212846FFF74DFE28B124F0010020
:105C9000044981F8DF0070BD44F00100F8E700001E
:105CA00000180140DC07002000B50023184610F062
:105CB0009DFC00B90123012010F098FC08B943F0C5
:105CC0000203022010F092FC08B943F00403032001
:105CD00010F08CFC08B943F00803042010F086FC97
:105CE00008B943F01003052010F080FC08B943F018
:105CF0002003062010F07AFC20B118460349A1F8D1
:105D0000BE0300BD43F04000F8E70000F4030020AC
:105D100010B501F075FA012001F076FB212001F0A9
:105D2000D9FA0028FAD01020FFF768FB0220FFF70D
:105D3000EBFB002001F028FB002001F00BFC002011
:105D400001F0CCFB4FF46011002001F06DFC01204C
:105D500001F03CFC392001F0BDFA0028FAD0022005
:105D600001F02EFD01F008FB0828FBD110BD00005A
:105D70002DE9F84F554D04462146B5F8D40340F0BF
:105D80000100A5F8D403684611F006FE5048002132
:105D900004EB840701554F484D4B3A189B1E9678EB
:105DA000A0F12809181F4FF0020A4FF0060B052E2C
:105DB0007ED2DFE806F00316365588009DF8001005
:105DC00001290DD1195509F82710418011719170E1
:105DD000B5F8D40340F00200A5F8D403A5F8DA130F
:105DE00071E09DF80060012E07D036B1917003F884
:105DF00004B04088A5F8DC0365E0418809EB87041E
:105E00003144418011794B1C13710E550E210170E4
:105E100082F802A0B5F8D41341F00401A5F8D41318
:105E2000E7E741889DF8004009EB870621448BB2E3
:105E3000438011794F1C17718C550178491E11F060
:105E4000FF01017005D1A5F8DE3380F800A0032022
:105E50009070B5F8D40340F00800A5F8D40332E000
:105E600016799DF8008009EB870706F1010C82F88E
:105E700004C006F807800678761E16F0FF06067046
:105E800021D1B5F8D46346F0100CA5F8D4C33E7CFC
:105E90007F7C408847EA0626A5F8D603A5F8D86394
:105EA000864209D14CF02000A5F8D403917000E09F
:105EB00006E003F804A006E04CF04000A5F8D40387
:105EC000917003F804B00120BDE8F88FF4030020BE
:105ED0008E000020C43900200C4991F87E21B1F9D0
:105EE0001A03120711D4A0F5FE42FF3A03D0B1F80D
:105EF000BE21824201DA012104E0B1F8C0118142E1
:105F000003DD00210E200BF0FBB97047F4030020E5
:105F1000F0B585B00E4607461C4615461421684666
:105F2000FDF70AFAAA2201200021012F20D08DF8C6
:105F300000208DF80100200A8DF804008DF8026021
:105F40008DF803508DF8054001206A46135C401C13
:105F50001944C0B289B21128F8D3080A8DF811008B
:105F60008DF812101321104603F0DEFA05B0F0BDD3
:105F7000A5208DF8000001216846F5E710B504F072
:105F80008BF804F07DF804F025F8BDE8104004F02B
:105F900041B800002DE9F0410B4C0E46074615466E
:105FA000322120680DF0B0FB10B10220BDE8F08175
:105FB0002A463146384600F009F8054620680DF0BB
:105FC000DDFA2846F2E70000980000202DE9F041B4
:105FD000DFF8B0800C4605464FF4004716463946B8
:105FE0004046FFF71DFD00F0C1F9AE2000F018F9A2
:105FF000A8B1200A00F014F9C8B1E0B200F010F91D
:10600000E8B100F0B3F9AF2000F00AF900283946F2
:1060100040461CD0FFF756FD0024761E28E0394686
:106020004046FFF74FFD00F0B8F917A014E03946DD
:106030004046FFF747FD00F0B0F91DA00CE03946DF
:106040004046FFF73FFD00F0A8F923A004E0FFF76A
:1060500039FD00F0A2F92AA00CF090FE0120BDE865
:10606000F081012000F024F9641C05F8010BA4B2B2
:10607000B442F6DB002000F01BF9287000F08DF927
:106080000020ECE7001801400A20494943425350E0
:106090003A204932435F45455F4275665265616407
:1060A00020534C4156455F414444520A00000000D1
:1060B0000A204949434253503A204932435F4545FB
:1060C0005F427566526561642041444452206869AC
:1060D000676820380A0000000A20494943425350AB
:1060E0003A204932435F45455F42756652656164B7
:1060F0002041444452204C4F572020380A000000D1
:106100000A204949434253503A204932435F4545AA
:106110005F4275665265616420534C4156455F414C
:1061200044445220203132330A0000002DE9F0416E
:106130000B4C0E4607461546322120680DF0E4FA56
:1061400010B10220BDE8F0812A463146384600F001
:1061500009F8054620680DF011FA2846F2E700001C
:10616000980000202DE9F041074601F03F00C0F102
:10617000400415460E46A24200D8ECB222463846EC
:1061800004F050FAA8BB281B05042D0C05D03019CB
:106190001FFA80F82744AE091DE005200EF00EFD21
:1061A0002AE00A2440224146384604F03BFA38B13E
:1061B000641EE4B201200EF001FD002CF2D100E0DB
:1061C00014B90EA00CF0DAFD403D08F14000ADB26C
:1061D0001FFA80F84037761EB6B2E2D205200EF0E4
:1061E000EDFC4DB1EAB24146384604F01BFA0028F6
:1061F000D3D00120BDE8F0810020FBE70A20494907
:10620000434253503A204932435F45455F427566E9
:1062100057726974652020455252200A0000000020
:1062200070B5044601F08EFC002000F087F80025D0
:10623000E00900F08FF86006040E022006F0A4FECC
:10624000012000F07BF8022006F09EFE002000F006
:1062500075F8022006F098FE6D1CEDB2082DE7D30C
:10626000002401F05DFC012000F074F8022006F02B
:106270008BFE012000F062F8022006F085FE4FF44C
:1062800000650A4E07E0641CE4B2FA2C03D900F062
:1062900084F8002070BD29463046FFF743FB0028F4
:1062A000F1D100F04BF8012070BD0000000C01405E
:1062B0002DE9F0410646002401F032FCDFF8788039
:1062C00000254FF40067002000F038F8022006F0A7
:1062D0005BFE012000F032F86006040E39464046AD
:1062E000FFF720FB08B1641CE4B2022006F04CFE6C
:1062F0006D1CEDB2082DE6D34FF00000AEB100F0FA
:106300001DF801F01FFC002000F024F8022006F028
:106310003BFE012000F012F8022006F035FE0020BE
:1063200000F00CF82046BDE8F08100F007F801F01D
:1063300009FC0120E8E70000000C0140044A0128A4
:106340004FF48061104601D0FFF76ABBFFF7BABB7C
:10635000000C0140044A01284FF40061104601D0AE
:10636000FFF75EBBFFF7AEBB000C014010B501F0BC
:10637000E9FB0120FFF7EEFF0120FFF7DFFF02201E
:1063800006F002FE0020FFF7E5FF022006F0FCFD0C
:10639000BDE810400020FFF7D1BF10B501F0D2FBDF
:1063A0000020FFF7CBFF0020FFF7D4FF022006F00C
:1063B000EBFD0120FFF7C2FF0120FFF7CBFFBDE897
:1063C0001040022006F0E0BD02494CF6CC400860C7
:1063D000704700000030004002494AF6AA200860D9
:1063E000704700000030004010B504000FD0012CB1
:1063F0000DD0022C0BD0032C09D0042C07D0052C77
:1064000005D0062C03D0732102A005F021FD104811
:10641000446010BD4C69627261726965735C53546B
:106420004D3332463130785F537464506572697011
:10643000685F4472697665725C7372635C73746DD5
:106440003332663130785F697764672E630000000D
:106450000030004010B50446B0F5805F03D38021C2
:1064600002A005F0F5FC1048846010BD4C69627212
:1064700061726965735C53544D3332463130785FD5
:106480005374645065726970685F447269766572AE
:106490005C7372635C73746D3332663130785F693C
:1064A0007764672E630000000030004010B504469A
:1064B000A0F5AA40553804D01CB15F2102A005F018
:1064C000C7FC1048046010BD4C6962726172696556
:1064D000735C53544D3332463130785F537464509B
:1064E00065726970685F4472697665725C73726325
:1064F0005C73746D3332663130785F697764672E10
:106500006300000000300040FEE7704710B54FF414
:1065100040514FF0006000F09FF8BDE810404FF48C
:10652000A06000F063B8000070B50446C0780F2585
:1065300028B1012803D075211FA005F089FC6078DF
:10654000102803D376211CA005F082FCA078102827
:1065500003D3772118A005F07BFCE0780122F8B185
:1065600021480068617800F4E060C0F5E060000A4E
:10657000C0F10403C540A078994028400843217821
:10658000000101F1E02181F80004207800F01F01F2
:106590008A404009800000F1E020C0F8002170BD71
:1065A000207800F01F018A404009800000F1E020BF
:1065B000C0F8802170BD00004C696272617269652B
:1065C000735C53544D3332463130785F53746450AA
:1065D00065726970685F4472697665725C73726334
:1065E0005C6D6973632E63000CED00E010B504462A
:1065F000B0F5E06F0FD0B4F5C06F0CD0B4F5A06F5C
:1066000009D0B4F5806F06D0B4F5407F03D0632184
:1066100003A005F01DFC0E4804430E48046010BDA5
:106620004C69627261726965735C53544D333246D2
:106630003130785F5374645065726970685F44727A
:10664000697665725C7372635C6D6973632E630057
:106650000000FA050CED00E070B50D460446B0F1FF
:10666000005F06D0B4F1006F03D09F2107A005F0B2
:10667000EFFB1248854203D3A02104A005F0E8FBFC
:106680000F4805400F482543056070BD4C69627294
:1066900061726965735C53544D3332463130785FB3
:1066A0005374645065726970685F4472697665728C
:1066B0005C7372635C6D6973632E6300FFFF0F0090
:1066C00080FFFF1F08ED00E0BFF34F8F0448016813
:1066D000044A01F4E06111430160BFF34F8FFEE70C
:1066E0000CED00E00400FA05BFF34F8F0448016889
:1066F000044A01F4E06111430160BFF34F8FFEE7EC
:106700000CED00E00400FA050549086810F8082DB2
:1067100010F8043F1A4400F8042C08607047000089
:10672000640200200349086870E902231A4404C087
:1067300008607047640200200549086830F8082D99
:1067400030F8043F1A4420F8042C08607047000019
:10675000640200200549086810F8082D10F8043F6D
:106760001A4000F8042C0860704700006402002002
:106770000349086870E902231A4004C008607047A2
:10678000640200200549086830F8082D30F8043FFD
:106790001A4020F8042C08607047000064020020B2
:1067A0000348006810F8041DC943017070470000D9
:1067B000640200200348006850F8041DC9430160CA
:1067C00070470000640200200348006830F8041D90
:1067D000C9430180704700006402002070B57A4A06
:1067E0009CB07A4D10680CAB10F8011B10602A6841
:1067F0000020121F2A6008E00E1A03EB860652F8EA
:10680000044946F8044C401C2A608842F4D31468BA
:1068100011297DD2DFE801F0090B0E12171C232C81
:1068200036404D5C6C7D90A5BB00002000E00C98CC
:10683000A047C3E0DDE90C01A047BFE00CAB93E843
:106840000700A047BAE00CAE96E80F00A047B5E0FD
:1068500010980CAE009096E80F00A047AEE0DDE97E
:1068600010010CAECDE9000196E80F00A047A5E0AD
:1068700010AB0CAE93E807008DE8070096E80F0018
:10688000A0479BE010AE96E80F008DE80F000CAE1D
:1068900096E80F00A04791E011AE96E80F0001AE18
:1068A00086E80F0010980CAE009096E80F00A04705
:1068B00084E012AE96E80F0002AE86E80F00DDE934
:1068C00010010CAECDE9000196E80F00A04775E07D
:1068D00013AE96E80F0003AE86E80F0010AB0CAEC7
:1068E00093E807008DE8070096E80F00A04765E0F1
:1068F00014AE96E80F0004AE86E80F0010AE96E8DE
:106900000F008DE80F000CAE96E80F00A04755E091
:1069100053E015AE96E80F0005AE86E80F0011AE05
:1069200096E80F0001AE86E80F0010980CAE0090BC
:1069300096E80F00A04741E016AE96E80F0006AEBD
:1069400086E80F0012AE96E80F0002AE86E80F0050
:10695000DDE910010CAECDE9000196E80F00A0477B
:106960002CE017AE96E80F0007AE86E80F0013AED6
:1069700096E80F0003AE86E80F0010AB0CAE93E86C
:1069800007008DE8070096E80F00A04716E018AE54
:1069900096E80F0008AE86E80F0014AE96E80F00E8
:1069A00004AE86E80F0010AE96E80F008DE80F00E9
:1069B0000CAE96E80F00A04700E00020296801C156
:1069C00029601CB070BD0000680200206402002035
:1069D0000549086810F8082D10F8043FB2FBF3F2DF
:1069E00000F8042C0860704764020020044908681D
:1069F00070E9022392FBF3F204C0086070470000C4
:106A0000640200200549086830F9082D30F9043F78
:106A100092FBF3F220F8042C086070476402002017
:106A20000549064A08680378106800F8043B1060BE
:106A30000868401C0860704768020020640200205B
:106A400006490868C278036862F31F63044A106845
:106A500008C010600868001D0860704768020020C8
:106A60006402002007490868C278006862F31F606A
:106A7000054A0378106800F8043B10600868001DA0
:106A80000860704768020020640200200348006824
:106A900050F8041D0978017070470000640200205E
:106AA00007490868C278006862F31F60054A0368F6
:106AB000106808C010600868001D0860704700007A
:106AC00068020020640200200348006850F8041D9A
:106AD00009680160704700006402002007490868E7
:106AE000C278006862F31F60054A0388106820F8C6
:106AF000043B10600868001D0860704768020020B1
:106B0000640200200348006850F8041D09880180D1
:106B100070470000640200200549064A086803889F
:106B2000106820F8043B10600868801C08607047FB
:106B30006802002064020020074B10B5186810F8A6
:106B4000081D10F8042FB1FBF2F402FB141100F839
:106B5000041C186010BD000064020020054B10B535
:106B6000186870E9021291FBF2F402FB141102C0E2
:106B7000186010BD64020020074B10B5186830F98A
:106B8000081D30F9042F91FBF2F402FB141120F8D8
:106B9000041C186010BD000064020020054908684C
:106BA00010F8082D10F8043F5A4300F8042C086030
:106BB00070470000640200200349086870E902235E
:106BC0005A4304C008607047640200200549086801
:106BD00030F8082D30F8043F5A4320F8042C0860A0
:106BE00070470000640200207047000005490868F3
:106BF00010F8082D10F8043F1A4300F8042C086020
:106C000070470000640200200349086870E902230D
:106C10001A4304C0086070476402002005490868F0
:106C200030F8082D30F8043F1A4320F8042C08608F
:106C3000704700006402002002480168091F0160DB
:106C400070470000640200200549086810F8082D0C
:106C500010F8043F9A4000F8042C086070470000C8
:106C6000640200200549086850F8082D10F8043F18
:106C70009A4040F8042C086070470000640200202D
:106C80000549086830F8082D10F8043F9A4020F8AC
:106C9000042C086070470000640200200549086861
:106CA00010F8082D10F8043FDA4000F8042C0860B2
:106CB00070470000640200200549086850F8082D5C
:106CC00010F8043F1A4140F8042C08607047000097
:106CD000640200200549086830F9082D10F8043FC7
:106CE0001A4120F8042C086070470000640200205C
:106CF0000549086810F8042C50F8080C0270086860
:106D0000001F086070470000640200200449086802
:106D1000083805C802600868001F08607047000056
:106D2000640200200549086830F8042C50F8080C6B
:106D300002800868001F086070470000640200209D
:106D40000549086810F8082D10F8043FD21A00F819
:106D5000042C0860704700006402002003490868A2
:106D600070E90223D21A04C0086070476402002050
:106D70000549086830F8082D30F8043FD21A20F889
:106D8000042C086070470000640200200549086870
:106D900010F8082D10F8043F5A4000F8042C086041
:106DA00070470000640200200349086870E902236C
:106DB0005A4004C008607047640200200549086812
:106DC00030F8082D30F8043F5A4020F8042C0860B1
:106DD000704700006402002010B5040005D0012CAB
:106DE00003D07F2102A005F033F81048046210BDE3
:106DF0004C69627261726965735C53544D333246FB
:106E00003130785F5374645065726970685F4472A2
:106E1000697665725C7372635C73746D333266316C
:106E200030785F7077722E630000000000000E4221
:106E300070B5044640F23A25FCF776FCAC4202D22B
:106E4000114A124B18E040F2E242944202D2104A38
:106E5000104B11E040F6BE22944202D20E4A0F4B74
:106E60000AE041F2FE02944202D20D4A0D4B03E0C9
:106E700041F24A550C4A0D4BFCF74DFBFCF7ADFCBB
:106E8000FCF75FFC80B270BDEC51B81E85EBD93FBA
:106E90009A9999999999D93F46175D74D145D73FE9
:106EA0007C1A61B9A711D63FC877E1207A7CD73F19
:106EB0002DE9F047FEF7F8FE1C4CDFF8748005461C
:106EC00010F0060F4FF001064FF0000902D084F8D1
:106ED000D66018E0174FB7F88A010028F7D10C20C8
:106EE0000FF084FB18B997F87E014007EFD484F8BF
:106EF000D69098F80100012805D0BDE8F0470021A0
:106F00000A200AF0FDB901210A200AF0F9F94746E2
:106F100088F80160A80707D14D4684F8D690002173
:106F20000A200AF0EDF97D70BDE8F087DC0700204B
:106F300070000020F403002070B5044640F2575062
:106F40000D4634EA000000D124B940F22B4109A0DB
:106F500004F07EFF164E4DB1012D04D040F22C41BD
:106F600004A004F075FF7069204301E07069A0433C
:106F7000706170BD4C69627261726965735C535473
:106F80004D3332463130785F5374645065726970A6
:106F9000685F4472697665725C7372635C73746D6A
:106FA0003332663130785F7263632E630000000015
:106FB0000010024070B504460C480D46044200D152
:106FC00024B940F269410AA004F042FF174E4DB1C6
:106FD000012D04D040F26A4105A004F039FFF069A8
:106FE000204301E0F069A043F06170BD00360181EB
:106FF0004C69627261726965735C53544D333246F9
:107000003130785F5374645065726970685F4472A0
:10701000697665725C7372635C73746D333266316A
:1070200030785F7263632E6300000000001002403E
:1070300070B504460C480D46044200D124B940F214
:10704000C3410AA004F004FF174E4DB1012D04D036
:1070500040F2C44105A004F0FBFE3069204301E08A
:107060003069A043306170BD003601814C696272A5
:1070700061726965735C53544D3332463130785FC9
:107080005374645065726970685F447269766572A2
:107090005C7372635C73746D3332663130785F7227
:1070A00063632E63000000000010024070B50446C8
:1070B0000C480D46044200D124B940F24A410AA0CE
:1070C00004F0C6FE174E4DB1012D04D040F24B41E5
:1070D00005A004F0BDFEB069204301E0B069A04303
:1070E000B06170BD0200C0FF4C6962726172696577
:1070F000735C53544D3332463130785F537464506F
:1071000065726970685F4472697665725C737263F8
:107110005C73746D3332663130785F7263632E63F3
:10712000000000000010024070B504460C480D46F7
:10713000044200D124B940F2A4410AA004F088FE20
:10714000174E4DB1012D04D040F2A54105A004F029
:107150007FFEF068204301E0F068A043F06070BD5E
:107160000200C0FF4C69627261726965735C5354BE
:107170004D3332463130785F5374645065726970B4
:10718000685F4472697665725C7372635C73746D78
:107190003332663130785F7263632E630000000023
:1071A0000010024010B5040006D0012C04D04FF4AA
:1071B0009B6103A004F04CFE1048046010BD000069
:1071C0004C69627261726965735C53544D33324627
:1071D0003130785F5374645065726970685F4472CF
:1071E000697665725C7372635C73746D3332663199
:1071F00030785F7263632E630000000040044242F7
:107200000C48016841F00101016041680A4A1140DF
:1072100041600168094A11400160016821F4802140
:107220000160416821F4FE0141604FF41F0181605B
:1072300070470000001002400000FFF8FFFFF6FE5C
:1072400030B5204A5168204B11F00C0103D00429BD
:1072500001D0082901D0036012E05168536801F49D
:1072600070114FF0020413F4803F04EB914102D0FF
:1072700053689B0301D5154B00E0134B5943016044
:1072800051680F2303EA1111114B5C5C0168E14066
:1072900041605468072505EA14241C5D21FA04F4B2
:1072A0008460546805EAD4241B5DD940C1605268EB
:1072B000032303EA9232064B1B1F9A5CB1FBF2F1E7
:1072C000016130BD0010024000127A0000093D004B
:1072D000C400002070B500250446212818D0312CA8
:1072E00016D0392C14D0412C12D0612C10D07A2C0D
:1072F0000ED07B2C0CD07C2C0AD07D2C08D07E2C80
:1073000006D07F2C04D040F234510BA004F0A0FD35
:107310006009184901280BD002280BD0486A04F0F4
:107320001F0101228A40024200D00125284670BD7B
:107330000868F4E7086AF2E74C696272617269658D
:10734000735C53544D3332463130785F537464501C
:1073500065726970685F4472697665725C737263A6
:107360005C73746D3332663130785F7263632E63A1
:1073700000000000001002400248406800F00C00CD
:10738000704700000010024010B5040014D0802C9B
:1073900012D0902C10D0A02C0ED0B02C0CD0C02C21
:1073A0000AD0D02C08D0E02C06D0F02C04D04FF41A
:1073B000197105A004F04CFD1249486820F0F00056
:1073C0002043486010BD00004C69627261726965BB
:1073D000735C53544D3332463130785F537464508C
:1073E00065726970685F4472697665725C73726316
:1073F0005C73746D3332663130785F7263632E6311
:10740000000000000010024010B5040006D0012C5E
:1074100004D040F2651103A004F01AFD1048046086
:1074200010BD00004C69627261726965735C5354EF
:107430004D3332463130785F5374645065726970F1
:10744000685F4472697665725C7372635C73746DB5
:107450003332663130785F7263632E630000000060
:107460000000424210B5040008D0012C06D0042CC4
:1074700004D04FF4507109A004F0EAFC1648002132
:1074800080F8201080F82010012C05D0042C02D1A7
:10749000052180F8201010BD0121FAE74C696272C5
:1074A00061726965735C53544D3332463130785F95
:1074B0005374645065726970685F4472697665726E
:1074C0005C7372635C73746D3332663130785F72F3
:1074D00063632E63000000000010024010B504003A
:1074E00010D0B4F5806F0DD0B4F5A06F0AD0B4F50C
:1074F000C06F07D0B4F5E06F04D040F27E2105A044
:1075000004F0A6FC1249486820F4E060204348607B
:1075100010BD00004C69627261726965735C5354FE
:107520004D3332463130785F537464506572697000
:10753000685F4472697665725C7372635C73746DC4
:107540003332663130785F7263632E63000000006F
:107550000010024010B5040010D0B4F5806F0DD0BB
:10756000B4F5A06F0AD0B4F5C06F07D0B4F5E06FE2
:1075700004D04FF4267105A004F06AFC1249486853
:1075800020F4605040EAC400486010BD4C6962724B
:1075900061726965735C53544D3332463130785FA4
:1075A0005374645065726970685F4472697665727D
:1075B0005C7372635C73746D3332663130785F7202
:1075C00063632E63000000000010024010B5040049
:1075D00006D0012C04D04FF4CA7103A004F038FC8B
:1075E0001048046610BD00004C69627261726965E2
:1075F000735C53544D3332463130785F537464506A
:1076000065726970685F4472697665725C737263F3
:107610005C73746D3332663130785F7263632E63EE
:10762000000000000000424270B50C4605000AD080
:10763000B5F5803F07D0B5F5403F04D040F27F114B
