:020000040800F2
:10000000400D00206901000813090008630600087C
:1000100011090008D5010008D50F000800000000F4
:10002000000000000000000000000000390B000884
:10003000D701000800000000150900086D0E000837
:100040008301000883010008830100088301000880
:100050008301000883010008830100088301000870
:100060008301000883010008830100088301000860
:100070008301000883010008830100088301000850
:1000800083010008830100088301000800000000CC
:1000900000000000000000000000000083010008D4
:1000A0008301000883010008830100088301000820
:1000B0008301000883010008830100088301000810
:1000C0008301000883010008830100088301000800
:1000D00083010008830100088301000883010008F0
:1000E00083010008830100088301000883010008E0
:1000F00083010008830100080000000000000000E8
:10010000830100080000000083010008830100084B
:1001100083010008830100088301000883010008AF
:10012000830100088301000883010008830100089F
:1001300083010008DFF80CD000F03AF800480047CF
:10014000BD110008400D0020EFF30980704780F3D7
:1001500009887047EFF30880704780F3088870477C
:1001600040BA7047C0BA7047064880470648004703
:10017000FEE7FEE7FEE7FEE7FEE7FEE7FEE7FEE757
:10018000FEE7FEE7710E00083501000840EA0103B2
:100190009B0703D009E008C9121F08C0042AFAD23D
:1001A00003E011F8013B00F8013B521EF9D2704701
:1001B000064C074D06E0E06840F0010394E80700B4
:1001C00098471034AC42F6D3FFF7B8FF6C13000821
:1001D0008C130008FEE770472DE9F0474FF0010946
:1001E0004FF00208042700F057F9204D06466868D2
:1001F000B04338D000F04AF904466868304368607C
:1002000000F0CAF806466868411C03D0C04300F0FD
:100210006DF80646E04340070ED0E00700D1814666
:10022000A00701D44FF00008600700D400273A4629
:100230004146484600F074F9042E04D00CA0BDE8F5
:10024000F04700F065BD15A000F062FD1B4800F00E
:100250005FFD1B4801681B4A01F4E0611143016026
:10026000BFF3408FFEE718A0E9E700000000002080
:100270004572726F723A20466C61736820777269BA
:10028000746520756E70726F74656374696F6E202B
:100290006661696C65642E2E2E0D0A0057726974B2
:1002A000652050726F74656374696F6E2064697342
:1002B00061626C65642E2E2E0D0A00003412000857
:1002C0000CED00E00400FA05466C617368206D6572
:1002D0006D6F7279206E6F7420777269746520700B
:1002E000726F7465637465640D0A00002DE9F04354
:1002F000C043C7B2C0F30726C0F30745040E4FF44E
:100300000059484600F03CF904283BD1DFF87C80D6
:100310001D4AC8F808201E4AC8F80820D8F810203E
:1003200042F01002C8F81020FF2F06D019480780AD
:10033000484600F025F904281BD1FF2E07D01548A8
:10034000801C0680484600F01BF9042811D1FF2DBF
:1003500007D01048001D0580484600F011F9042818
:1003600007D1FF2C07D00B48801D0480484600F0C1
:1003700007F9052806D0D8F8102041F6EF731A4087
:10038000C8F81020BDE8F083230167450020024033
:10039000AB89EFCD08F8FF1F70B5A52500F06CF80C
:1003A00000B100254FF43026304600F0E9F804286B
:1003B00027D1154C1348A0601448A060206940F074
:1003C00020002061206940F040002061304600F0AC
:1003D000D7F841F6EF7604280ED1206941F6DF7197
:1003E00008402061206940F0100020610848058025
:1003F0004FF4005000F0C4F8052802D021693140C4
:10040000216170BD2301674500200240AB89EFCD1B
:1004100000F8FF1F70B505464FF43026304600F057
:10042000AFF8042811D1094C206940F00200206186
:100430006561206940F040002061304600F0A0F87E
:10044000216941F6FD721140216170BD002002401A
:1004500008490420CA68D20701D001207047CA6841
:10046000520701D502207047C968C906FBD5032091
:10047000704700000020024003490020C969890735
:1004800000D5012070470000002002400148C069EB
:1004900080087047002002400148006A7047000051
:1004A0000020024001B50098410503D0012101EB75
:1004B000D02008BDC00A08BD2DE9F841064600203D
:1004C0004FF4005700900D46384600F059F80428C4
:1004D00016D10C4C206940F0010020613580B846EF
:1004E000384600F04DF8BF1E042806D1B61C280C73
:1004F00000963080404600F043F821693940216180
:10050000BDE8F881002002400348024941600349E8
:10051000416070472301674500200240AB89EFCD61
:100520002DE9F041134C0746114816460D46A060D0
:100530001148A0604FF40058404600F021F804280C
:1005400013D1206940F01000206135430B493D4331
:1005500045F0F8000880404600F012F8052804D065
:10056000216941F6EF7211402161BDE8F081000080
:100570002301674500200240AB89EFCD02F8FF1F41
:1005800000B50346FFF764FF03E000BFFFF760FF1D
:100590005B1E012803D0002B00D1052000BD002BDD
:1005A000F4D1FAE7F0B5CA78002502F00F03D206BD
:1005B00001D58A7813430C784FF00F0E0122ECB16D
:1005C000D0F800400F8802FA05F63740B74211D143
:1005D0004FEA850C0EFA0CF724EA070703FA0CF42D
:1005E0003C43CF78282F02D0482F02D002E046614A
:1005F00000E006616D1C082DE4D304600C88FF2C1C
:100600001ED944685FF0000606F1080702FA07F5F4
:100610000F882F40AF420FD14FEA860C0EFA0CF72D
:10062000BC4303FA0CF73C43CF78282F00D1456137
:10063000CF78482F00D10561761C082EE4D34460A2
:10064000F0BD416170470161704708B500208DF829
:100650000000684600F030FB0028FAD09DF800004A
:1006600008BDFEE7F0B500220E4B164614464FF0CB
:100670000A0C00BFB1FBF3F503FB151105F13007C0
:100680008754521CB3FBFCF3851815F8015C302D20
:1006900000D126B1761C641C0A2CEBD3F0BD0022DD
:1006A000F9E7000000CA9A3B2748284C012500685A
:1006B000A0F10060000B20603E2804D205FA00F192
:1006C000491EC84301E04FF000406060FFF7E4FEC0
:1006D0006168814301D0A56001E00020A0601CA0FA
:1006E00000F016FB2AA000F013FB39A000F010FB6D
:1006F000A06810B146A000F00BFB55A000F008FB6D
:10070000FFF7A3FF312804D0322805D033280DD0BD
:100710000FE000F013FAE2E75D4841682161E16013
:100720000068FFF71AFDE0688047D8E7A068012855
:1007300005D0A06830B157A000F0EAFACFE7FFF784
:100740004BFDCCE763A0F7E7180000200000002075
:100750000D0A3D3D3D3D3D3D3D3D3D3D3D3D3D3D2C
:100760003D3D3D3D204D61696E204D656E75203DDE
:100770003D3D3D3D3D3D3D3D3D3D3D3D3D3D3D3DA9
:100780003D3D3D3D3D3D3D3D3D3D3D0D0A0A0000A9
:100790002020446F776E6C6F616420496D616765DE
:1007A00020546F207468652053544D3332463130E5
:1007B0007820496E7465726E616C20466C61736856
:1007C000202D2D2D2D2D2D2D20310D0A0A0000005C
:1007D00020204578656375746520546865204E65F2
:1007E000772050726F6772616D202D2D2D2D2D2D6C
:1007F0002D2D2D2D2D2D2D2D2D2D2D2D2D2D2D2D29
:100800002D2D2D2D2D2D2D2D20320D0A0A0000000D
:10081000202044697361626C65207468652077727A
:100820006974652070726F74656374696F6E202DD2
:100830002D2D2D2D2D2D2D2D2D2D2D2D2D2D2D2DE8
:100840002D2D2D2D2D2D2D2D20330D0A0A000000CC
:100850003D3D3D3D3D3D3D3D3D3D3D3D3D3D3D3DC8
:100860003D3D3D3D3D3D3D3D3D3D3D3D3D3D3D3DB8
:100870003D3D3D3D3D3D3D3D3D3D3D3D3D3D3D3DA8
:100880003D3D3D3D3D3D3D3D3D3D0D0A0A000000E5
:1008900000300008496E76616C6964204E756D62A7
:1008A00065722021203D3D3E20546865206E756DA7
:1008B0006265722073686F756C642062652065697B
:1008C0007468657220312C20322C206F7220330D19
:1008D00000000000496E76616C6964204E756D629F
:1008E00065722021203D3D3E20546865206E756D67
:1008F0006265722073686F756C642062652065693B
:10090000746865722031206F7220320D0000000083
:10091000FEE7704770470000044A0029D16901D002
:10092000014300E08143D1617047000000100240A4
:10093000044A0029916901D0014300E0814391619B
:10094000704700000010024030B521494A6812F09B
:100950000C03204A03D0042B01D0082B01D00260E5
:1009600015E04B684C6803F470134FF0020514F463
:10097000803F05EB934307D0CC6A04F00F04641C5E
:10098000B2FBF4F25A43EAE7134A534303604A685E
:100990000F23124C03EA1212A35C0268DA40426091
:1009A0004B68072505EA1323E35C22FA03F383600F
:1009B0004B6805EAD323E35CDA40C260496803234D
:1009C00003EA9131231F595CB2FBF1F1016130BDA3
:1009D0000010024000127A0000093D002C000020A7
:1009E00070B50C46054604E0284600F065F901287C
:1009F00004D0641EF8D24FF0FF3070BD002070BDEF
:100A00002DE9F84F884600210646C8F800109246A6
:100A100011466846FFF7E4FF4FF0FF39B0BB9DF881
:100A20000000182814D006DC012809D0022809D0BB
:100A300004282BD12EE0412816D0612826D113E0BE
:100A4000802401E04FF4806401253070671D15E0BB
:100A500051466846FFF7C4FFC0B99DF8000018284A
:100A600014D1C8F8009015E00120BDE8F88F701986
:100A70005146FFF7B5FF48B96D1CADB2BD42F6D384
:100A8000B178707881F0FF01884201D04846ECE7E8
:100A9000C8F800400020E8E730B585B00121042007
:100AA000FFF746FF01214804FFF736FF03208DF8CA
:100AB000020004248DF8034008201D4DADF800000D
:100AC00069462846FFF76EFD18208DF80300ADF843
:100AD000004069462846FFF765FD10208DF80300A9
:100AE0000220ADF8000069462846FFF75BFD4FF491
:100AF000E13001900020ADF80800ADF80C00ADF831
:100B00000A00ADF810000C200A4CADF80E0001A947
:100B1000204600F001FA012240F22551204600F063
:100B2000E2F90121204600F0CDF905B030BD00000A
:100B30000008014000440040704700003EB518A284
:100B400007CA8DE8070019A000F0E2F8264800F077
:100B500043FA041E14DD254800F0DAF8244800F0BA
:100B6000D7F821466846FFF77DFD22A000F0D0F8B7
:100B7000684600F0CDF822A000F0CAF823A008E0F3
:100B8000601C05D0A01C07D0E41C07D025A000E005
:100B90002CA000F0BDF83EBD3AA0FAE740A0F8E76F
:100BA0002020202020202020202000005761697470
:100BB000696E6720666F72207468652066696C656F
:100BC00020746F2062652073656E74202E2E2E2097
:100BD0002870726573732027612720746F2061620B
:100BE0006F7274290A0D00003C000020801200087A
:100BF0003C0400200A0D2053697A653A2000000069
:100C00002042797465730D0A000000002D2D2D2DF2
:100C10002D2D2D2D2D2D2D2D2D2D2D2D2D2D2D0A27
:100C2000000000000A0D4661696C656420746F2045
:100C300072656365697665207468652066696C65B0
:100C4000210A0D000A0A0D54686520696D61676507
:100C50002073697A65206973206869676865722006
:100C60007468616E2074686520616C6C6F77656470
:100C7000207370616365206D656D6F7279210A0D57
:100C8000000000000A0A0D566572696669636174A6
:100C9000696F6E206661696C6564210A0D00000051
:100CA0000D0A0A41626F727465642062792075735F
:100CB00065722E0A0D00000010B50446202105487B
:100CC00000F00AF9002804D00248001D00882070B6
:100CD000012010BD0044004070B50B4D04460221B8
:100CE0002846FFF7B0FC2146084C204600F06EF97C
:100CF0004021204600F0F0F80028F9D02846BDE851
:100D000070400221FFF79DBC0008014000440040F4
:100D100010B5044603E000BFFFF7DEFF641C207837
:100D20000028F9D110BD00000CB500211F48019129
:100D30000091026842F4803202604FF4A0630268BE
:100D400002F400320092019A521C0192009A12B9E8
:100D5000019A9A42F3D10268920324D501210091AD
:100D6000416841604168416041684160416821F4E7
:100D70007C114160416841F498114160016841F083
:100D80008071016001688901FCD5416821F003018F
:100D90004160416841F0020141604168C1F3810155
:100DA0000229FAD10CBD00910CBD000000100240D8
:100DB00070B5002204781346302C04D14478782C86
:100DC0000AD0582C08D06FF02F05845C74B36B2CBC
:100DD0002ED04B2C2CD030E082780AB30224025D56
:100DE0005AB1A2F14105052D0AD9A2F16106052EDD
:100DF00006D91135092D07D913E001200B6011E048
:100E0000A2F13006092E01D8303A04E0052D01D8B0
:100E1000373A00E0573A641C02EB03130B2CDED385
:100E200002E000200B2C00D3002070BD0B6002E01C
:100E30001AB1980207E0012015E06D2C01D04D2C6D
:100E400003D112B118050860F5E7A4F13006092EA8
:100E500008D803EB830305EB4303521C23440B2AFE
:100E6000B3D3E1E700200B2ADED270BD704700004B
:100E7000104810B5016841F00101016041680E4A57
:100E80001140416001680D4A11400160016821F480
:100E900080210160416821F4FE0141604FF41F018F
:100EA00081600021C162FFF73FFF05494FF00060FC
:100EB000086010BD001002400000FFF8FFFFF6FEC2
:100EC00008ED00E00029818902D041F4005101E0E1
:100ED00021F40051818170470246002012880A42A5
:100EE00000D00120704710B5C1F3421301F01F0478
:100EF0000121A140012B07D0022B07D01430002A7A
:100F0000026805D00A4304E00C30F8E71030F6E739
:100F10008A43026010BD000030B50446008A85B0E7
:100F20000D464CF6FF710840E98801432182A189F2
:100F30004EF6F3100140A8882A8910436A890A43B3
:100F40001043A081A08A4FF6FF410840A9890143C0
:100F5000A1826846FFF7F8FC1B48844201D1039840
:100F600000E00298A1890904002900EBC00101EB0F
:100F70000010296802DA4FEA410101E04FEA8101DD
:100F8000B0FBF1F06422B0FBF2F14FEA01114FEA3D
:100F900011136FF018056B4300EB8300A3891D0448
:100FA0004FF0320306D503EBC000B0FBF2F000F0C7
:100FB000070005E003EB0010B0FBF2F000F00F00BB
:100FC0000843208105B030BD00380140C1F308015D
:100FD00081807047FEE700002DE9F04F8046002039
:100FE000ADF2244D6B4CDFF8A8B1CDF80804C4F87D
:100FF00004B0054607464FF480194FF0FF3ACDF88C
:10100000100400264A460DF20C416846FFF7F8FC32
:1010100088B1012868D0002F00DD6D1C052D79DD19
:101020001820FFF759FE1820FFF756FE00200DF29A
:10103000244DBDE8F08FDDF80C240025524507D083
:1010400042B19DF80100F1B288420BD015209BE01F
:101050000620E9E70620FFF73FFEDDF81004002830
:10106000CFD05BE046B10DF103014046FFF78EF8AB
:101070000027C4F810806CE09DF8030098B30021AD
:101080000DF10300444B02E05A54401C491C027805
:101090000AB1FF29F8DD00275F543946401C0DF2E4
:1010A000144302E05A54401C491C0278202A01D003
:1010B0001029F7DB5F540DF581611846FFF778FEC4
:1010C000DDF80804B0F5002F07DB1820FFF704FE59
:1010D0001820FFF701FE5046A9E7FFF7E3F9C4E93E
:1010E000027038460BE016E044E06288616802FB5B
:1010F0000010FFF78FF92070A068401CA060E16825
:10110000884202D221780429EFD00620FFF7E4FDBF
:1011100043202AE037E00620FFF7DEFDDDF8080473
:1011200085E721690968FFF7C7F9606821690268E6
:101130000B689A4208D01820FFF7CEFD1820FFF761
:10114000CBFD6FF0010072E7091D001D21613F1DFD
:101150006060DDF80C04874206DADDF80824606878
:1011600002EB0B018842DCD30620FFF7B5FD761CAD
:10117000012747E71820FFF7AFFD1820FFF7ACFD68
:101180006FF0020053E74320FFF7A6FD3AE70000A7
:1011900000300008140000203C04002002E008C8D1
:1011A000121F08C1002AFAD170477047002001E0E1
:1011B00001C1121F002AFBD170470000FFF7A4F9FC
:1011C00015480068A0F52541A53911D0FFF764FC4A
:1011D0001248FFF79DFD11484C30FFF799FD0F486D
:1011E000FFF796FD0EA0FFF793FDFFF75DFA11E004
:1011F0000948803001680C4A1140B1F1005F09D103
:1012000041680A4A0A4C116021600068FEF7A5FF98
:1012100020688047FEE70000802F0008D4120008F5
:101220000D0A0D0A000000000000FE2F1000002033
:101230000C0000202E2E2E616E64206120537973E5
:1012400074656D2052657365742077696C6C2062DB
:10125000652067656E65726174656420746F2072C5
:10126000652D6C6F616420746865206E6577206FF2
:101270007074696F6E2062797465730D0A000000E6
:101280000A0A0D2050726F6772616D6D696E67207A
:10129000436F6D706C65746564205375636365732B
:1012A0007366756C6C79210A0D2D2D2D2D2D2D2D2C
:1012B0002D2D2D2D2D2D2D2D2D2D2D2D2D2D2D2D5E
:1012C0002D2D2D2D2D2D2D2D2D0D0A204E616D65D1
:1012D0003A2000000D0A3D3D3D3D3D3D3D3D3D3D3B
:1012E0003D3D3D3D3D3D3D3D3D3D3D3D3D3D3D3D2E
:1012F0003D3D3D3D3D3D3D3D3D3D3D3D3D3D3D3D1E
:101300003D3D3D3D3D3D3D3D3D3D3D3D3D3D3D3D0D
:101310003D3D3D3D3D3D3D3D3D3D3D3D00000000F1
:101320000D0A3D2020202020202020202020205594
:10133000736572206170706C69636174696F6E208F
:101340006E6F742065787369742C20656E74657295
:10135000696E6720626F6F74206D6F646520202056
:10136000202009202020203D000000008C130008D0
:10137000000000203C0000009C110008C813000879
:101380003C000020040D0000AC110008000000002B
:10139000000000000000000000000000000000004D
:1013A00004000008003000080000000000000000F9
:1013B000000000000204060800000000010203040F
:1013C0000102030406070809FFFFFFFFFFFFFFFFFD
:1013D000FFFFFFFFFFFFFFFFFFFFFFFFFFFFFFFF1D
:1013E000FFFFFFFFFFFFFFFFFFFFFFFFFFFFFFFF0D
:1013F000FFFFFFFFFFFFFFFFFFFFFFFFFFFFFFFFFD
:10140000FFFFFFFFFFFFFFFFFFFFFFFFFFFFFFFFEC
:102F8000A5A50000FFFFFFFFFFFFFFFFFFFFFFFF03
:102F9000FFFFFFFFFFFFFFFFFFFFFFFFFFFFFFFF41
:102FA000FFFFFFFFFFFFFFFFFFFFFFFFFFFFFFFF31
:102FB000FFFFFFFFFFFFFFFFFFFFFFFFFFFFFFFF21
:102FC000FFFFFFFFFFFFFFFFFFFFFFFFFFFFFFFF11
:102FD000FFFFFFFFFFFFFFFFFFFFFFFFFFFFFFFF01
:102FE000FFFFFFFFFFFFFFFFFFFFFFFFFFFFFFFFF1
:102FF000FFFFFFFFFFFFFFFFFFFFFFFFFFFFFFFFE1
:103000005083002045310008EF6300080F320008AC
:10301000ED6300089D440008759C00080000000056
:10302000000000000000000000000000AD7C00086F
:103030006D5400080000000097310008AF7C0008C4
:103040005F3100085F3100085F3100085F31000820
:103050005F3100085F3100085F3100085F31000810
:103060005F3100085F3100085F3100085F31000800
:103070005F3100085F3100085F3100085F310008F0
:103080005F3100085F3100085F3100080D9C0008C7
:10309000399C00085F3100085F3100085F3100088B
:1030A0005F3100085F3100085F3100085F310008C0
:1030B000117D0008457D00085F3100085F31000880
:1030C0005F3100085F3100085F3100085F310008A0
:1030D0005F3100083D9200089D9200085F310008B2
:1030E0005F3100085F3100085F3100085F31000880
:1030F0005F3100085F3100085F3100085F31000870
:103100005F3100085F3100087D7D00085F310008F5
:10311000ED9000084D9100085F3100085F31000814
:103120005F3100085F3100085F3100085F3100083F
:10313000DFF80CD000F0A8FC004800475547010814
:10314000508300200648804706480047FEE7FEE718
:10315000FEE7FEE7FEE7FEE7FEE7FEE7FEE7FEE747
:10316000C17C000831310008EFF3108072B670475F
:1031700080F310887047314A1368012B04D04FF058
:10318000010313602E4A10602E4A11602E484FF042
:10319000805101607047EFF3108272B627480168D2
:1031A00091B14FF0000101602548016829B1EFF3AA
:1031B000098121E9F00F0068016022490968096866
:1031C000B1E8F00F81F3098882F310884EF0040E05
:1031D00070471C4908601A494FF000000860174901
:1031E0004FF00100086019484FF47F01D0F800202B
:1031F00041EA0201016014484FF080510160144817
:103200000068006880F3088862B6704700BF1EF04F
:10321000040F14BFEFF30880EFF3098020E9F00FEB
:1032200040F804ED80F3088880F3098800B514F0B5
:1032300087FA5DF804EB4EF0040E7047E8020020B8
:10324000E0020020E402002004ED00E020ED00E0B8
:1032500008ED00E038B5D0E90221491E01EB41013B
:1032600002EBC1014268C1EB011102EB810102686E
:10327000C1EB011102EB8103D0E9042101EB410113
:1032800002EB8101A1F55271302491FBF4F2154D4E
:1032900004FB1211554303EBC51300931A2902DBFB
:1032A000114A1A4400920C2391FBF3F20F4C009D3B
:1032B000544303FB121105EBC4140D4B009408E0BA
:1032C000491E40F2A3245A5C6243009C04EBC212E4
:1032D00000920029F4DC0146684600F09FFA00984D
:1032E00038BD00003F0C0F008051010067C2030091
:1032F000DC56020810B500F08BFABDE8104000F073
:10330000CDBA40EA01039B0703D009E008C9121FA8
:1033100008C0042AFAD203E011F8013B00F8013B8F
:10332000521EF9D27047D2B201E000F8012B491EBB
:10333000FBD270470022F6E710B513460A46044652
:103340001946FFF7F0FF204610BD10B5044604E013
:103350000B7800F8013B03B1491C521EF8D22046FD
:1033600010BD421C10F8011B0029FBD1801A7047C8
:1033700010B5002200E0521C835C8C5CA34201D19A
:10338000002BF8D1D8B2E1B2401A10BD30B50546D5
:103390000020034600E05B1C934205D2EC5CC85C55
:1033A000201A01D1002CF6D130BD70B5064606F0CA
:1033B000EFFC046805460A220021304600F0CCFAF2
:1033C0002C6070BD2DE9FE4F804681EA0300C00FDE
:1033D0000C46009021F0004123F00045B8EB0200BC
:1033E000A94105D24046214690461C460B4602465E
:1033F00023F00040104304D14046214603B0BDE80D
:10340000F08F270DC7F30A00C3F30A510290401A48
:103410000190402866DAC3F3130040F4801B009843
:10342000924620B10023D2EB030A63EB0B0B019809
:103430005946C0F14002504600F0B9F906460D4623
:1034400050465946019A00F0D1F910EB080061414D
:10345000002487EA115284EAE7731A433BD0009AAA
:103460003AB3019A012A4FEA075210DC001B61EBC4
:1034700002014FF0004202EA0752CDE90042001C6F
:1034800041F5801132462B4600F0ABFAB6E7001B3F
:1034900061EB0201001C41F5801300185B4120180C
:1034A000A2F5001747EB030140EAD570B6196D414C
:1034B00011E06D084FEA360645EAC0754FEA07523B
:1034C000001B61EB0201001C41F5801149084FEA25
:1034D00030000019514132462B4603B0BDE8F04F91
:1034E00000F072BA0098012240000023D0EB0202E3
:1034F00063EBE073009821464FEAE074B8EB0000FC
:1035000061EB0401E9E783F000435BE781F00041F0
:1035100058E72DE9FE4F81EA030404F0004421F04E
:10352000004100944FF0000B23F0004350EA0104E7
:1035300002D052EA030404D10020014603B0BDE8E2
:10354000F08FC3F30A54C1F30A552C44A4F2F334A8
:103550000194A0FB0254C1F3130141F48011C3F3A1
:10356000130343F4801301FB024400FB034E840A5F
:10357000970A44EA815447EA8357A4FB07680295F7
:103580008D0A05FB07854FEA932C04FB0C54270595
:10359000029D4FEA065847EA1637B5EB08056EEB71
:1035A000070C870E920E47EA811742EA8312A7FBA7
:1035B0000201B6EB0B0164EB00042B0D43EA0C3364
:1035C0005E1844EB1C50DA465146E7FB0201C5F396
:1035D00013044FEA0B3343EA14534FEA0432019CBD
:1035E00043EA0603A4F10C040294009CCDE900B464
:1035F00000F0F7F9A2E72DE9F04D81EA030404F0A9
:10360000004B21F0004514464FF0000A23F0004122
:1036100050EA050220D054EA01021DD0C5F30A5732
:103620000246C5F31303C1F31300C1F30A5640F475
:10363000801543F48013A7EB0608101BD64608F24A
:10364000FD3873EB050002D308F1010801E0921880
:103650005B41B8F1000F03DA00200146BDE8F08DB0
:1036600000204FF48011064684460EE0171B73EBD2
:10367000050705D3121B63EB050306434CEA010C57
:1036800049084FEA300092185B4150EA0107EDD13A
:1036900052EA030012D082EA040083EA05010843DB
:1036A00003D100224FF0004308E0101BAB4102D2CF
:1036B0000122002302E06FF0010253101AEB060012
:1036C0004CEB085110EB0A0041EB0B01BDE8F04D4B
:1036D00000F07AB970B521F0004303430CD0C1F378
:1036E0000A550024D5EB040564EB0403D617AD1A84
:1036F000B34102DB0020014670BD201841EB0251AE
:1037000070BD0EB5C10F80EAE0700844CA07002101
:1037100040F233438DE80E000A460B4600F061F993
:1037200003B000BD0EB540F2334102910021CDE956
:1037300000110A460B4600F054F903B000BD70B505
:10374000C1F30A5201F000450024C1F3130140F215
:10375000FF3341F480119A4201DA002070BD40F23B
:1037600033439A42A2F2334203DC524200F02EF875
:1037700000E090402C43F1D0404270BDC1F30A52AA
:1037800010B5C1F3130140F2FF3341F480119A42A6
:1037900001DA002010BD40F233439A42A2F23342D4
:1037A00003DC524200F012F810BD904010BD202AF8
:1037B00004DB203A00FA02F1002070479140C2F188
:1037C000200320FA03F3194390407047202A04DBBA
:1037D000203A21FA02F00021704721FA02F3D0408A
:1037E000C2F120029140084319467047202A06DBA7
:1037F000CB17203A41FA02F043EAE07306E041FABF
:1038000002F3D040C2F120029140084319467047AC
:10381000014900F003B80000047F002030B50368C0
:103820003C22B3FBF2F002FB10330B60B0FBF2F36F
:1038300002FB130018244860B3FBF4F004FB1032C1
:103840008A60021D0723B2FBF3F403FB14228A6192
:10385000820002F66C3240F2B555B2FBF5F404F189
:1038600044000346486105FB14208008C8613B28DA
:1038700002D39A0700D0401C0022074C13460A616D
:10388000E25C824203D8801A5B1C0B61F8E7401CA3
:10389000C860084630BD0000E8560208F0B52A4A64
:1038A0002A4C85B00021836903EB43030B44491C78
:1038B000E35C02F8013B0329F5DB244C4FF0200CBC
:1038C000002102F801CB1534036903EB43030B44D9
:1038D000491CE35C02F8013B0329F5DBC368009354
:1038E000836801934368029303680393406918A1B6
:1038F00000F26C706B460A27049016E002F8010B88
:1039000011F8010F08B1022500E0042510CB28466C
:1039100006E0264694FBF7F407FB1466303616548F
:10392000061EA0F10100F4DC2A4408780028E5D145
:10393000177050700448017A302901D180F808C00E
:1039400005B00148F0BD0000307F0020F4560208A9
:1039500020203A3A200000002DE9F04791460F461A
:1039600080460446002614F8015B2DB100F09EF855
:103970000068405DC007F6D12B2D02D02D2D18D048
:10398000641E4A463946204600F094F827B139684B
:10399000A14201D1C7F8008071054FF002040BD598
:1039A0004042002803DD06F0F3F90460A007BDE8FB
:1039B000F08746F48066E4E70028F8DA06F0E8F9D4
:1039C00004606FF00040F2E710B5002B08DA401CED
:1039D00041F1000192185B411A4301D120F001002E
:1039E00010BD2DE9F04D92469B4611B1B1FA81F21E
:1039F00002E0B0FA80F220329046FFF7D8FE04468B
:103A00000F4640EA0A0041EA0B0153465A46084372
:103A100003D120463946BDE8F08D114653EA010036
:103A200015D0C8F140025046FFF7D0FE05460E46BD
:103A3000504659464246FFF7BAFE084301D00120DE
:103A400000E00020054346EAE0762C4337430A981D
:103A50004FEA4453A0EB08004FEAD4240A304FF059
:103A6000000244EA47544FEAD72502D50020014618
:103A7000D1E7010510196941DDE9084500196941DF
:103A8000BDE8F04DA0E70000064C074D06E0E068F9
:103A900040F0010394E8070098471034AC42F6D395
:103AA000FFF74AFBE05B0208005C02080048704731
:103AB000B05702082DE9F05F8246007800271546CE
:103AC0008B460AF10104B946302801D09DB113E0BC
:103AD00014F8010B0127782803D0582801D045B1EC
:103AE0000AE00DB1102D07D10027102514F8010BA5
:103AF00002E0082500E00A250026B0460EE005FB9E
:103B0000080005FB06F1012701EB10461FFA80F8BB
:103B1000B6F5803F00D3B94614F8010B294600F0F2
:103B200018F80028EBDABBF1000F05D00FB1641EC6
:103B300000E05446CBF80040B9F1000F06D006F083
:103B400027F902210160C81EBDE8F09F48EA06403F
:103B5000FAE73A2800D2303820F02002412A01D377
:103B6000A2F13700884201D34FF0FF30704770B5A3
:103B700001EB020410F8015B15F0070301D110F806
:103B8000013B2A1106D110F8012B03E010F8016B5C
:103B900001F8016B5B1EF9D12B0705D40023521EDF
:103BA0000FD401F8013BFAE710F8013B02F10202E1
:103BB000A1EB030303E013F8015B01F8015B521E64
:103BC000F9D5A142D6D3002070BD000070B50446DF
:103BD0000F480D4684420AD00E48844207D00E4852
:103BE000844204D04FF497710CA009F0CFFB55B17B
:103BF000012D04D040F22F1108A009F0C7FBA068E6
:103C000040F0010002E0A06820F00100A06070BD5B
:103C10000024014000280140003C01404C696272D0
:103C200061726965735C53544D3332463130785F4D
:103C30005374645065726970685F44726976657226
:103C40005C7372635C73746D3332663130785F61BC
:103C500064632E630000000070B504460E480D46F4
:103C6000844207D00D48844204D040F247110CA092
:103C700009F08CFB55B1012D04D04FF4A47108A0BC
:103C800009F084FBA06840F4807002E0A06820F492
:103C90008070A06070BD000000240140003C014025
:103CA0004C69627261726965735C53544D3332467C
:103CB0003130785F5374645065726970685F447224
:103CC000697665725C7372635C73746D33326631EE
:103CD00030785F6164632E630000000070B50446B5
:103CE0000A48002584420AD00948844207D009487E
:103CF000844204D04FF4D97107A009F047FBA068B3
:103D0000400700D50125284670BD00000024014071
:103D100000280140003C01404C6962726172696593
:103D2000735C53544D3332463130785F5374645072
:103D300065726970685F4472697665725C737263FC
:103D40005C73746D3332663130785F6164632E6307
:103D50000000000070B504460A48002584420AD0DD
:103D60000948844207D00948844204D04FF4C67100
:103D700007A009F00BFBA068000700D50125284625
:103D800070BD00000024014000280140003C0140BB
:103D90004C69627261726965735C53544D3332468B
:103DA0003130785F5374645065726970685F447233
:103DB000697665725C7372635C73746D33326631FD
:103DC00030785F6164632E63000000002DE9F047E6
:103DD000054644480C46854209D04348854206D0F2
:103DE0004248854203D0DF2141A009F0CFFA4FF4C9
:103DF0000036206877004FF4C0284FF40029D0B176
:103E0000B0F5803F17D0B04215D0B0F5403F12D08A
:103E1000B84210D0B0F5A02F0DD040450BD0B0F572
:103E2000E02F08D0484506D0B0F5102F03D0E02190
:103E30002FA009F0ABFA207928B1012803D0E121A5
:103E40002BA009F0A3FA607928B1012803D0E22160
:103E500027A009F09BFAA068A0B1B04212D0B842E6
:103E600010D040450ED048450CD0B0F5202F09D0D9
:103E7000B0F5402F06D0B0F5602F03D0E3211CA091
:103E800009F084FAE06830B1B0F5006F03D0E421A6
:103E900017A009F07BFA207C401E0F2803D9E521EA
:103EA00013A009F073FA6868204922790840216854
:103EB00040EA022001436960A8681D490840D4E92E
:103EC00002211143627940EA42000143A960E86A95
:103ED000217C20F47000491EC9B240EA0150E8621A
:103EE000BDE8F0870024014000280140003C01406B
:103EF0004C69627261726965735C53544D3332462A
:103F00003130785F5374645065726970685F4472D1
:103F1000697665725C7372635C73746D333266319B
:103F200030785F6164632E6300000000FFFEF0FFE5
:103F3000FDF7F1FF2DE9F041054648481E461746BA
:103F40000C4685420AD04648854207D045488542FE
:103F500004D040F2522144A009F018FA34B3012CE5
:103F600024D0022C22D0032C20D0042C1ED0052CCF
:103F70001CD0062C1AD0072C18D0082C16D0092CCF
:103F800014D00A2C12D00B2C10D00C2C0ED00D2CCF
:103F90000CD00E2C0AD00F2C08D0102C06D0112CCF
:103FA00004D040F2532130A009F0F0F9A7F1010844
:103FB000B8F10F0F04D94FF415712BA009F0E6F9F1
:103FC00096B1012E10D0022E0ED0032E0CD0042E4E
:103FD0000AD0052E08D0062E06D0072E04D040F2B7
:103FE000552121A009F0D2F90722092C0AD9E96844
:103FF000A4F10A0000EB4000824091438640314327
:10400000E96007E0296904EB44008240914386405F
:10401000314329611F21072F09D26A6B08EB880001
:1040200081408A43844022436A63BDE8F0810D2FBA
:1040300009D22A6BFF1F07EB870081408A43844027
:1040400022432A63F1E7EA6A0D3F07EB87008140CC
:104050008A4384402243EA62E7E7000000240140EB
:1040600000280140003C01404C6962726172696540
:10407000735C53544D3332463130785F537464501F
:1040800065726970685F4472697665725C737263A9
:104090005C73746D3332663130785F6164632E63B4
:1040A0000000000010B50446094884420AD00948BF
:1040B000844207D00848844204D04FF4BF7107A05F
:1040C00009F064F9A06840F00800A06010BD00008D
:1040D0000024014000280140003C01404C6962720C
:1040E00061726965735C53544D3332463130785F89
:1040F0005374645065726970685F44726976657262
:104100005C7372635C73746D3332663130785F61F7
:1041100064632E630000000070B504460F480D462E
:1041200084420AD00E48844207D00E48844204D00C
:104130004FF4E6710CA009F029F955B1012D04D016
:1041400040F2CD1108A009F021F9A06840F4A000C8
:1041500002E0A06820F4A000A06070BD002401402F
:1041600000280140003C01404C696272617269653F
:10417000735C53544D3332463130785F537464501E
:1041800065726970685F4472697665725C737263A8
:104190005C73746D3332663130785F6164632E63B3
:1041A0000000000010B50446094884420AD00948BE
:1041B000844207D00848844204D04FF4D27107A04B
:1041C00009F0E4F8A06840F00400A06010BD000011
:1041D0000024014000280140003C01404C6962720B
:1041E00061726965735C53544D3332463130785F88
:1041F0005374645065726970685F44726976657261
:104200005C7372635C73746D3332663130785F61F6
:1042100064632E630000000010B5094C50B1012802
:1042200004D040F2924107A009F0B0F8206840F4B1
:10423000000002E0206820F40000206010BD0000B3
:10424000082401404C69627261726965735C535461
:104250004D3332463130785F537464506572697003
:10426000685F4472697665725C7372635C73746DC7
:104270003332663130785F6164632E630000000082
:1042800010B5012002F022FEBDE81040002002F02F
:104290001DBE000038B5044600200090042C55D007
:1042A000082C53D00C2C51D0102C4FD0142C4DD0A6
:1042B000182C4BD01C2C49D0202C47D0242C45D076
:1042C000282C43D0402C41D0442C3FD0482C3DD00A
:1042D0004C2C3BD0502C39D0542C37D0582C35D0C6
:1042E0005C2C33D0602C31D0642C2FD0682C2DD096
:1042F0006C2C2BD0702C29D0742C27D0782C25D066
:104300007C2C23D0802C21D0842C1FD0882C1DD035
:104310008C2C1BD0902C19D0942C17D0982C15D005
:104320009C2C13D0A02C11D0A42C0FD0A82C0DD0D5
:10433000AC2C0BD0B02C09D0B42C07D0B82C05D0A5
:10434000BC2C03D0F62104A009F020F81148204429
:104350000090008838BD00004C6962726172696526
:10436000735C53544D3332463130785F537464502C
:1043700065726970685F4472697665725C737263B6
:104380005C73746D3332663130785F626B702E63AC
:1043900000000000006C004038B5044600200D46C7
:1043A0000090042C55D0082C53D00C2C51D0102C3C
:1043B0004FD0142C4DD0182C4BD01C2C49D0202C75
:1043C00047D0242C45D0282C43D0402C41D0442C1D
:1043D0003FD0482C3DD04C2C3BD0502C39D0542CC5
:1043E00037D0582C35D05C2C33D0602C31D0642C95
:1043F0002FD0682C2DD06C2C2BD0702C29D0742C65
:1044000027D0782C25D07C2C23D0802C21D0842C34
:104410001FD0882C1DD08C2C1BD0902C19D0942C04
:1044200017D0982C15D09C2C13D0A02C11D0A42CD4
:104430000FD0A82C0DD0AC2C0BD0B02C09D0B42CA4
:1044400007D0B82C05D0BC2C03D0E32103A008F082
:104450009DFF114820440090056038BD4C69627290
:1044600061726965735C53544D3332463130785F05
:104470005374645065726970685F447269766572DE
:104480005C7372635C73746D3332663130785F6273
:104490006B702E6300000000006C0040FEE700001F
:1044A0002DE9F05F044634480D46844207D0334876
:1044B000844204D040F21D5131A008F067FF4FF450
:1044C000807677004FF480684FF400694FF4004A1B
:1044D0004FF4803B012D1BD0042D19D0082D17D08F
:1044E000202D15D0402D13D0B54211D0BD420FD094
:1044F00045450DD04D450BD0554509D05D4507D0FC
:10450000B5F5003F04D040F21E511DA008F03EFF5B
:10451000042008211022BD421AD010DC202D25D005
:1045200008DC012D1DD0042D1ED0082D00D1E26025
:10453000BDE8F09F402D1BD0B542F9D108E0002323
:10454000554504D006DC454502D04D45F0D1A36168
:104550006060EDE75D450DD0B5F5003FE8D16260E4
:10456000E6E71648A060E3E7E160E1E72161DFE705
:104570002261DDE76160DBE7006400400068004025
:104580004C69627261726965735C53544D33324693
:104590003130785F5374645065726970685F44723B
:1045A000697665725C7372635C73746D3332663105
:1045B00030785F63616E2E6300000000010101002E
:1045C00070B50E4D0446A84206D00D48844203D073
:1045D0007D210CA008F0DAFEAC424FF0010101D1C0
:1045E0004C0601E04FF08064204602F0B5FB204607
:1045F000BDE87040002102F0AFBB00000064004045
:10460000006800404C69627261726965735C535462
:104610004D3332463130785F53746450657269703F
:10462000685F4472697665725C7372635C73746D03
:104630003332663130785F63616E2E6300000000B4
:104640002DE9F0410446807A0D2804D94FF4947185
:1046500042A008F09BFEE07A30B1012804D040F27D
:1046600029113EA008F092FE207B30B1012804D031
:104670004FF4957139A008F089FE208930B10128E6
:1046800004D040F22B1135A008F080FE607B30B1E1
:10469000012804D04FF4967130A008F077FEA17A7B
:1046A0003D4B01208840196841F0010119603A4DE5
:1046B0001C352968814329603749374E227B0C31EC
:1046C0004036371DA2B90A6882430A606288B4F88E
:1046D00006C042EA0C4294F80AC046F83C20228800
:1046E000B4F804C042EA0C4294F80AC047F83C20EF
:1046F000227B012A0ED10A6802430A602168A27A4D
:104700004FEA314146F832106168A27A4FEA3141EE
:1047100047F832102049E27A091D002A0A6806D0BB
:1047200002430A601C492289143112B104E0824319
:10473000F7E70A6882430A602289012A02D10A68DF
:1047400002430A60617B012902D129680143296083
:10475000186820F001001860BDE8F0814C696272B1
:1047600061726965735C53544D3332463130785F02
:104770005374645065726970685F447269766572DB
:104780005C7372635C73746D3332663130785F636F
:10479000616E2E63000000000066004070B50546A3
:1047A0002D4800260C46854207D02C48854204D06F
:1047B0004FF483612AA008F0E9FD3848844233D0E1
:1047C0003748844230D0801E84422DD0401E84421F
:1047D0002AD0A4F14450083826D0A4F1485010380B
:1047E00022D0083020D0A4F19050C01E1CD0A4F1DB
:1047F0005050103818D0083016D0A4F1A050C01E68
:1048000012D0284884420FD0274884420CD0264832
:10481000FF38844208D0A4F14450123804D040F24A
:1048200019410FA008F0B2FD14F4700F01D0A8696F
:104830000CE0E00101D5686808E0200101D5A86816
:1048400004E0A00101D5E86800E0286920400003E9
:1048500000D00126304670BD006400400068004072
:104860004C69627261726965735C53544D333246B0
:104870003130785F5374645065726970685F447258
:10488000697665725C7372635C73746D3332663122
:1048900030785F63616E2E63000000007000F030BE
:1048A0000400F010000001380001003870B5054622
:1048B000214816460C46854207D02048854204D040
:1048C00040F2EE311EA008F061FD012C25D0022C33
:1048D00023D0042C21D0082C1FD0102C1DD0202C2C
:1048E0001BD0402C19D0B4F5807F16D0B4F5007FD2
:1048F00013D0B4F5806F10D0B4F5006F0DD0B4F5BF
:10490000004F0AD0B4F5803F07D0B4F5003F04D083
:1049100040F2EF310AA008F039FD4EB1012E04D06B
:104920004FF47C7106A008F031FD6869204301E076
:104930006869A043686170BD006400400068004081
:104940004C69627261726965735C53544D333246CF
:104950003130785F5374645065726970685F447277
:10496000697665725C7372635C73746D3332663141
:1049700030785F63616E2E630000000070B50446FE
:104980006E4800260D46844206D06D48844203D00E
:104990009F216CA008F0FAFCA87928B1012803D067
:1049A000A02168A008F0F2FCE87928B1012803D022
:1049B000A12164A008F0EAFC287A28B1012803D0DC
:1049C000A22160A008F0E2FC687A28B1012803D097
:1049D000A3215CA008F0DAFCA87A28B1012803D052
:1049E000A42158A008F0D2FCE87A28B1012803D00D
:1049F000A52154A008F0CAFCA87848B1012807D026
:104A0000022805D0032803D0A6214EA008F0BEFC42
:104A1000E87848B1012807D0022805D0032803D040
:104A2000A72148A008F0B2FC28790F2803D9A821B3
:104A300044A008F0ABFC6879072803D9A92141A05C
:104A400008F0A4FC2888401EB0F5806F03D3AA218B
:104A50003CA008F09BFC206820F002002060206849
:104A600040F0010020604FF6FF7100E0761C6068A6
:104A7000C00701D18E42F9D16068C0075AD0A87929
:104A8000012820683AD020F080002060E8790128D1
:104A9000206836D020F040002060287A0128206865
:104AA00032D020F020002060687A012820682ED0C3
:104AB00020F010002060A87A012820682AD020F079
:104AC00008002060E87A0128206826D020F0040041
:104AD0002060A878EA78800740EA02602A7940EAF4
:104AE00002406A7940EA02502A88521E1043E0616F
:104AF000206820F001002060002012E040F08000DB
:104B0000C3E740F04000C7E740F02000CBE740F0AB
:104B10001000CFE740F00800D3E740F00400D7E7EB
:104B2000401C6268D20701D08842F9D16068C00792
:104B300001D0002070BD012070BD00000064004065
:104B4000006800404C69627261726965735C53541D
:104B50004D3332463130785F5374645065726970FA
:104B6000685F4472697665725C7372635C73746DBE
:104B70003332663130785F63616E2E63000000006F
:104B800070B504460E4800250E46844207D00D48F5
:104B9000844204D040F2EB210BA008F0F7FB3EB1B9
:104BA000012E07D04FF43B7107A008F0EFFB04E0A3
:104BB000E06800E0206900F00305284670BD0000B1
:104BC00000640040006800404C696272617269656F
:104BD000735C53544D3332463130785F53746450B4
:104BE00065726970685F4472697665725C7372633E
:104BF0005C73746D3332663130785F63616E2E633F
:104C00000000000070B50546284814460E4685424F
:104C100007D02748854204D040F2A22125A008F001
:104C2000B5FB36B1012E04D040F2A32121A008F03B
:104C3000ADFB05EB0612D2F8B00110F004002072B3
:104C4000D2F8B0012AD0C008606002F5D8721068AE
:104C500000F002006072506800F00F00A07250680F
:104C6000000AE0749068E0729068000A207390680F
:104C7000000C60739068000EA073D068E073D06879
:104C8000000A2074D068000C6074D068000EA07414
:104C90003EB1286940F02000286170BD400D2060C1
:104CA000D3E7E86840F02000E86070BD0064004091
:104CB000006800404C69627261726965735C5354AC
:104CC0004D3332463130785F537464506572697089
:104CD000685F4472697665725C7372635C73746D4D
:104CE0003332663130785F63616E2E6300000000FE
:104CF00000218171C171017241728172C172817032
:104D0000C1700321017102214171012101807047AD
:104D100070B50546414800260C46854207D04048FC
:104D2000854204D040F207213EA008F02FFB207AF4
:104D300030B1042804D04FF402713AA008F026FBE9
:104D4000607A30B1022804D040F2092135A008F081
:104D50001DFBA07A082804D940F20A2131A008F0EE
:104D600015FBA868400108D4A868000101D50126F8
:104D700003E0A868C0003DD5022605EB0615D5F86E
:104D8000800100F00100C5F88001207A88B36068D6
:104D9000B0F1005F04D340F22A2122A008F0F6FA15
:104DA000D5F88001217A62680843617A41EAC2013C
:104DB0000843C5F88001A07A05F5C07500F00F0022
:104DC000A072686820F00F0068606868A17A0843E4
:104DD0006860E07AE16840EA0120A860E07B216930
:104DE00040EA0120E860286840F001002860304671
:104DF00070BD01E00426FAE72068B0F5006F04D327
:104E00004FF4097107A008F0C1FAD5F88001617A62
:104E10000843218840EA4150CBE70000006400408D
:104E2000006800404C69627261726965735C53543A
:104E30004D3332463130785F537464506572697017
:104E4000685F4472697665725C7372635C73746DDB
:104E50003332663130785F63616E2E63000000008C
:104E60000121402001F0FCBE10B50446000F02D025
:104E70000848044200D124B940F20E2106A008F0EF
:104E800085FAE00002D51348046010BD1248446062
:104E900010BD00000000F0EF4C696272617269653C
:104EA000735C53544D3332463130785F53746450E1
:104EB00065726970685F4472697665725C7372636B
:104EC0005C73746D3332663130785F646D612E636C
:104ED00000000000040402400000024070B50446D7
:104EE00022480D4684422FD02048143084422BD0D3
:104EF0001E482830844227D01C483C30844223D0AE
:104F00001A48503084421FD01848643084421BD065
:104F100016487830844217D01548844214D014487B
:104F20001430844210D01248283084420CD01048EB
:104F30003C30844208D00E485030844204D040F2C5
:104F400029110CA008F022FA55B1012D04D04FF41C
:104F5000957108A008F01AFA206840F0010003E0FB
:104F600020684FF6FE710840206070BD08000240C6
:104F7000080402404C69627261726965735C535443
:104F80004D3332463130785F5374645065726970C6
:104F9000685F4472697665725C7372635C73746D8A
:104FA0003332663130785F646D612E63000000003B
:104FB0002DE9F05F4D4E4D4F4C4DDFF83081DFF85D
:104FC0002C91DFF828A1DFF824B1143628370446E5
:104FD00008F13C0809F150090AF1640A0BF1780B59
:104FE000A84222D0B44220D0BC421ED044451CD09E
:104FF0004C451AD0544518D05C4516D03C488442E4
:1050000013D03B48143084420FD0394828308442B2
:105010000BD037483C30844207D03548503084426A
:1050200003D06F2133A008F0B1F920684FF6FE716C
:1050300008402060002020606060A060E0602B4895
:105040000838AC4203D1416841F00F0104E0B4429A
:1050500005D1416841F0F0014160BDE8F09FBC42DC
:1050600003D1416841F47061F6E7444503D14168DA
:1050700041F47041F0E74C4503D1416841F470219F
:10508000EAE7544503D1416841F47001E4E75C4527
:1050900003D1416841F07061DEE71549081F8C4279
:1050A00003D1016841F00F0106E0114914318C422F
:1050B00004D1016841F0F0010160CEE70C492831CC
:1050C0008C4203D1016841F47061F5E708493C3135
:1050D0008C4203D1016841F47041EDE7044950313D
:1050E0008C42BAD1016841F47021E5E70800024022
:1050F000080402404C69627261726965735C5354C2
:105100004D3332463130785F537464506572697044
:10511000685F4472697665725C7372635C73746D08
:105120003332663130785F646D612E6300000000B9
:1051300070B50025044601287ED0022C7CD0042CBA
:105140007AD0082C78D0102C76D0202C7FD0402C10
:105150007DD0802C7BD0B4F5807F78D0B4F5007FF3
:1051600075D0B4F5806F72D0B4F5006F6FD0B4F520
:10517000805F6CD0B4F5005F69D0B4F5804F66D025
:10518000B4F5004F63D0B4F5803F60D0B4F5003F74
:105190005DD0B4F5802F5AD0B4F5002F57D0B4F5B8
:1051A000801F54D0B4F5001F51D0B4F5800F4ED0FD
:1051B000B4F5000F4BD0B4F1807F48D0B4F1007F3C
:1051C00045D0B4F1806F42D0B4F1006F3FD0254894
:1051D00084423CD0A4F18050801E38D0801E36D04E
:1051E000001F34D0083832D0103830D020382ED0BC
:1051F00040382CD01B48FF30844228D01A488442C3
:1052000025D01A48844222D0194884421FD0B4F1D4
:10521000102F1CD04FEAF030844218D01548844239
:1052200015D01548844212D0144884420FD0144837
:1052300084420CD0134800E009E0844207D01248B1
:10524000844204D040F2B71110A008F09FF8E000AB
:1052500001D51D4800E01D480068204200D001250E
:10526000284670BD0100001000020010000400106C
:105270000008001000400010008000100000011025
:105280000000021000000410000008104C69627257
:1052900061726965735C53544D3332463130785FC7
:1052A0005374645065726970685F447269766572A0
:1052B0005C7372635C73746D3332663130785F6433
:1052C0006D612E63000000000004024000000240F7
:1052D00070B5054654480C4685422ED052481430CD
:1052E00085422AD050482830854226D04E483C304E
:1052F000854222D04C48503085421ED04A48643006
:1053000085421AD048487830854216D047488542B1
:1053100013D04648143085420FD044482830854287
:105320000BD042483C30854207D04048503085423F
:1053300003D0CF213EA008F029F8A068102804D09F
:1053400018B1D0213AA008F021F8E0684FF6FF71BB
:10535000401E884203D3D12135A008F017F82069F8
:10536000402804D018B1D22131A008F00FF86069AC
:10537000802804D018B1D3212DA008F007F8A06927
:1053800048B1B0F5807F06D0B0F5007F03D0D421BE
:1053900027A007F0FBFFE06948B1B0F5806F06D0A9
:1053A000B0F5006F03D0D52121A007F0EFFF206AF0
:1053B000202804D018B1D6211DA007F0E7FF606AAD
:1053C000B0F5405F0AD0B0F5005F07D0B0F5805F60
:1053D00004D018B1D72116A007F0D8FFA06AB0F505
:1053E000804F04D018B1D82111A007F0CFFF296851
:1053F00047F6F0708143226AA0681043D4E9042381
:105400001A431043A2691043E2691043626A1043D1
:10541000A26A104308432860E06868602068A860BA
:105420006068E86070BD00000800024008040240A7
:105430004C69627261726965735C53544D333246D4
:105440003130785F5374645065726970685F44727C
:10545000697665725C7372635C73746D3332663146
:1054600030785F646D612E6300000000704772B693
:10547000704762B67047000010B5044630F0350042
:1054800000D124B940F2B65102A007F07FFF1048C6
:10549000C46010BD4C69627261726965735C53547B
:1054A0004D3332463130785F5374645065726970A1
:1054B000685F4472697665725C7372635C73746D65
:1054C0003332663130785F666C6173682E6300003A
:1054D0000020024070B505461149A0F100608842E5
:1054E00004D340F2A7110FA007F050FF4FF430266D
:1054F000304600F019F9042811D1194C206940F008
:10550000020020616561206940F040002061304662
:1055100000F00AF9216941F6FD721140216170BD68
:10552000FFFF0F004C69627261726965735C5354CE
:105530004D3332463130785F537464506572697010
:10554000685F4472697665725C7372635C73746DD4
:105550003332663130785F666C6173682E630000A9
:105560000020024008490420CA68D20701D0012067
:105570007047CA68520701D502207047C968C9063A
:10558000FBD503207047000000200240024801695B
:1055900041F08001016170470020024010B50446CF
:1055A000102805D024B140F22F1106A007F0EEFE1E
:1055B0001348016821F01001016001682143016076
:1055C00010BD00004C69627261726965735C53546E
:1055D0004D3332463130785F537464506572697070
:1055E000685F4472697665725C7372635C73746D34
:1055F0003332663130785F666C6173682E63000009
:10560000002002402DE9F84304460E460020009099
:105610001449A4F10060884204D340F2AF2112A0E3
:1056200007F0B4FE4FF40057384600F07DF8042828
:1056300016D11C4D286940F0010028612680B8462B
:10564000384600F071F8BF1E042806D1A41C300CA7
:1056500000942080404600F067F8296939402961AC
:10566000BDE8F883FFFF0F004C69627261726965E3
:10567000735C53544D3332463130785F5374645009
:1056800065726970685F4472697665725C73726393
:105690005C73746D3332663130785F666C61736849
:1056A0002E6300000020024010B5040008D0012C39
:1056B00006D0022C04D040F2031105A007F066FECC
:1056C0001249086800F038002043086010BD00004F
:1056D0004C69627261726965735C53544D33324632
:1056E0003130785F5374645065726970685F4472DA
:1056F000697665725C7372635C73746D33326631A4
:1057000030785F666C6173682E6300000020024091
:1057100003480249416003494160704723016745DE
:1057200000200240AB89EFCD00B50346FFF71AFF1A
:1057300002E0FFF717FF5B1E012803D0002B00D10A
:10574000052000BD002BF4D1FAE700002DE9F0415F
:105750000446454800260D46844215D043488442FD
:1057600012D0434884420FD0424884420CD0424871
:10577000844209D04148844206D04148844203D043
:10578000B22140A007F002FEE87888B104280FD0CB
:1057900028280DD048280BD0142809D0102807D06D
:1057A0001C2805D0182803D0B32136A007F0EEFD41
:1057B000288818B9B42133A007F0E8FDE87800F094
:1057C0000F07C0060CD5A878012807D0022805D0FD
:1057D000032803D0BB212BA007F0D8FDA8780743EE
:1057E00028784FF00F0C4FF0010ED8B121682A88AD
:1057F0000EFA06F00240824210D1B2000CFA02F317
:1058000021EA030307FA02F1EA781943282A02D0B1
:10581000482A02D002E0606100E02061761C082E78
:10582000E5D321602888FF281CD96168002000F199
:1058300008030EFA03F22B88134093420ED1830023
:105840000CFA03F6B14307FA03F6EB783143282B41
:1058500000D16261EB78482B00D12261401C0828FE
:10586000E5D36160BDE8F08100080140000C014013
:10587000001001400014014000180140001C0140CC
:10588000002001404C69627261726965735C535417
:105890004D3332463130785F5374645065726970AD
:1058A000685F4472697665725C7372635C73746D71
:1058B0003332663130785F6770696F2E63000000A5
:1058C0002DE9F0410D46044601287DD0022C7BD005
:1058D000042C79D0082C77D0A4F5A01010387CD0F7
:1058E00020387AD0A4F5B010403876D0803874D003
:1058F0005248844271D0524884426ED0514884420A
:105900006BD05148844268D05048844265D0B4F589
:10591000805F62D0B4F5EA1F5FD0B4F5EB1F5CD0B6
:10592000B4F5004F59D04A48844256D0A4F500102F
:10593000801E52D0801E50D0001F4ED008384CD050
:10594000B4F1201F49D0303847D04248844244D077
:105950004148844241D0414884423ED0404884423C
:105960003BD04048844238D0B4F5011F35D03E4882
:10597000844232D0401C84422FD0801C84422CD0E0
:10598000001D844229D038480F30844225D0364843
:105990001F30844221D034483F3084421DD03248E9
:1059A0007F30844219D03048FF30844215D02F48D0
:1059B000844212D02E4884420FD02E4884420CD00C
:1059C0002D48844209D000E007E02C48844204D0EE
:1059D00040F22A212AA007F0D9FC35B1012D04D0CC
:1059E00040F22B2126A007F0D1FC3449002C01DA2B
:1059F000CA6900E04A68630D1E01A3B2C4F30157EF
:105A0000B340C4F30340032F05D0E6020AD50326B2
:105A10008640B24307E022F070604A6822F070626C
:105A20004A6002E09A4342F0706005B11843002CCE
:105A300002DAC861BDE8F0814860FBE700011800A8
:105A4000000218000003180000081A00000C1A00D9
:105A5000010020000001300000023000000430008E
:105A600000112000002020000100008000020080C2
:105A700000040080000800800010008000200080EA
:105A80004C69627261726965735C53544D3332467E
:105A90003130785F5374645065726970685F447226
:105AA000697665725C7372635C73746D33326631F0
:105AB00030785F6770696F2E63000000000001405E
:105AC00070B50546274800260C46854216D0264864
:105AD000854213D02548854210D0254885420DD0F7
:105AE000244885420AD02448854207D0234885426D
:105AF00004D04FF48F7122A007F048FC012C2AD06B
:105B0000022C28D0042C26D0082C24D0102C22D0F3
:105B1000202C20D0402C1ED0802C1CD0B4F5807FAF
:105B200019D0B4F5007F16D0B4F5806F13D0B4F55A
:105B3000006F10D0B4F5805F0DD0B4F5005F0AD0CF
:105B4000B4F5804F07D0B4F5004F04D040F21F11D8
:105B50000BA007F01BFCA868204200D001263046AD
:105B600070BD000000080140000C01400010014021
:105B70000014014000180140001C014000200140B9
:105B80004C69627261726965735C53544D3332467D
:105B90003130785F5374645065726970685F447225
:105BA000697665725C7372635C73746D33326631EF
:105BB00030785F6770696F2E6300000070B504462F
:105BC00011480D46844216D01048844213D0104824
:105BD000844210D00F4884420DD00F4884420AD02E
:105BE0000E48844207D00E48844204D040F2791116
:105BF0000CA007F0CBFB25B94FF4BD7109A007F04D
:105C0000C5FB656170BD000000080140000C01404B
:105C1000001001400014014000180140001C014028
:105C2000002001404C69627261726965735C535473
:105C30004D3332463130785F537464506572697009
:105C4000685F4472697665725C7372635C73746DCD
:105C50003332663130785F6770696F2E6300000001
:105C600070B5044611480D46844216D0104884424F
:105C700013D01048844210D00F4884420DD00F48F2
:105C800084420AD00E48844207D00E48844204D091
:105C900040F269110CA007F079FB25B94FF4B571FA
:105CA00009A007F073FB256170BD000000080140EA
:105CB000000C014000100140001401400018014098
:105CC000001C0140002001404C69627261726965EC
:105CD000735C53544D3332463130785F53746450A3
:105CE00065726970685F4472697665725C7372632D
:105CF0005C73746D3332663130785F6770696F2E14
:105D00006300000070B505462A4816460C468542D9
:105D100016D02948854213D02848854210D02848FB
:105D200085420DD0274885420AD02748854207D0B2
:105D30002648854204D040F28D1125A007F026FBAD
:105D4000012C2AD0022C28D0042C26D0082C24D0B8
:105D5000102C22D0202C20D0402C1ED0802C1CD0E7
:105D6000B4F5807F19D0B4F5007F16D0B4F5806FFC
:105D700013D0B4F5006F10D0B4F5805F0DD0B4F53A
:105D8000005F0AD0B4F5804F07D0B4F5004F04D0BF
:105D90004FF4C7710EA007F0F9FA46B1012E04D0F6
:105DA00040F28F110AA007F0F1FA2C6170BD6C610E
:105DB00070BD000000080140000C014000100140CF
:105DC0000014014000180140001C01400020014067
:105DD0004C69627261726965735C53544D3332462B
:105DE0003130785F5374645065726970685F4472D3
:105DF000697665725C7372635C73746D333266319D
:105E000030785F6770696F2E6300000010B501F095
:105E10008BF8012001F08CF9212001F0EFF8002827
:105E2000FAD01020FFF7BAFB0220FFF73DFC00205C
:105E300001F03EF9002001F021FA002001F0E2F922
:105E40004FF46011002001F083FA012001F052FAB2
:105E5000392001F0D3F80028FAD0022001F044FBE9
:105E600001F01EF90828FBD110BD00002DE9F0411A
:105E70000B4C0E46074615463221206812F0E2FB15
:105E800010B10220BDE8F0812A463146384600F0C4
:105E900009F80546206812F00DFB2846F2E70000DD
:105EA000A00100202DE9F041DFF8B4800C46054642
:105EB0004FF40047164639464046FFF77FFE00F094
:105EC000C7F9AE2000F01EF9B0B1200A00F01AF9AF
:105ED000D0B1E0B200F016F900281DD000F0B8F9FA
:105EE000AF2000F00FF90028394640461CD0FFF7DC
:105EF000B7FE0024761E28E039464046FFF7B0FE84
:105F000000F0BDF917A014E039464046FFF7A8FE9F
:105F100000F0B5F91DA00CE039464046FFF7A0FEA1
:105F200000F0ADF923A004E0FFF79AFE00F0A7F916
:105F30002AA011F0C3FE0120BDE8F081012000F08D
:105F400029F9641C05F8010BA4B2B442F6DB002069
:105F500000F020F9287000F092F90020ECE7000032
:105F6000001801400A204949434253503A2049321F
:105F7000435F45455F4275665265616420534C41FD
:105F800056455F414444520A000000000A20494936
:105F9000434253503A204932435F45455F4275665C
:105FA0005265616420414444522068696768203822
:105FB0000A0000000A204949434253503A2049321E
:105FC000435F45455F4275665265616420414444C4
:105FD00052204C4F572020380A0000000A2049491F
:105FE000434253503A204932435F45455F4275660C
:105FF0005265616420534C4156455F4144445220F0
:10600000203132330A0000002DE9F0410B4C0E46DE
:10601000074615463221206812F014FB10B1022009
:10602000BDE8F0812A463146384600F009F80546B9
:10603000206812F03FFA2846F2E70000A001002095
:106040002DE9F041074601F03F00C0F1400415463C
:106050000E46A24200D8ECB22246384603F00CFEAF
:10606000002837D1281B05042D0C05D030191FFA44
:1060700080F82744AE091DE0052013F081FD2CE0D7
:106080000A2440224146384603F0F6FD38B1641E2A
:10609000E4B2012013F074FD002CF2D100E014B939
:1060A0000FA011F00BFE403D08F14000ADB21FFA09
:1060B00080F840373000A6F10106B6B2E0D10520E5
:1060C00013F05EFD4DB1EAB24146384603F0D4FD0F
:1060D0000028D1D00120BDE8F0810020FBE70000BE
:1060E0000A204949434253503A204932435F4545CB
:1060F0005F42756657726974652020455252200AC6
:106100000000000070B5044601F0D6FA002000F04F
:1061100087F80025E00900F08FF86006040E0220E1
:1061200009F0E6F9012000F07BF8022009F0E0F91F
:10613000002000F075F8022009F0DAF96D1CEDB2CC
:10614000082DE7D3002401F0A5FA012000F074F82F
:10615000022009F0CDF9012000F062F8022009F0D8
:10616000C7F94FF400650A4E07E0641CE4B2FA2C4C
:1061700003D900F084F8002070BD29463046FFF7AF
:106180009FFC0028F1D100F04BF8012070BD000009
:10619000000C01402DE9F0410646002401F07AFA96
:1061A000DFF8788000254FF40067002000F038F811
:1061B000022009F09DF9012000F032F86006040E7B
:1061C00039464046FFF77CFC08B1641CE4B202206B
:1061D00009F08EF96D1CEDB2082DE6D34FF00000EA
:1061E000AEB100F01DF801F067FA002000F024F8CD
:1061F000022009F07DF9012000F012F8022009F0D8
:1062000077F9002000F00CF82046BDE8F08100F09E
:1062100007F801F051FA0120E8E70000000C014006
:10622000044A01284FF48061104601D0FFF7C6BC34
:10623000FFF716BD000C0140044A01284FF400612D
:10624000104601D0FFF7BABCFFF70ABD000C0140B1
:1062500010B501F031FA0120FFF7EEFF0120FFF742
:10626000DFFF022009F044F90020FFF7E5FF0220DC
:1062700009F03EF9BDE810400020FFF7D1BF10B58E
:1062800001F01AFA0020FFF7CBFF0020FFF7D4FF40
:10629000022009F02DF90120FFF7C2FF0120FFF7CE
:1062A000CBFFBDE81040022009F022B902494CF6AC
:1062B000CC400860704700000030004002494AF6B8
:1062C000AA200860704700000030004010B50400AC
:1062D0000FD0012C0DD0022C0BD0032C09D0042C94
:1062E00007D0052C05D0062C03D0732102A007F09F
:1062F0004DF81048446010BD4C6962726172696566
:10630000735C53544D3332463130785F537464506C
:1063100065726970685F4472697665725C737263F6
:106320005C73746D3332663130785F697764672EE1
:10633000630000000030004010B50446B0F5805FF7
:1063400003D3802102A007F021F81048846010BD1B
:106350004C69627261726965735C53544D333246A5
:106360003130785F5374645065726970685F44724D
:10637000697665725C7372635C73746D3332663117
:1063800030785F697764672E63000000003000405A
:1063900010B50446A0F5AA40553804D01CB15F21C1
:1063A00002A006F0F3FF1048046010BD4C69627251
:1063B00061726965735C53544D3332463130785F96
:1063C0005374645065726970685F4472697665726F
:1063D0005C7372635C73746D3332663130785F69FD
:1063E0007764672E6300000000300040FEE77047CE
:1063F00010B54FF440514FF0006000F09FF8BDE839
:1064000010404FF4A06000F063B8000070B504467F
:10641000C0780F2528B1012803D075211EA006F0F1
:10642000B5FF6078102803D376211BA006F0AEFFDD
:10643000A078102803D3772117A006F0A7FFE078F3
:1064400001224FF0E023E0B11F48006800F4E06053
:10645000C0F5E060000AC0F10401C54060788840E2
:10646000A1782940014308012178184D485520782A
:1064700000F01F018A40400903EB8000C0F80021B2
:1064800070BD207800F01F018A40400903EB8000B6
:10649000C0F8802170BD00004C696272617269654C
:1064A000735C53544D3332463130785F53746450CB
:1064B00065726970685F4472697665725C73726355
:1064C0005C6D6973632E63000CED00E000E400E096
:1064D00010B50446B0F5E06F0FD0B4F5C06F0CD026
:1064E000B4F5A06F09D0B4F5806F06D0B4F5407F45
:1064F00003D0632103A006F049FF0E4804430E4871
:10650000046010BD4C69627261726965735C5354BA
:106510004D3332463130785F537464506572697020
:10652000685F4472697665725C7372635C6D6973EF
:10653000632E63000000FA050CED00E070B50D4617
:106540000446B0F1005F06D0B4F1006F03D09F2184
:1065500007A006F01BFF1248854203D3A02104A028
:1065600006F014FF0F4805400F482543056070BD35
:106570004C69627261726965735C53544D33324683
:106580003130785F5374645065726970685F44722B
:10659000697665725C7372635C6D6973632E630008
:1065A000FFFF0F0080FFFF1F08ED00E0BFF34F8FDC
:1065B00004480168044A01F4E06111430160BFF33B
:1065C0004F8FFEE70CED00E00400FA05044908686F
:1065D00010F8082D03791A4400F8042B086070475E
:1065E0005C030020044908680838D0E900231A44F5
:1065F00004C00860704700005C030020044908687C
:1066000030F8082D83881A4420F8042B086070475E
:106610005C0300200449086810F8082D03791A402B
:1066200000F8042B086070475C03002004490868E8
:106630000838D0E900231A4004C008607047000001
:106640005C0300200449086830F8082D83881A404C
:1066500020F8042B086070475C03002003480068A2
:1066600010F8041DC9430170704700005C0300204E
:106670000348006850F8041DC943016070470000DA
:106680005C0300200348006830F8041DC943018002
:10669000704700005C03002070B5634A9CB0634DF6
:1066A00010680CAB10F8011B10602A680020121F44
:1066B0002A6007E00E1A03EB8606121F46F8044C08
:1066C000401C2A6014688842F4D3112975D2DFE88F
:1066D00001F0090B0E12161A20283038424E5A6665
:1066E00075859500002000E00C98A04797E0DDE953
:1066F0000C01A04793E00CAB07CBA0478FE00CAE9A
:106700000FCEA0478BE010980CAE00900FCEA047A4
:1067100085E0DDE910010CAECDE900010FCEA04708
:106720007DE010AB0CAE07CB8DE807000FCEA04785
:1067300075E010AE0FCE8DE80F000CAE0FCEA04767
:106740006DE011AE0FCE01AE0FC610980CAE0090EA
:106750000FCEA04763E012AE0FCE02AE0FC6DDE94A
:1067600010010CAECDE900010FCEA04757E013AEEB
:106770000FCE03AE0FC610AB0CAE07CB8DE80700F3
:106780000FCEA0474BE014AE0FCE04AE0FC610AE36
:106790000FCE8DE80F000CAE0FCEA0473FE015AE38
:1067A0000FCE05AE0FC611AE0FCE01AE0FC61098BC
:1067B0000CAE00900FCEA04731E02FE016AE0FCE0A
:1067C00006AE0FC612AE0FCE02AE0FC6DDE9100147
:1067D0000CAECDE900010FCEA04720E017AE0FCEE2
:1067E00007AE0FC613AE0FCE03AE0FC610AB0CAE86
:1067F00007CB8DE807000FCEA04710E018AE0FCEF4
:1068000008AE0FC614AE0FCE04AE0FC610AE0FCE3C
:106810008DE80F000CAE0FCEA04700E000202968E5
:1068200001C129601CB070BD600300205C03002022
:106830000549086810F8082D0379B2FBF3F200F857
:10684000042B0860704700005C03002004490868BE
:106850000838D0E9002392FBF3F204C008607047C7
:106860005C0300200549086830F9082DB0F90430B0
:1068700092FBF3F220F8042B086070475C030020C1
:106880000549064A08680378106800F8043B106060
:106890000868401C08607047600300205C0300200B
:1068A00006490868C278036862F31F63044A1068E7
:1068B00008C010600868001D086070476003002071
:1068C0005C03002007490868C278006862F31F6013
:1068D000054A0378106800F8043B10600868001D42
:1068E00008607047600300205C03002003480068D4
:1068F00050F8041D09780170704700005C03002007
:1069000007490868C278006862F31F60054A036897
:10691000106808C010600868001D0860704700001B
:10692000600300205C0300200348006850F8041D49
:1069300009680160704700005C030020074908688F
:10694000C278006862F31F60054A0388106820F867
:10695000043B10600868001D086070476003002059
:106960005C0300200348006850F8041D098801807A
:10697000704700005C0300200549064A0868038848
:10698000106820F8043B10600868801C086070479D
:10699000600300205C030020064B10B5186810F857
:1069A000081D0279B1FBF2F402FB141100F8041B7C
:1069B000186010BD5C030020064B10B5186808383D
:1069C000D0E9001291FBF2F402FB141102C018602E
:1069D00010BD00005C030020074B10B5186830F9AB
:1069E000081DB0F9042091FBF2F402FB141120F809
:1069F000041B186010BD00005C03002004490868F7
:106A000010F8082D03795A4300F8042B08607047EA
:106A10005C030020044908680838D0E900235A4381
:106A200004C00860704700005C0300200449086847
:106A300030F8082D83885A4320F8042B08607047EB
:106A40005C030020704700000449086810F8082D16
:106A500003791A4300F8042B086070475C03002098
:106A6000044908680838D0E900231A4304C00860C4
:106A7000704700005C0300200449086830F8082DC6
:106A800083881A4320F8042B086070475C030020B9
:106A900002480168091F0160704700005C03002084
:106AA0000449086810F8082D03799A4000F8042B6F
:106AB000086070475C0300200449086850F8082DFE
:106AC00003799A4004C00860704700005C0300200E
:106AD0000449086830F8082D03799A4020F8042BFF
:106AE000086070475C0300200449086810F8082D0E
:106AF0000379DA4000F8042B086070475C0300203B
:106B00000449086850F8082D03791A4104C0086048
:106B1000704700005C0300200449086830F9082D24
:106B200003791A4120F8042B086070475C030020A9
:106B30000449086808380279006802700868001F74
:106B4000086070475C03002004490868083805C8DD
:106B500002600868001F0860704700005C030020A6
:106B60000449086808388288006802800868001FA5
:106B7000086070475C0300200449086810F8082D7D
:106B80000379D21A00F8042B086070475C030020D8
:106B9000044908680838D0E90023D21A04C0086004
:106BA000704700005C0300200449086830F8082D95
:106BB0008388D21A20F8042B086070475C030020F9
:106BC0000449086810F8082D03795A4000F8042B8E
:106BD000086070475C030020044908680838D0E961
:106BE00000235A4004C00860704700005C03002086
:106BF0000449086830F8082D83885A4020F8042B8F
:106C0000086070475C03002010B5040005D0012C1B
:106C100003D07F2102A006F0B9FB1048046210BD2A
:106C20004C69627261726965735C53544D333246CC
:106C30003130785F5374645065726970685F447274
:106C4000697665725C7372635C73746D333266313E
:106C500030785F7077722E630000000000000E42F3
:106C600070B5044640F257500D4634EA000000D19A
:106C700024B940F22B4109A006F088FB164E4DB115
:106C8000012D04D040F22C4104A006F07FFB706976
:106C9000204301E07069A043706170BD4C6962726D
:106CA00061726965735C53544D3332463130785F9D
:106CB0005374645065726970685F44726976657276
:106CC0005C7372635C73746D3332663130785F72FB
:106CD00063632E63000000000010024070B504469C
:106CE0000C480D46044200D124B940F269410AA083
:106CF00006F04CFB174E4DB1012D04D040F26A4115
:106D000005A006F043FBF069204301E0F069A043D1
:106D1000F06170BD003601814C6962726172696513
:106D2000735C53544D3332463130785F5374645042
:106D300065726970685F4472697665725C737263CC
:106D40005C73746D3332663130785F7263632E63C7
:106D5000000000000010024070B504460C480D46CB
:106D6000044200D124B940F2C3410AA006F00EFB50
:106D7000174E4DB1012D04D040F2C44105A006F0DC
:106D800005FB3069204301E03069A043306170BDEC
:106D9000003601814C69627261726965735C53549B
:106DA0004D3332463130785F537464506572697088
:106DB000685F4472697665725C7372635C73746D4C
:106DC0003332663130785F7263632E6300000000F7
:106DD0000010024070B504460C480D46044200D134
:106DE00024B940F24A410AA006F0D0FA174E4DB13C
:106DF000012D04D040F24B4105A006F0C7FAB0695E
:106E0000204301E0B069A043B06170BD0200C0FF43
:106E10004C69627261726965735C53544D333246DA
:106E20003130785F5374645065726970685F447282
:106E3000697665725C7372635C73746D333266314C
:106E400030785F7263632E63000000000010024020
:106E500070B504460C480D46044200D124B940F2F6
:106E6000A4410AA006F092FA174E4DB1012D04D0AC
:106E700040F2A54105A006F089FAF068204301E040
:106E8000F068A043F06070BD0200C0FF4C69627200
:106E900061726965735C53544D3332463130785FAB
:106EA0005374645065726970685F44726976657284
:106EB0005C7372635C73746D3332663130785F7209
:106EC00063632E63000000000010024010B5040050
:106ED00006D0012C04D04FF49B6103A006F056FAB3
:106EE0001048046010BD00004C69627261726965EF
:106EF000735C53544D3332463130785F5374645071
:106F000065726970685F4472697665725C737263FA
:106F10005C73746D3332663130785F7263632E63F5
:106F200000000000400442420C48016841F00101A9
:106F3000016041680A4A114041600168094A1140F4
:106F40000160016821F480210160416821F4FE01A3
:106F500041604FF41F018160704700000010024043
:106F60000000FFF8FFFFF6FE30B5204A5168204BC5
:106F700011F00C0103D0042901D0082901D00360CD
:106F800012E05168536801F470114FF0020413F4D9
:106F9000803F04EB914102D053689B0301D5154B10
:106FA00000E0134B5943016051680F2303EA1111AC
:106FB000114B5C5C0168E14041605468072505EABB
:106FC00014241C5D21FA04F48460546805EAD42476
:106FD0001B5DD940C1605268032303EA9232064B1D
:106FE0001B1F9A5CB1FBF2F1016130BD0010024041
:106FF00000127A0000093D00BC01002070B5002598
:107000000446212818D0312C16D0392C14D0412C0C
:1070100012D0612C10D07A2C0ED07B2C0CD07C2C72
:107020000AD07D2C08D07E2C06D07F2C04D040F2D4
:1070300034510BA006F0AAF96009184901280BD0B9
:1070400002280BD0486A04F01F0101228A40024244
:1070500000D00125284670BD0868F4E7086AF2E709
:107060004C69627261726965735C53544D33324688
:107070003130785F5374645065726970685F447230
:10708000697665725C7372635C73746D33326631FA
:1070900030785F7263632E630000000000100240CE
:1070A0000248406800F00C007047000000100240E9
:1070B00010B5040014D0802C12D0902C10D0A02C2D
:1070C0000ED0B02C0CD0C02C0AD0D02C08D0E02C84
:1070D00006D0F02C04D04FF4197105A006F056F933
:1070E0001249486820F0F0002043486010BD0000BD
:1070F0004C69627261726965735C53544D333246F8
:107100003130785F5374645065726970685F44729F
:10711000697665725C7372635C73746D3332663169
:1071200030785F7263632E6300000000001002403D
:1071300010B5040006D0012C04D040F2651103A064
:1071400006F024F91048046010BD00004C6962721A
:1071500061726965735C53544D3332463130785FE8
:107160005374645065726970685F447269766572C1
:107170005C7372635C73746D3332663130785F7246
:1071800063632E63000000000000424210B504005B
:1071900008D0012C06D0042C04D04FF4507109A063
:1071A00006F0F4F81648002180F8201080F820102E
:1071B000012C05D0042C02D1052180F8201010BD2F
:1071C0000121FAE74C69627261726965735C53541C
:1071D0004D3332463130785F537464506572697054
:1071E000685F4472697665725C7372635C73746D18
:1071F0003332663130785F7263632E6300000000C3
:107200000010024010B5040010D0B4F5806F0DD00E
:10721000B4F5A06F0AD0B4F5C06F07D0B4F5E06F35
:1072200004D040F27E2105A006F0B0F8124948686B
:1072300020F4E0602043486010BD00004C69627299
:1072400061726965735C53544D3332463130785FF7
:107250005374645065726970685F447269766572D0
:107260005C7372635C73746D3332663130785F7255
:1072700063632E63000000000010024010B504009C
:1072800010D0B4F5806F0DD0B4F5A06F0AD0B4F56E
:10729000C06F07D0B4F5E06F04D04FF4267105A09D
:1072A00006F074F81249486820F4605040EAC400BF
:1072B000486010BD4C69627261726965735C5354B9
:1072C0004D3332463130785F537464506572697063
:1072D000685F4472697665725C7372635C73746D27
:1072E0003332663130785F7263632E6300000000D2
:1072F0000010024010B5040006D0012C04D04FF459
:10730000CA7103A006F042F81048046610BD0000E0
:107310004C69627261726965735C53544D333246D5
:107320003130785F5374645065726970685F44727D
:10733000697665725C7372635C73746D3332663147
:1073400030785F7263632E630000000000004242E9
:1073500070B50C4605000AD0B5F5803F07D0B5F5ED
:10736000403F04D040F27F111DA006F00FF874B327
:10737000B4F5802F2BD0B4F5002F28D0B4F5402FD2
:1073800025D0B4F5801F22D0B4F5A01F1FD0B4F5CE
:10739000C01F1CD0B4F5E01F19D0B4F5001F16D0E3
:1073A000B4F5101F13D0B4F5201F10D0B4F5301F62
:1073B0000DD0B4F5401F0AD0B4F5501F07D0B4F576
:1073C000601F04D04FF4C07105A005F0DFFF134922
:1073D0004868254320F47C1005434D6070BD0000D3
:1073E0004C69627261726965735C53544D33324605
:1073F0003130785F5374645065726970685F4472AD
:10740000697665725C7372635C73746D3332663176
:1074100030785F7263632E6300000000001002404A
:1074200010B5040006D0012C04D04FF4607103A005
:1074300005F0ACFF1048046010BD00004C6962729A
:1074400061726965735C53544D3332463130785FF5
:107450005374645065726970685F447269766572CE
:107460005C7372635C73746D3332663130785F7253
:1074700063632E63000000003C04424210B50446E2
:10748000B0F5807F0AD0B4F5007F07D0B4F5407F17
:1074900004D040F2723104A005F078FF1148016A6F
:1074A0002143016210BD00004C696272617269651E
:1074B000735C53544D3332463130785F53746450AB
:1074C00065726970685F4472697665725C73726335
:1074D0005C73746D3332663130785F7263632E6330
:1074E000000000000010024010B5040008D0012C7C
:1074F00006D0022C04D04FF40E7105A005F046FF13
:107500001249486820F003002043486010BD000085
:107510004C69627261726965735C53544D333246D3
:107520003130785F5374645065726970685F44727B
:10753000697665725C7372635C73746D3332663145
:1075400030785F7263632E63000000000010024019
:1075500010B54FF4001401214FF0C050FFF7BEFBEF
:107560000120FFF751FBFCF78BFE0120FFF70EFE19
:107570004120FFF743FD98B1A4B14FF48070FFF7AD
:107580007DFF0120FFF74CFF00F078F800F06EF867
:1075900047F6FF7000F034F800F068F8002010BDE6
:1075A000641EE5D14FF0FF3010BD00000248018895
:1075B00041F0100101807047042800400248018812
:1075C00021F0100101807047042800400348008822
:1075D0000249091F098840EA014070471C28004001
:1075E00000B50246FFF7E2FF0449100C0880081DB1
:1075F00002805DF804EBFFF7E1BF000018280040AF
:1076000010B50446B0F5801F03D3A32107A005F0F1
:10761000BDFEFFF7CBFF1449C4F303400880081DEB
:107620000480BDE81040FFF7C9BF00004C696272DA
:1076300061726965735C53544D3332463130785F03
:107640005374645065726970685F447269766572DC
