:020000040800F2
:103000001088002045310008EF6300080F320008E7
:10301000ED6300089D440008759C00080000000056
:10302000000000000000000000000000AD7C00086F
:103030006D5400080000000097310008AF7C0008C4
:103040005F3100085F3100085F3100085F31000820
:103050005F3100085F3100085F3100085F31000810
:103060005F3100085F3100085F3100085F31000800
:103070005F3100085F3100085F3100085F310008F0
:103080005F3100085F3100085F3100080D9C0008C7
:10309000399C00085F3100085F3100085F3100088B
:1030A0005F3100085F3100085F3100085F310008C0
:1030B000117D0008457D00085F3100085F31000880
:1030C0005F3100085F3100085F3100085F310008A0
:1030D0005F31000899910008F99100085F310008FC
:1030E0005F3100085F3100085F3100085F31000880
:1030F0005F3100085F3100085F3100085F31000870
:103100005F3100085F3100087D7D00085F310008F5
:10311000ED9000084D9100085F3100085F31000814
:103120005F3100085F3100085F3100085F3100083F
:10313000DFF80CD000F0A8FC00480047194801084F
:10314000108800200648804706480047FEE7FEE753
:10315000FEE7FEE7FEE7FEE7FEE7FEE7FEE7FEE747
:10316000C17C000831310008EFF3108072B670475F
:1031700080F310887047314A1368012B04D04FF058
:10318000010313602E4A10602E4A11602E484FF042
:10319000805101607047EFF3108272B627480168D2
:1031A00091B14FF0000101602548016829B1EFF3AA
:1031B000098121E9F00F0068016022490968096866
:1031C000B1E8F00F81F3098882F310884EF0040E05
:1031D00070471C4908601A494FF000000860174901
:1031E0004FF00100086019484FF47F01D0F800202B
:1031F00041EA0201016014484FF080510160144817
:103200000068006880F3088862B6704700BF1EF04F
:10321000040F14BFEFF30880EFF3098020E9F00FEB
:1032200040F804ED80F3088880F3098800B514F0B5
:10323000E9FA5DF804EB4EF0040E7047E802002056
:10324000E0020020E402002004ED00E020ED00E0B8
:1032500008ED00E038B5D0E90221491E01EB41013B
:1032600002EBC1014268C1EB011102EB810102686E
:10327000C1EB011102EB8103D0E9042101EB410113
:1032800002EB8101A1F55271302491FBF4F2154D4E
:1032900004FB1211554303EBC51300931A2902DBFB
:1032A000114A1A4400920C2391FBF3F20F4C009D3B
:1032B000544303FB121105EBC4140D4B009408E0BA
:1032C000491E40F2A3245A5C6243009C04EBC212E4
:1032D00000920029F4DC0146684600F09FFA00984D
:1032E00038BD00003F0C0F008051010067C2030091
:1032F000B057020810B500F08BFABDE8104000F09E
:10330000CDBA40EA01039B0703D009E008C9121FA8
:1033100008C0042AFAD203E011F8013B00F8013B8F
:10332000521EF9D27047D2B201E000F8012B491EBB
:10333000FBD270470022F6E710B513460A46044652
:103340001946FFF7F0FF204610BD10B5044604E013
:103350000B7800F8013B03B1491C521EF8D22046FD
:1033600010BD421C10F8011B0029FBD1801A7047C8
:1033700010B5002200E0521C835C8C5CA34201D19A
:10338000002BF8D1D8B2E1B2401A10BD30B50546D5
:103390000020034600E05B1C934205D2EC5CC85C55
:1033A000201A01D1002CF6D130BD70B5064606F0CA
:1033B000EFFC046805460A220021304600F0CCFAF2
:1033C0002C6070BD2DE9FE4F804681EA0300C00FDE
:1033D0000C46009021F0004123F00045B8EB0200BC
:1033E000A94105D24046214690461C460B4602465E
:1033F00023F00040104304D14046214603B0BDE80D
:10340000F08F270DC7F30A00C3F30A510290401A48
:103410000190402866DAC3F3130040F4801B009843
:10342000924620B10023D2EB030A63EB0B0B019809
:103430005946C0F14002504600F0B9F906460D4623
:1034400050465946019A00F0D1F910EB080061414D
:10345000002487EA115284EAE7731A433BD0009AAA
:103460003AB3019A012A4FEA075210DC001B61EBC4
:1034700002014FF0004202EA0752CDE90042001C6F
:1034800041F5801132462B4600F0ABFAB6E7001B3F
:1034900061EB0201001C41F5801300185B4120180C
:1034A000A2F5001747EB030140EAD570B6196D414C
:1034B00011E06D084FEA360645EAC0754FEA07523B
:1034C000001B61EB0201001C41F5801149084FEA25
:1034D00030000019514132462B4603B0BDE8F04F91
:1034E00000F072BA0098012240000023D0EB0202E3
:1034F00063EBE073009821464FEAE074B8EB0000FC
:1035000061EB0401E9E783F000435BE781F00041F0
:1035100058E72DE9FE4F81EA030404F0004421F04E
:10352000004100944FF0000B23F0004350EA0104E7
:1035300002D052EA030404D10020014603B0BDE8E2
:10354000F08FC3F30A54C1F30A552C44A4F2F334A8
:103550000194A0FB0254C1F3130141F48011C3F3A1
:10356000130343F4801301FB024400FB034E840A5F
:10357000970A44EA815447EA8357A4FB07680295F7
:103580008D0A05FB07854FEA932C04FB0C54270595
:10359000029D4FEA065847EA1637B5EB08056EEB71
:1035A000070C870E920E47EA811742EA8312A7FBA7
:1035B0000201B6EB0B0164EB00042B0D43EA0C3364
:1035C0005E1844EB1C50DA465146E7FB0201C5F396
:1035D00013044FEA0B3343EA14534FEA0432019CBD
:1035E00043EA0603A4F10C040294009CCDE900B464
:1035F00000F0F7F9A2E72DE9F04D81EA030404F0A9
:10360000004B21F0004514464FF0000A23F0004122
:1036100050EA050220D054EA01021DD0C5F30A5732
:103620000246C5F31303C1F31300C1F30A5640F475
:10363000801543F48013A7EB0608101BD64608F24A
:10364000FD3873EB050002D308F1010801E0921880
:103650005B41B8F1000F03DA00200146BDE8F08DB0
:1036600000204FF48011064684460EE0171B73EBD2
:10367000050705D3121B63EB050306434CEA010C57
:1036800049084FEA300092185B4150EA0107EDD13A
:1036900052EA030012D082EA040083EA05010843DB
:1036A00003D100224FF0004308E0101BAB4102D2CF
:1036B0000122002302E06FF0010253101AEB060012
:1036C0004CEB085110EB0A0041EB0B01BDE8F04D4B
:1036D00000F07AB970B521F0004303430CD0C1F378
:1036E0000A550024D5EB040564EB0403D617AD1A84
:1036F000B34102DB0020014670BD201841EB0251AE
:1037000070BD0EB5C10F80EAE0700844CA07002101
:1037100040F233438DE80E000A460B4600F061F993
:1037200003B000BD0EB540F2334102910021CDE956
:1037300000110A460B4600F054F903B000BD70B505
:10374000C1F30A5201F000450024C1F3130140F215
:10375000FF3341F480119A4201DA002070BD40F23B
:1037600033439A42A2F2334203DC524200F02EF875
:1037700000E090402C43F1D0404270BDC1F30A52AA
:1037800010B5C1F3130140F2FF3341F480119A42A6
:1037900001DA002010BD40F233439A42A2F23342D4
:1037A00003DC524200F012F810BD904010BD202AF8
:1037B00004DB203A00FA02F1002070479140C2F188
:1037C000200320FA03F3194390407047202A04DBBA
:1037D000203A21FA02F00021704721FA02F3D0408A
:1037E000C2F120029140084319467047202A06DBA7
:1037F000CB17203A41FA02F043EAE07306E041FABF
:1038000002F3D040C2F120029140084319467047AC
:10381000014900F003B80000C883002030B50368F8
:103820003C22B3FBF2F002FB10330B60B0FBF2F36F
:1038300002FB130018244860B3FBF4F004FB1032C1
:103840008A60021D0723B2FBF3F403FB14228A6192
:10385000820002F66C3240F2B555B2FBF5F404F189
:1038600044000346486105FB14208008C8613B28DA
:1038700002D39A0700D0401C0022074C13460A616D
:10388000E25C824203D8801A5B1C0B61F8E7401CA3
:10389000C860084630BD0000BC570208F0B52A4A8F
:1038A0002A4C85B00021836903EB43030B44491C78
:1038B000E35C02F8013B0329F5DB244C4FF0200CBC
:1038C000002102F801CB1534036903EB43030B44D9
:1038D000491CE35C02F8013B0329F5DBC368009354
:1038E000836801934368029303680393406918A1B6
:1038F00000F26C706B460A27049016E002F8010B88
:1039000011F8010F08B1022500E0042510CB28466C
:1039100006E0264694FBF7F407FB1466303616548F
:10392000061EA0F10100F4DC2A4408780028E5D145
:10393000177050700448017A302901D180F808C00E
:1039400005B00148F0BD0000F4830020C85702080C
:1039500020203A3A200000002DE9F04791460F461A
:1039600080460446002614F8015B2DB100F09EF855
:103970000068405DC007F6D12B2D02D02D2D18D048
:10398000641E4A463946204600F094F827B139684B
:10399000A14201D1C7F8008071054FF002040BD598
:1039A0004042002803DD06F0F3F90460A007BDE8FB
:1039B000F08746F48066E4E70028F8DA06F0E8F9D4
:1039C00004606FF00040F2E710B5002B08DA401CED
:1039D00041F1000192185B411A4301D120F001002E
:1039E00010BD2DE9F04D92469B4611B1B1FA81F21E
:1039F00002E0B0FA80F220329046FFF7D8FE04468B
:103A00000F4640EA0A0041EA0B0153465A46084372
:103A100003D120463946BDE8F08D114653EA010036
:103A200015D0C8F140025046FFF7D0FE05460E46BD
:103A3000504659464246FFF7BAFE084301D00120DE
:103A400000E00020054346EAE0762C4337430A981D
:103A50004FEA4453A0EB08004FEAD4240A304FF059
:103A6000000244EA47544FEAD72502D50020014618
:103A7000D1E7010510196941DDE9084500196941DF
:103A8000BDE8F04DA0E70000064C074D06E0E068F9
:103A900040F0010394E8070098471034AC42F6D395
:103AA000FFF74AFBB45C0208D45C02080048704788
:103AB000845802082DE9F05F8246007800271546F9
:103AC0008B460AF10104B946302801D09DB113E0BC
:103AD00014F8010B0127782803D0582801D045B1EC
:103AE0000AE00DB1102D07D10027102514F8010BA5
:103AF00002E0082500E00A250026B0460EE005FB9E
:103B0000080005FB06F1012701EB10461FFA80F8BB
:103B1000B6F5803F00D3B94614F8010B294600F0F2
:103B200018F80028EBDABBF1000F05D00FB1641EC6
:103B300000E05446CBF80040B9F1000F06D006F083
:103B400027F902210160C81EBDE8F09F48EA06403F
:103B5000FAE73A2800D2303820F02002412A01D377
:103B6000A2F13700884201D34FF0FF30704770B5A3
:103B700001EB020410F8015B15F0070301D110F806
:103B8000013B2A1106D110F8012B03E010F8016B5C
:103B900001F8016B5B1EF9D12B0705D40023521EDF
:103BA0000FD401F8013BFAE710F8013B02F10202E1
:103BB000A1EB030303E013F8015B01F8015B521E64
:103BC000F9D5A142D6D3002070BD000070B50446DF
:103BD0000F480D4684420AD00E48844207D00E4852
:103BE000844204D04FF497710CA009F0D9FB55B171
:103BF000012D04D040F22F1108A009F0D1FBA068DC
:103C000040F0010002E0A06820F00100A06070BD5B
:103C10000024014000280140003C01404C696272D0
:103C200061726965735C53544D3332463130785F4D
:103C30005374645065726970685F44726976657226
:103C40005C7372635C73746D3332663130785F61BC
:103C500064632E630000000070B504460E480D46F4
:103C6000844207D00D48844204D040F247110CA092
:103C700009F096FB55B1012D04D04FF4A47108A0B2
:103C800009F08EFBA06840F4807002E0A06820F488
:103C90008070A06070BD000000240140003C014025
:103CA0004C69627261726965735C53544D3332467C
:103CB0003130785F5374645065726970685F447224
:103CC000697665725C7372635C73746D33326631EE
:103CD00030785F6164632E630000000070B50446B5
:103CE0000A48002584420AD00948844207D009487E
:103CF000844204D04FF4D97107A009F051FBA068A9
:103D0000400700D50125284670BD00000024014071
:103D100000280140003C01404C6962726172696593
:103D2000735C53544D3332463130785F5374645072
:103D300065726970685F4472697665725C737263FC
:103D40005C73746D3332663130785F6164632E6307
:103D50000000000070B504460A48002584420AD0DD
:103D60000948844207D00948844204D04FF4C67100
:103D700007A009F015FBA068000700D5012528461B
:103D800070BD00000024014000280140003C0140BB
:103D90004C69627261726965735C53544D3332468B
:103DA0003130785F5374645065726970685F447233
:103DB000697665725C7372635C73746D33326631FD
:103DC00030785F6164632E63000000002DE9F047E6
:103DD000054644480C46854209D04348854206D0F2
:103DE0004248854203D0DF2141A009F0D9FA4FF4BF
:103DF0000036206877004FF4C0284FF40029D0B176
:103E0000B0F5803F17D0B04215D0B0F5403F12D08A
:103E1000B84210D0B0F5A02F0DD040450BD0B0F572
:103E2000E02F08D0484506D0B0F5102F03D0E02190
:103E30002FA009F0B5FA207928B1012803D0E1219B
:103E40002BA009F0ADFA607928B1012803D0E22156
:103E500027A009F0A5FAA068A0B1B04212D0B842DC
:103E600010D040450ED048450CD0B0F5202F09D0D9
:103E7000B0F5402F06D0B0F5602F03D0E3211CA091
:103E800009F08EFAE06830B1B0F5006F03D0E4219C
:103E900017A009F085FA207C401E0F2803D9E521E0
:103EA00013A009F07DFA686820492279084021684A
:103EB00040EA022001436960A8681D490840D4E92E
:103EC00002211143627940EA42000143A960E86A95
:103ED000217C20F47000491EC9B240EA0150E8621A
:103EE000BDE8F0870024014000280140003C01406B
:103EF0004C69627261726965735C53544D3332462A
:103F00003130785F5374645065726970685F4472D1
:103F1000697665725C7372635C73746D333266319B
:103F200030785F6164632E6300000000FFFEF0FFE5
:103F3000FDF7F1FF2DE9F041054648481E461746BA
:103F40000C4685420AD04648854207D045488542FE
:103F500004D040F2522144A009F022FA34B3012CDB
:103F600024D0022C22D0032C20D0042C1ED0052CCF
:103F70001CD0062C1AD0072C18D0082C16D0092CCF
:103F800014D00A2C12D00B2C10D00C2C0ED00D2CCF
:103F90000CD00E2C0AD00F2C08D0102C06D0112CCF
:103FA00004D040F2532130A009F0FAF9A7F101083A
:103FB000B8F10F0F04D94FF415712BA009F0F0F9E7
:103FC00096B1012E10D0022E0ED0032E0CD0042E4E
:103FD0000AD0052E08D0062E06D0072E04D040F2B7
:103FE000552121A009F0DCF90722092C0AD9E9683A
:103FF000A4F10A0000EB4000824091438640314327
:10400000E96007E0296904EB44008240914386405F
:10401000314329611F21072F09D26A6B08EB880001
:1040200081408A43844022436A63BDE8F0810D2FBA
:1040300009D22A6BFF1F07EB870081408A43844027
:1040400022432A63F1E7EA6A0D3F07EB87008140CC
:104050008A4384402243EA62E7E7000000240140EB
:1040600000280140003C01404C6962726172696540
:10407000735C53544D3332463130785F537464501F
:1040800065726970685F4472697665725C737263A9
:104090005C73746D3332663130785F6164632E63B4
:1040A0000000000010B50446094884420AD00948BF
:1040B000844207D00848844204D04FF4BF7107A05F
:1040C00009F06EF9A06840F00800A06010BD000083
:1040D0000024014000280140003C01404C6962720C
:1040E00061726965735C53544D3332463130785F89
:1040F0005374645065726970685F44726976657262
:104100005C7372635C73746D3332663130785F61F7
:1041100064632E630000000070B504460F480D462E
:1041200084420AD00E48844207D00E48844204D00C
:104130004FF4E6710CA009F033F955B1012D04D00C
:1041400040F2CD1108A009F02BF9A06840F4A000BE
:1041500002E0A06820F4A000A06070BD002401402F
:1041600000280140003C01404C696272617269653F
:10417000735C53544D3332463130785F537464501E
:1041800065726970685F4472697665725C737263A8
:104190005C73746D3332663130785F6164632E63B3
:1041A0000000000010B50446094884420AD00948BE
:1041B000844207D00848844204D04FF4D27107A04B
:1041C00009F0EEF8A06840F00400A06010BD000007
:1041D0000024014000280140003C01404C6962720B
:1041E00061726965735C53544D3332463130785F88
:1041F0005374645065726970685F44726976657261
:104200005C7372635C73746D3332663130785F61F6
:1042100064632E630000000010B5094C50B1012802
:1042200004D040F2924107A009F0BAF8206840F4A7
:10423000000002E0206820F40000206010BD0000B3
:10424000082401404C69627261726965735C535461
:104250004D3332463130785F537464506572697003
:10426000685F4472697665725C7372635C73746DC7
:104270003332663130785F6164632E630000000082
:1042800010B5012002F022FEBDE81040002002F02F
:104290001DBE000038B5044600200090042C55D007
:1042A000082C53D00C2C51D0102C4FD0142C4DD0A6
:1042B000182C4BD01C2C49D0202C47D0242C45D076
:1042C000282C43D0402C41D0442C3FD0482C3DD00A
:1042D0004C2C3BD0502C39D0542C37D0582C35D0C6
:1042E0005C2C33D0602C31D0642C2FD0682C2DD096
:1042F0006C2C2BD0702C29D0742C27D0782C25D066
:104300007C2C23D0802C21D0842C1FD0882C1DD035
:104310008C2C1BD0902C19D0942C17D0982C15D005
:104320009C2C13D0A02C11D0A42C0FD0A82C0DD0D5
:10433000AC2C0BD0B02C09D0B42C07D0B82C05D0A5
:10434000BC2C03D0F62104A009F02AF8114820441F
:104350000090008838BD00004C6962726172696526
:10436000735C53544D3332463130785F537464502C
:1043700065726970685F4472697665725C737263B6
:104380005C73746D3332663130785F626B702E63AC
:1043900000000000006C004038B5044600200D46C7
:1043A0000090042C55D0082C53D00C2C51D0102C3C
:1043B0004FD0142C4DD0182C4BD01C2C49D0202C75
:1043C00047D0242C45D0282C43D0402C41D0442C1D
:1043D0003FD0482C3DD04C2C3BD0502C39D0542CC5
:1043E00037D0582C35D05C2C33D0602C31D0642C95
:1043F0002FD0682C2DD06C2C2BD0702C29D0742C65
:1044000027D0782C25D07C2C23D0802C21D0842C34
:104410001FD0882C1DD08C2C1BD0902C19D0942C04
:1044200017D0982C15D09C2C13D0A02C11D0A42CD4
:104430000FD0A82C0DD0AC2C0BD0B02C09D0B42CA4
:1044400007D0B82C05D0BC2C03D0E32103A008F082
:10445000A7FF114820440090056038BD4C69627286
:1044600061726965735C53544D3332463130785F05
:104470005374645065726970685F447269766572DE
:104480005C7372635C73746D3332663130785F6273
:104490006B702E6300000000006C0040FEE700001F
:1044A0002DE9F05F044634480D46844207D0334876
:1044B000844204D040F21D5131A008F071FF4FF446
:1044C000807677004FF480684FF400694FF4004A1B
:1044D0004FF4803B012D1BD0042D19D0082D17D08F
:1044E000202D15D0402D13D0B54211D0BD420FD094
:1044F00045450DD04D450BD0554509D05D4507D0FC
:10450000B5F5003F04D040F21E511DA008F048FF51
:10451000042008211022BD421AD010DC202D25D005
:1045200008DC012D1DD0042D1ED0082D00D1E26025
:10453000BDE8F09F402D1BD0B542F9D108E0002323
:10454000554504D006DC454502D04D45F0D1A36168
:104550006060EDE75D450DD0B5F5003FE8D16260E4
:10456000E6E71648A060E3E7E160E1E72161DFE705
:104570002261DDE76160DBE7006400400068004025
:104580004C69627261726965735C53544D33324693
:104590003130785F5374645065726970685F44723B
:1045A000697665725C7372635C73746D3332663105
:1045B00030785F63616E2E6300000000010101002E
:1045C00070B50E4D0446A84206D00D48844203D073
:1045D0007D210CA008F0E4FEAC424FF0010101D1B6
:1045E0004C0601E04FF08064204602F0B5FB204607
:1045F000BDE87040002102F0AFBB00000064004045
:10460000006800404C69627261726965735C535462
:104610004D3332463130785F53746450657269703F
:10462000685F4472697665725C7372635C73746D03
:104630003332663130785F63616E2E6300000000B4
:104640002DE9F0410446807A0D2804D94FF4947185
:1046500042A008F0A5FEE07A30B1012804D040F273
:1046600029113EA008F09CFE207B30B1012804D027
:104670004FF4957139A008F093FE208930B10128DC
:1046800004D040F22B1135A008F08AFE607B30B1D7
:10469000012804D04FF4967130A008F081FEA17A71
:1046A0003D4B01208840196841F0010119603A4DE5
:1046B0001C352968814329603749374E227B0C31EC
:1046C0004036371DA2B90A6882430A606288B4F88E
:1046D00006C042EA0C4294F80AC046F83C20228800
:1046E000B4F804C042EA0C4294F80AC047F83C20EF
:1046F000227B012A0ED10A6802430A602168A27A4D
:104700004FEA314146F832106168A27A4FEA3141EE
:1047100047F832102049E27A091D002A0A6806D0BB
:1047200002430A601C492289143112B104E0824319
:10473000F7E70A6882430A602289012A02D10A68DF
:1047400002430A60617B012902D129680143296083
:10475000186820F001001860BDE8F0814C696272B1
:1047600061726965735C53544D3332463130785F02
:104770005374645065726970685F447269766572DB
:104780005C7372635C73746D3332663130785F636F
:10479000616E2E63000000000066004070B50546A3
:1047A0002D4800260C46854207D02C48854204D06F
:1047B0004FF483612AA008F0F3FD3848844233D0D7
:1047C0003748844230D0801E84422DD0401E84421F
:1047D0002AD0A4F14450083826D0A4F1485010380B
:1047E00022D0083020D0A4F19050C01E1CD0A4F1DB
:1047F0005050103818D0083016D0A4F1A050C01E68
:1048000012D0284884420FD0274884420CD0264832
:10481000FF38844208D0A4F14450123804D040F24A
:1048200019410FA008F0BCFD14F4700F01D0A86965
:104830000CE0E00101D5686808E0200101D5A86816
:1048400004E0A00101D5E86800E0286920400003E9
:1048500000D00126304670BD006400400068004072
:104860004C69627261726965735C53544D333246B0
:104870003130785F5374645065726970685F447258
:10488000697665725C7372635C73746D3332663122
:1048900030785F63616E2E63000000007000F030BE
:1048A0000400F010000001380001003870B5054622
:1048B000214816460C46854207D02048854204D040
:1048C00040F2EE311EA008F06BFD012C25D0022C29
:1048D00023D0042C21D0082C1FD0102C1DD0202C2C
:1048E0001BD0402C19D0B4F5807F16D0B4F5007FD2
:1048F00013D0B4F5806F10D0B4F5006F0DD0B4F5BF
:10490000004F0AD0B4F5803F07D0B4F5003F04D083
:1049100040F2EF310AA008F043FD4EB1012E04D061
:104920004FF47C7106A008F03BFD6869204301E06C
:104930006869A043686170BD006400400068004081
:104940004C69627261726965735C53544D333246CF
:104950003130785F5374645065726970685F447277
:10496000697665725C7372635C73746D3332663141
:1049700030785F63616E2E630000000070B50446FE
:104980006E4800260D46844206D06D48844203D00E
:104990009F216CA008F004FDA87928B1012803D05C
:1049A000A02168A008F0FCFCE87928B1012803D018
:1049B000A12164A008F0F4FC287A28B1012803D0D2
:1049C000A22160A008F0ECFC687A28B1012803D08D
:1049D000A3215CA008F0E4FCA87A28B1012803D048
:1049E000A42158A008F0DCFCE87A28B1012803D003
:1049F000A52154A008F0D4FCA87848B1012807D01C
:104A0000022805D0032803D0A6214EA008F0C8FC38
:104A1000E87848B1012807D0022805D0032803D040
:104A2000A72148A008F0BCFC28790F2803D9A821A9
:104A300044A008F0B5FC6879072803D9A92141A052
:104A400008F0AEFC2888401EB0F5806F03D3AA2181
:104A50003CA008F0A5FC206820F00200206020683F
:104A600040F0010020604FF6FF7100E0761C6068A6
:104A7000C00701D18E42F9D16068C0075AD0A87929
:104A8000012820683AD020F080002060E8790128D1
:104A9000206836D020F040002060287A0128206865
:104AA00032D020F020002060687A012820682ED0C3
:104AB00020F010002060A87A012820682AD020F079
:104AC00008002060E87A0128206826D020F0040041
:104AD0002060A878EA78800740EA02602A7940EAF4
:104AE00002406A7940EA02502A88521E1043E0616F
:104AF000206820F001002060002012E040F08000DB
:104B0000C3E740F04000C7E740F02000CBE740F0AB
:104B10001000CFE740F00800D3E740F00400D7E7EB
:104B2000401C6268D20701D08842F9D16068C00792
:104B300001D0002070BD012070BD00000064004065
:104B4000006800404C69627261726965735C53541D
:104B50004D3332463130785F5374645065726970FA
:104B6000685F4472697665725C7372635C73746DBE
:104B70003332663130785F63616E2E63000000006F
:104B800070B504460E4800250E46844207D00D48F5
:104B9000844204D040F2EB210BA008F001FC3EB1AE
:104BA000012E07D04FF43B7107A008F0F9FB04E099
:104BB000E06800E0206900F00305284670BD0000B1
:104BC00000640040006800404C696272617269656F
:104BD000735C53544D3332463130785F53746450B4
:104BE00065726970685F4472697665725C7372633E
:104BF0005C73746D3332663130785F63616E2E633F
:104C00000000000070B50546284814460E4685424F
:104C100007D02748854204D040F2A22125A008F001
:104C2000BFFB36B1012E04D040F2A32121A008F031
:104C3000B7FB05EB0612D2F8B00110F004002072A9
:104C4000D2F8B0012AD0C008606002F5D8721068AE
:104C500000F002006072506800F00F00A07250680F
:104C6000000AE0749068E0729068000A207390680F
:104C7000000C60739068000EA073D068E073D06879
:104C8000000A2074D068000C6074D068000EA07414
:104C90003EB1286940F02000286170BD400D2060C1
:104CA000D3E7E86840F02000E86070BD0064004091
:104CB000006800404C69627261726965735C5354AC
:104CC0004D3332463130785F537464506572697089
:104CD000685F4472697665725C7372635C73746D4D
:104CE0003332663130785F63616E2E6300000000FE
:104CF00000218171C171017241728172C172817032
:104D0000C1700321017102214171012101807047AD
:104D100070B50546414800260C46854207D04048FC
:104D2000854204D040F207213EA008F039FB207AEA
:104D300030B1042804D04FF402713AA008F030FBDF
:104D4000607A30B1022804D040F2092135A008F081
:104D500027FBA07A082804D940F20A2131A008F0E4
:104D60001FFBA868400108D4A868000101D50126EE
:104D700003E0A868C0003DD5022605EB0615D5F86E
:104D8000800100F00100C5F88001207A88B36068D6
:104D9000B0F1005F04D340F22A2122A008F000FB0A
:104DA000D5F88001217A62680843617A41EAC2013C
:104DB0000843C5F88001A07A05F5C07500F00F0022
:104DC000A072686820F00F0068606868A17A0843E4
:104DD0006860E07AE16840EA0120A860E07B216930
:104DE00040EA0120E860286840F001002860304671
:104DF00070BD01E00426FAE72068B0F5006F04D327
:104E00004FF4097107A008F0CBFAD5F88001617A58
:104E10000843218840EA4150CBE70000006400408D
:104E2000006800404C69627261726965735C53543A
:104E30004D3332463130785F537464506572697017
:104E4000685F4472697665725C7372635C73746DDB
:104E50003332663130785F63616E2E63000000008C
:104E60000121402001F0FCBE10B50446000F02D025
:104E70000848044200D124B940F20E2106A008F0EF
:104E80008FFAE00002D51348046010BD1248446058
:104E900010BD00000000F0EF4C696272617269653C
:104EA000735C53544D3332463130785F53746450E1
:104EB00065726970685F4472697665725C7372636B
:104EC0005C73746D3332663130785F646D612E636C
:104ED00000000000040402400000024070B50446D7
:104EE00022480D4684422FD02048143084422BD0D3
:104EF0001E482830844227D01C483C30844223D0AE
:104F00001A48503084421FD01848643084421BD065
:104F100016487830844217D01548844214D014487B
:104F20001430844210D01248283084420CD01048EB
:104F30003C30844208D00E485030844204D040F2C5
:104F400029110CA008F02CFA55B1012D04D04FF412
:104F5000957108A008F024FA206840F0010003E0F1
:104F600020684FF6FE710840206070BD08000240C6
:104F7000080402404C69627261726965735C535443
:104F80004D3332463130785F5374645065726970C6
:104F9000685F4472697665725C7372635C73746D8A
:104FA0003332663130785F646D612E63000000003B
:104FB0002DE9F05F4D4E4D4F4C4DDFF83081DFF85D
:104FC0002C91DFF828A1DFF824B1143628370446E5
:104FD00008F13C0809F150090AF1640A0BF1780B59
:104FE000A84222D0B44220D0BC421ED044451CD09E
:104FF0004C451AD0544518D05C4516D03C488442E4
:1050000013D03B48143084420FD0394828308442B2
:105010000BD037483C30844207D03548503084426A
:1050200003D06F2133A008F0BBF920684FF6FE7162
:1050300008402060002020606060A060E0602B4895
:105040000838AC4203D1416841F00F0104E0B4429A
:1050500005D1416841F0F0014160BDE8F09FBC42DC
:1050600003D1416841F47061F6E7444503D14168DA
:1050700041F47041F0E74C4503D1416841F470219F
:10508000EAE7544503D1416841F47001E4E75C4527
:1050900003D1416841F07061DEE71549081F8C4279
:1050A00003D1016841F00F0106E0114914318C422F
:1050B00004D1016841F0F0010160CEE70C492831CC
:1050C0008C4203D1016841F47061F5E708493C3135
:1050D0008C4203D1016841F47041EDE7044950313D
:1050E0008C42BAD1016841F47021E5E70800024022
:1050F000080402404C69627261726965735C5354C2
:105100004D3332463130785F537464506572697044
:10511000685F4472697665725C7372635C73746D08
:105120003332663130785F646D612E6300000000B9
:1051300070B50025044601287ED0022C7CD0042CBA
:105140007AD0082C78D0102C76D0202C7FD0402C10
:105150007DD0802C7BD0B4F5807F78D0B4F5007FF3
:1051600075D0B4F5806F72D0B4F5006F6FD0B4F520
:10517000805F6CD0B4F5005F69D0B4F5804F66D025
:10518000B4F5004F63D0B4F5803F60D0B4F5003F74
:105190005DD0B4F5802F5AD0B4F5002F57D0B4F5B8
:1051A000801F54D0B4F5001F51D0B4F5800F4ED0FD
:1051B000B4F5000F4BD0B4F1807F48D0B4F1007F3C
:1051C00045D0B4F1806F42D0B4F1006F3FD0254894
:1051D00084423CD0A4F18050801E38D0801E36D04E
:1051E000001F34D0083832D0103830D020382ED0BC
:1051F00040382CD01B48FF30844228D01A488442C3
:1052000025D01A48844222D0194884421FD0B4F1D4
:10521000102F1CD04FEAF030844218D01548844239
:1052200015D01548844212D0144884420FD0144837
:1052300084420CD0134800E009E0844207D01248B1
:10524000844204D040F2B71110A008F0A9F8E000A1
:1052500001D51D4800E01D480068204200D001250E
:10526000284670BD0100001000020010000400106C
:105270000008001000400010008000100000011025
:105280000000021000000410000008104C69627257
:1052900061726965735C53544D3332463130785FC7
:1052A0005374645065726970685F447269766572A0
:1052B0005C7372635C73746D3332663130785F6433
:1052C0006D612E63000000000004024000000240F7
:1052D00070B5054654480C4685422ED052481430CD
:1052E00085422AD050482830854226D04E483C304E
:1052F000854222D04C48503085421ED04A48643006
:1053000085421AD048487830854216D047488542B1
:1053100013D04648143085420FD044482830854287
:105320000BD042483C30854207D04048503085423F
:1053300003D0CF213EA008F033F8A068102804D095
:1053400018B1D0213AA008F02BF8E0684FF6FF71B1
:10535000401E884203D3D12135A008F021F82069EE
:10536000402804D018B1D22131A008F019F86069A2
:10537000802804D018B1D3212DA008F011F8A0691D
:1053800048B1B0F5807F06D0B0F5007F03D0D421BE
:1053900027A008F005F8E06948B1B0F5806F06D0A5
:1053A000B0F5006F03D0D52121A007F0F9FF206AE6
:1053B000202804D018B1D6211DA007F0F1FF606AA3
:1053C000B0F5405F0AD0B0F5005F07D0B0F5805F60
:1053D00004D018B1D72116A007F0E2FFA06AB0F5FB
:1053E000804F04D018B1D82111A007F0D9FF296847
:1053F00047F6F0708143226AA0681043D4E9042381
:105400001A431043A2691043E2691043626A1043D1
:10541000A26A104308432860E06868602068A860BA
:105420006068E86070BD00000800024008040240A7
:105430004C69627261726965735C53544D333246D4
:105440003130785F5374645065726970685F44727C
:10545000697665725C7372635C73746D3332663146
:1054600030785F646D612E6300000000704772B693
:10547000704762B67047000010B5044630F0350042
:1054800000D124B940F2B65102A007F089FF1048BC
:10549000C46010BD4C69627261726965735C53547B
:1054A0004D3332463130785F5374645065726970A1
:1054B000685F4472697665725C7372635C73746D65
:1054C0003332663130785F666C6173682E6300003A
:1054D0000020024070B505461149A0F100608842E5
:1054E00004D340F2A7110FA007F05AFF4FF4302663
:1054F000304600F019F9042811D1194C206940F008
:10550000020020616561206940F040002061304662
:1055100000F00AF9216941F6FD721140216170BD68
:10552000FFFF0F004C69627261726965735C5354CE
:105530004D3332463130785F537464506572697010
:10554000685F4472697665725C7372635C73746DD4
:105550003332663130785F666C6173682E630000A9
:105560000020024008490420CA68D20701D0012067
:105570007047CA68520701D502207047C968C9063A
:10558000FBD503207047000000200240024801695B
:1055900041F08001016170470020024010B50446CF
:1055A000102805D024B140F22F1106A007F0F8FE14
:1055B0001348016821F01001016001682143016076
:1055C00010BD00004C69627261726965735C53546E
:1055D0004D3332463130785F537464506572697070
:1055E000685F4472697665725C7372635C73746D34
:1055F0003332663130785F666C6173682E63000009
:10560000002002402DE9F84304460E460020009099
:105610001449A4F10060884204D340F2AF2112A0E3
:1056200007F0BEFE4FF40057384600F07DF804281E
:1056300016D11C4D286940F0010028612680B8462B
:10564000384600F071F8BF1E042806D1A41C300CA7
:1056500000942080404600F067F8296939402961AC
:10566000BDE8F883FFFF0F004C69627261726965E3
:10567000735C53544D3332463130785F5374645009
:1056800065726970685F4472697665725C73726393
:105690005C73746D3332663130785F666C61736849
:1056A0002E6300000020024010B5040008D0012C39
:1056B00006D0022C04D040F2031105A007F070FEC2
:1056C0001249086800F038002043086010BD00004F
:1056D0004C69627261726965735C53544D33324632
:1056E0003130785F5374645065726970685F4472DA
:1056F000697665725C7372635C73746D33326631A4
:1057000030785F666C6173682E6300000020024091
:1057100003480249416003494160704723016745DE
:1057200000200240AB89EFCD00B50346FFF71AFF1A
:1057300002E0FFF717FF5B1E012803D0002B00D10A
:10574000052000BD002BF4D1FAE700002DE9F0415F
:105750000446454800260D46844215D043488442FD
:1057600012D0434884420FD0424884420CD0424871
:10577000844209D04148844206D04148844203D043
:10578000B22140A007F00CFEE87888B104280FD0C1
:1057900028280DD048280BD0142809D0102807D06D
:1057A0001C2805D0182803D0B32136A007F0F8FD37
:1057B000288818B9B42133A007F0F2FDE87800F08A
:1057C0000F07C0060CD5A878012807D0022805D0FD
:1057D000032803D0BB212BA007F0E2FDA8780743E4
:1057E00028784FF00F0C4FF0010ED8B121682A88AD
:1057F0000EFA06F00240824210D1B2000CFA02F317
:1058000021EA030307FA02F1EA781943282A02D0B1
:10581000482A02D002E0606100E02061761C082E78
:10582000E5D321602888FF281CD96168002000F199
:1058300008030EFA03F22B88134093420ED1830023
:105840000CFA03F6B14307FA03F6EB783143282B41
:1058500000D16261EB78482B00D12261401C0828FE
:10586000E5D36160BDE8F08100080140000C014013
:10587000001001400014014000180140001C0140CC
:10588000002001404C69627261726965735C535417
:105890004D3332463130785F5374645065726970AD
:1058A000685F4472697665725C7372635C73746D71
:1058B0003332663130785F6770696F2E63000000A5
:1058C0002DE9F0410D46044601287DD0022C7BD005
:1058D000042C79D0082C77D0A4F5A01010387CD0F7
:1058E00020387AD0A4F5B010403876D0803874D003
:1058F0005248844271D0524884426ED0514884420A
:105900006BD05148844268D05048844265D0B4F589
:10591000805F62D0B4F5EA1F5FD0B4F5EB1F5CD0B6
:10592000B4F5004F59D04A48844256D0A4F500102F
:10593000801E52D0801E50D0001F4ED008384CD050
:10594000B4F1201F49D0303847D04248844244D077
:105950004148844241D0414884423ED0404884423C
:105960003BD04048844238D0B4F5011F35D03E4882
:10597000844232D0401C84422FD0801C84422CD0E0
:10598000001D844229D038480F30844225D0364843
:105990001F30844221D034483F3084421DD03248E9
:1059A0007F30844219D03048FF30844215D02F48D0
:1059B000844212D02E4884420FD02E4884420CD00C
:1059C0002D48844209D000E007E02C48844204D0EE
:1059D00040F22A212AA007F0E3FC35B1012D04D0C2
:1059E00040F22B2126A007F0DBFC3449002C01DA21
:1059F000CA6900E04A68630D1E01A3B2C4F30157EF
:105A0000B340C4F30340032F05D0E6020AD50326B2
:105A10008640B24307E022F070604A6822F070626C
:105A20004A6002E09A4342F0706005B11843002CCE
:105A300002DAC861BDE8F0814860FBE700011800A8
:105A4000000218000003180000081A00000C1A00D9
:105A5000010020000001300000023000000430008E
:105A600000112000002020000100008000020080C2
:105A700000040080000800800010008000200080EA
:105A80004C69627261726965735C53544D3332467E
:105A90003130785F5374645065726970685F447226
:105AA000697665725C7372635C73746D33326631F0
:105AB00030785F6770696F2E63000000000001405E
:105AC00070B50546274800260C46854216D0264864
:105AD000854213D02548854210D0254885420DD0F7
:105AE000244885420AD02448854207D0234885426D
:105AF00004D04FF48F7122A007F052FC012C2AD061
:105B0000022C28D0042C26D0082C24D0102C22D0F3
:105B1000202C20D0402C1ED0802C1CD0B4F5807FAF
:105B200019D0B4F5007F16D0B4F5806F13D0B4F55A
:105B3000006F10D0B4F5805F0DD0B4F5005F0AD0CF
:105B4000B4F5804F07D0B4F5004F04D040F21F11D8
:105B50000BA007F025FCA868204200D001263046A3
:105B600070BD000000080140000C01400010014021
:105B70000014014000180140001C014000200140B9
:105B80004C69627261726965735C53544D3332467D
:105B90003130785F5374645065726970685F447225
:105BA000697665725C7372635C73746D33326631EF
:105BB00030785F6770696F2E6300000070B504462F
:105BC00011480D46844216D01048844213D0104824
:105BD000844210D00F4884420DD00F4884420AD02E
:105BE0000E48844207D00E48844204D040F2791116
:105BF0000CA007F0D5FB25B94FF4BD7109A007F043
:105C0000CFFB656170BD000000080140000C014041
:105C1000001001400014014000180140001C014028
:105C2000002001404C69627261726965735C535473
:105C30004D3332463130785F537464506572697009
:105C4000685F4472697665725C7372635C73746DCD
:105C50003332663130785F6770696F2E6300000001
:105C600070B5044611480D46844216D0104884424F
:105C700013D01048844210D00F4884420DD00F48F2
:105C800084420AD00E48844207D00E48844204D091
:105C900040F269110CA007F083FB25B94FF4B571F0
:105CA00009A007F07DFB256170BD000000080140E0
:105CB000000C014000100140001401400018014098
:105CC000001C0140002001404C69627261726965EC
:105CD000735C53544D3332463130785F53746450A3
:105CE00065726970685F4472697665725C7372632D
:105CF0005C73746D3332663130785F6770696F2E14
:105D00006300000070B505462A4816460C468542D9
:105D100016D02948854213D02848854210D02848FB
:105D200085420DD0274885420AD02748854207D0B2
:105D30002648854204D040F28D1125A007F030FBA3
:105D4000012C2AD0022C28D0042C26D0082C24D0B8
:105D5000102C22D0202C20D0402C1ED0802C1CD0E7
:105D6000B4F5807F19D0B4F5007F16D0B4F5806FFC
:105D700013D0B4F5006F10D0B4F5805F0DD0B4F53A
:105D8000005F0AD0B4F5804F07D0B4F5004F04D0BF
:105D90004FF4C7710EA007F003FB46B1012E04D0EB
:105DA00040F28F110AA007F0FBFA2C6170BD6C6104
:105DB00070BD000000080140000C014000100140CF
:105DC0000014014000180140001C01400020014067
:105DD0004C69627261726965735C53544D3332462B
:105DE0003130785F5374645065726970685F4472D3
:105DF000697665725C7372635C73746D333266319D
:105E000030785F6770696F2E6300000010B501F095
:105E10008BF8012001F08CF9212001F0EFF8002827
:105E2000FAD01020FFF7BAFB0220FFF73DFC00205C
:105E300001F03EF9002001F021FA002001F0E2F922
:105E40004FF46011002001F083FA012001F052FAB2
:105E5000392001F0D3F80028FAD0022001F044FBE9
:105E600001F01EF90828FBD110BD00002DE9F0411A
:105E70000B4C0E46074615463221206812F044FCB2
:105E800010B10220BDE8F0812A463146384600F0C4
:105E900009F80546206812F06FFB2846F2E700007B
:105EA000A00100202DE9F041DFF8B4800C46054642
:105EB0004FF40047164639464046FFF77FFE00F094
:105EC000C7F9AE2000F01EF9B0B1200A00F01AF9AF
:105ED000D0B1E0B200F016F900281DD000F0B8F9FA
:105EE000AF2000F00FF90028394640461CD0FFF7DC
:105EF000B7FE0024761E28E039464046FFF7B0FE84
:105F000000F0BDF917A014E039464046FFF7A8FE9F
:105F100000F0B5F91DA00CE039464046FFF7A0FEA1
:105F200000F0ADF923A004E0FFF79AFE00F0A7F916
:105F30002AA011F025FF0120BDE8F081012000F02A
:105F400029F9641C05F8010BA4B2B442F6DB002069
:105F500000F020F9287000F092F90020ECE7000032
:105F6000001801400A204949434253503A2049321F
:105F7000435F45455F4275665265616420534C41FD
:105F800056455F414444520A000000000A20494936
:105F9000434253503A204932435F45455F4275665C
:105FA0005265616420414444522068696768203822
:105FB0000A0000000A204949434253503A2049321E
:105FC000435F45455F4275665265616420414444C4
:105FD00052204C4F572020380A0000000A2049491F
:105FE000434253503A204932435F45455F4275660C
:105FF0005265616420534C4156455F4144445220F0
:10600000203132330A0000002DE9F0410B4C0E46DE
:10601000074615463221206812F076FB10B10220A7
:10602000BDE8F0812A463146384600F009F80546B9
:10603000206812F0A1FA2846F2E70000A001002033
:106040002DE9F041074601F03F00C0F1400415463C
:106050000E46A24200D8ECB22246384603F00CFEAF
:10606000002837D1281B05042D0C05D030191FFA44
:1060700080F82744AE091DE0052013F0E3FD2CE075
:106080000A2440224146384603F0F6FD38B1641E2A
:10609000E4B2012013F0D6FD002CF2D100E014B9D7
:1060A0000FA011F06DFE403D08F14000ADB21FFAA7
:1060B00080F840373000A6F10106B6B2E0D10520E5
:1060C00013F0C0FD4DB1EAB24146384603F0D4FDAD
:1060D0000028D1D00120BDE8F0810020FBE70000BE
:1060E0000A204949434253503A204932435F4545CB
:1060F0005F42756657726974652020455252200AC6
:106100000000000070B5044601F0D6FA002000F04F
:1061100087F80025E00900F08FF86006040E0220E1
:1061200009F0F0F9012000F07BF8022009F0EAF90B
:10613000002000F075F8022009F0E4F96D1CEDB2C2
:10614000082DE7D3002401F0A5FA012000F074F82F
:10615000022009F0D7F9012000F062F8022009F0CE
:10616000D1F94FF400650A4E07E0641CE4B2FA2C42
:1061700003D900F084F8002070BD29463046FFF7AF
:106180009FFC0028F1D100F04BF8012070BD000009
:10619000000C01402DE9F0410646002401F07AFA96
:1061A000DFF8788000254FF40067002000F038F811
:1061B000022009F0A7F9012000F032F86006040E71
:1061C00039464046FFF77CFC08B1641CE4B202206B
:1061D00009F098F96D1CEDB2082DE6D34FF00000E0
:1061E000AEB100F01DF801F067FA002000F024F8CD
:1061F000022009F087F9012000F012F8022009F0CE
:1062000081F9002000F00CF82046BDE8F08100F094
:1062100007F801F051FA0120E8E70000000C014006
:10622000044A01284FF48061104601D0FFF7C6BC34
:10623000FFF716BD000C0140044A01284FF400612D
:10624000104601D0FFF7BABCFFF70ABD000C0140B1
:1062500010B501F031FA0120FFF7EEFF0120FFF742
:10626000DFFF022009F04EF90020FFF7E5FF0220D2
:1062700009F048F9BDE810400020FFF7D1BF10B584
:1062800001F01AFA0020FFF7CBFF0020FFF7D4FF40
:10629000022009F037F90120FFF7C2FF0120FFF7C4
:1062A000CBFFBDE81040022009F02CB902494CF6A2
:1062B000CC400860704700000030004002494AF6B8
:1062C000AA200860704700000030004010B50400AC
:1062D0000FD0012C0DD0022C0BD0032C09D0042C94
:1062E00007D0052C05D0062C03D0732102A007F09F
:1062F00057F81048446010BD4C696272617269655C
:10630000735C53544D3332463130785F537464506C
:1063100065726970685F4472697665725C737263F6
:106320005C73746D3332663130785F697764672EE1
:10633000630000000030004010B50446B0F5805FF7
:1063400003D3802102A007F02BF81048846010BD11
:106350004C69627261726965735C53544D333246A5
:106360003130785F5374645065726970685F44724D
:10637000697665725C7372635C73746D3332663117
:1063800030785F697764672E63000000003000405A
:1063900010B50446A0F5AA40553804D01CB15F21C1
:1063A00002A006F0FDFF1048046010BD4C69627247
:1063B00061726965735C53544D3332463130785F96
:1063C0005374645065726970685F4472697665726F
:1063D0005C7372635C73746D3332663130785F69FD
:1063E0007764672E6300000000300040FEE77047CE
:1063F00010B54FF440514FF0006000F09FF8BDE839
:1064000010404FF4A06000F063B8000070B504467F
:10641000C0780F2528B1012803D075211EA006F0F1
:10642000BFFF6078102803D376211BA006F0B8FFC9
:10643000A078102803D3772117A006F0B1FFE078E9
:1064400001224FF0E023E0B11F48006800F4E06053
:10645000C0F5E060000AC0F10401C54060788840E2
:10646000A1782940014308012178184D485520782A
:1064700000F01F018A40400903EB8000C0F80021B2
:1064800070BD207800F01F018A40400903EB8000B6
:10649000C0F8802170BD00004C696272617269654C
:1064A000735C53544D3332463130785F53746450CB
:1064B00065726970685F4472697665725C73726355
:1064C0005C6D6973632E63000CED00E000E400E096
:1064D00010B50446B0F5E06F0FD0B4F5C06F0CD026
:1064E000B4F5A06F09D0B4F5806F06D0B4F5407F45
:1064F00003D0632103A006F053FF0E4804430E4867
:10650000046010BD4C69627261726965735C5354BA
:106510004D3332463130785F537464506572697020
:10652000685F4472697665725C7372635C6D6973EF
:10653000632E63000000FA050CED00E070B50D4617
:106540000446B0F1005F06D0B4F1006F03D09F2184
:1065500007A006F025FF1248854203D3A02104A01E
:1065600006F01EFF0F4805400F482543056070BD2B
:106570004C69627261726965735C53544D33324683
:106580003130785F5374645065726970685F44722B
:10659000697665725C7372635C6D6973632E630008
:1065A000FFFF0F0080FFFF1F08ED00E0BFF34F8FDC
:1065B00004480168044A01F4E06111430160BFF33B
:1065C0004F8FFEE70CED00E00400FA05044908686F
:1065D00010F8082D03791A4400F8042B086070475E
:1065E0005C030020044908680838D0E900231A44F5
:1065F00004C00860704700005C030020044908687C
:1066000030F8082D83881A4420F8042B086070475E
:106610005C0300200449086810F8082D03791A402B
:1066200000F8042B086070475C03002004490868E8
:106630000838D0E900231A4004C008607047000001
:106640005C0300200449086830F8082D83881A404C
:1066500020F8042B086070475C03002003480068A2
:1066600010F8041DC9430170704700005C0300204E
:106670000348006850F8041DC943016070470000DA
:106680005C0300200348006830F8041DC943018002
:10669000704700005C03002070B5634A9CB0634DF6
:1066A00010680CAB10F8011B10602A680020121F44
:1066B0002A6007E00E1A03EB8606121F46F8044C08
:1066C000401C2A6014688842F4D3112975D2DFE88F
:1066D00001F0090B0E12161A20283038424E5A6665
:1066E00075859500002000E00C98A04797E0DDE953
:1066F0000C01A04793E00CAB07CBA0478FE00CAE9A
:106700000FCEA0478BE010980CAE00900FCEA047A4
:1067100085E0DDE910010CAECDE900010FCEA04708
:106720007DE010AB0CAE07CB8DE807000FCEA04785
:1067300075E010AE0FCE8DE80F000CAE0FCEA04767
:106740006DE011AE0FCE01AE0FC610980CAE0090EA
:106750000FCEA04763E012AE0FCE02AE0FC6DDE94A
:1067600010010CAECDE900010FCEA04757E013AEEB
:106770000FCE03AE0FC610AB0CAE07CB8DE80700F3
:106780000FCEA0474BE014AE0FCE04AE0FC610AE36
:106790000FCE8DE80F000CAE0FCEA0473FE015AE38
:1067A0000FCE05AE0FC611AE0FCE01AE0FC61098BC
:1067B0000CAE00900FCEA04731E02FE016AE0FCE0A
:1067C00006AE0FC612AE0FCE02AE0FC6DDE9100147
:1067D0000CAECDE900010FCEA04720E017AE0FCEE2
:1067E00007AE0FC613AE0FCE03AE0FC610AB0CAE86
:1067F00007CB8DE807000FCEA04710E018AE0FCEF4
:1068000008AE0FC614AE0FCE04AE0FC610AE0FCE3C
:106810008DE80F000CAE0FCEA04700E000202968E5
:1068200001C129601CB070BD600300205C03002022
:106830000549086810F8082D0379B2FBF3F200F857
:10684000042B0860704700005C03002004490868BE
:106850000838D0E9002392FBF3F204C008607047C7
:106860005C0300200549086830F9082DB0F90430B0
:1068700092FBF3F220F8042B086070475C030020C1
:106880000549064A08680378106800F8043B106060
:106890000868401C08607047600300205C0300200B
:1068A00006490868C278036862F31F63044A1068E7
:1068B00008C010600868001D086070476003002071
:1068C0005C03002007490868C278006862F31F6013
:1068D000054A0378106800F8043B10600868001D42
:1068E00008607047600300205C03002003480068D4
:1068F00050F8041D09780170704700005C03002007
:1069000007490868C278006862F31F60054A036897
:10691000106808C010600868001D0860704700001B
:10692000600300205C0300200348006850F8041D49
:1069300009680160704700005C030020074908688F
:10694000C278006862F31F60054A0388106820F867
:10695000043B10600868001D086070476003002059
:106960005C0300200348006850F8041D098801807A
:10697000704700005C0300200549064A0868038848
:10698000106820F8043B10600868801C086070479D
:10699000600300205C030020064B10B5186810F857
:1069A000081D0279B1FBF2F402FB141100F8041B7C
:1069B000186010BD5C030020064B10B5186808383D
:1069C000D0E9001291FBF2F402FB141102C018602E
:1069D00010BD00005C030020074B10B5186830F9AB
:1069E000081DB0F9042091FBF2F402FB141120F809
:1069F000041B186010BD00005C03002004490868F7
:106A000010F8082D03795A4300F8042B08607047EA
:106A10005C030020044908680838D0E900235A4381
:106A200004C00860704700005C0300200449086847
:106A300030F8082D83885A4320F8042B08607047EB
:106A40005C030020704700000449086810F8082D16
:106A500003791A4300F8042B086070475C03002098
:106A6000044908680838D0E900231A4304C00860C4
:106A7000704700005C0300200449086830F8082DC6
:106A800083881A4320F8042B086070475C030020B9
:106A900002480168091F0160704700005C03002084
:106AA0000449086810F8082D03799A4000F8042B6F
:106AB000086070475C0300200449086850F8082DFE
:106AC00003799A4004C00860704700005C0300200E
:106AD0000449086830F8082D03799A4020F8042BFF
:106AE000086070475C0300200449086810F8082D0E
:106AF0000379DA4000F8042B086070475C0300203B
:106B00000449086850F8082D03791A4104C0086048
:106B1000704700005C0300200449086830F9082D24
:106B200003791A4120F8042B086070475C030020A9
:106B30000449086808380279006802700868001F74
:106B4000086070475C03002004490868083805C8DD
:106B500002600868001F0860704700005C030020A6
:106B60000449086808388288006802800868001FA5
:106B7000086070475C0300200449086810F8082D7D
:106B80000379D21A00F8042B086070475C030020D8
:106B9000044908680838D0E90023D21A04C0086004
:106BA000704700005C0300200449086830F8082D95
:106BB0008388D21A20F8042B086070475C030020F9
:106BC0000449086810F8082D03795A4000F8042B8E
:106BD000086070475C030020044908680838D0E961
:106BE00000235A4004C00860704700005C03002086
:106BF0000449086830F8082D83885A4020F8042B8F
:106C0000086070475C03002010B5040005D0012C1B
:106C100003D07F2102A006F0C3FB1048046210BD20
:106C20004C69627261726965735C53544D333246CC
:106C30003130785F5374645065726970685F447274
:106C4000697665725C7372635C73746D333266313E
:106C500030785F7077722E630000000000000E42F3
:106C600070B5044640F257500D4634EA000000D19A
:106C700024B940F22B4109A006F092FB164E4DB10B
:106C8000012D04D040F22C4104A006F089FB70696C
:106C9000204301E07069A043706170BD4C6962726D
:106CA00061726965735C53544D3332463130785F9D
:106CB0005374645065726970685F44726976657276
:106CC0005C7372635C73746D3332663130785F72FB
:106CD00063632E63000000000010024070B504469C
:106CE0000C480D46044200D124B940F269410AA083
:106CF00006F056FB174E4DB1012D04D040F26A410B
:106D000005A006F04DFBF069204301E0F069A043C7
:106D1000F06170BD003601814C6962726172696513
:106D2000735C53544D3332463130785F5374645042
:106D300065726970685F4472697665725C737263CC
:106D40005C73746D3332663130785F7263632E63C7
:106D5000000000000010024070B504460C480D46CB
:106D6000044200D124B940F2C3410AA006F018FB46
:106D7000174E4DB1012D04D040F2C44105A006F0DC
:106D80000FFB3069204301E03069A043306170BDE2
:106D9000003601814C69627261726965735C53549B
:106DA0004D3332463130785F537464506572697088
:106DB000685F4472697665725C7372635C73746D4C
:106DC0003332663130785F7263632E6300000000F7
:106DD0000010024070B504460C480D46044200D134
:106DE00024B940F24A410AA006F0DAFA174E4DB132
:106DF000012D04D040F24B4105A006F0D1FAB06954
:106E0000204301E0B069A043B06170BD0200C0FF43
:106E10004C69627261726965735C53544D333246DA
:106E20003130785F5374645065726970685F447282
:106E3000697665725C7372635C73746D333266314C
:106E400030785F7263632E63000000000010024020
:106E500070B504460C480D46044200D124B940F2F6
:106E6000A4410AA006F09CFA174E4DB1012D04D0A2
:106E700040F2A54105A006F093FAF068204301E036
:106E8000F068A043F06070BD0200C0FF4C69627200
:106E900061726965735C53544D3332463130785FAB
:106EA0005374645065726970685F44726976657284
:106EB0005C7372635C73746D3332663130785F7209
:106EC00063632E63000000000010024010B5040050
:106ED00006D0012C04D04FF49B6103A006F060FAA9
:106EE0001048046010BD00004C69627261726965EF
:106EF000735C53544D3332463130785F5374645071
:106F000065726970685F4472697665725C737263FA
:106F10005C73746D3332663130785F7263632E63F5
:106F200000000000400442420C48016841F00101A9
:106F3000016041680A4A114041600168094A1140F4
:106F40000160016821F480210160416821F4FE01A3
:106F500041604FF41F018160704700000010024043
:106F60000000FFF8FFFFF6FE30B5204A5168204BC5
:106F700011F00C0103D0042901D0082901D00360CD
:106F800012E05168536801F470114FF0020413F4D9
:106F9000803F04EB914102D053689B0301D5154B10
:106FA00000E0134B5943016051680F2303EA1111AC
:106FB000114B5C5C0168E14041605468072505EABB
:106FC00014241C5D21FA04F48460546805EAD42476
:106FD0001B5DD940C1605268032303EA9232064B1D
:106FE0001B1F9A5CB1FBF2F1016130BD0010024041
:106FF00000127A0000093D00BC01002070B5002598
:107000000446212818D0312C16D0392C14D0412C0C
:1070100012D0612C10D07A2C0ED07B2C0CD07C2C72
:107020000AD07D2C08D07E2C06D07F2C04D040F2D4
:1070300034510BA006F0B4F96009184901280BD0AF
:1070400002280BD0486A04F01F0101228A40024244
:1070500000D00125284670BD0868F4E7086AF2E709
:107060004C69627261726965735C53544D33324688
:107070003130785F5374645065726970685F447230
:10708000697665725C7372635C73746D33326631FA
:1070900030785F7263632E630000000000100240CE
:1070A0000248406800F00C007047000000100240E9
:1070B00010B5040014D0802C12D0902C10D0A02C2D
:1070C0000ED0B02C0CD0C02C0AD0D02C08D0E02C84
:1070D00006D0F02C04D04FF4197105A006F060F929
:1070E0001249486820F0F0002043486010BD0000BD
:1070F0004C69627261726965735C53544D333246F8
:107100003130785F5374645065726970685F44729F
:10711000697665725C7372635C73746D3332663169
:1071200030785F7263632E6300000000001002403D
:1071300010B5040006D0012C04D040F2651103A064
:1071400006F02EF91048046010BD00004C69627210
:1071500061726965735C53544D3332463130785FE8
:107160005374645065726970685F447269766572C1
:107170005C7372635C73746D3332663130785F7246
:1071800063632E63000000000000424210B504005B
:1071900008D0012C06D0042C04D04FF4507109A063
:1071A00006F0FEF81648002180F8201080F8201024
:1071B000012C05D0042C02D1052180F8201010BD2F
:1071C0000121FAE74C69627261726965735C53541C
:1071D0004D3332463130785F537464506572697054
:1071E000685F4472697665725C7372635C73746D18
:1071F0003332663130785F7263632E6300000000C3
:107200000010024010B5040010D0B4F5806F0DD00E
:10721000B4F5A06F0AD0B4F5C06F07D0B4F5E06F35
:1072200004D040F27E2105A006F0BAF81249486861
:1072300020F4E0602043486010BD00004C69627299
:1072400061726965735C53544D3332463130785FF7
:107250005374645065726970685F447269766572D0
:107260005C7372635C73746D3332663130785F7255
:1072700063632E63000000000010024010B504009C
:1072800010D0B4F5806F0DD0B4F5A06F0AD0B4F56E
:10729000C06F07D0B4F5E06F04D04FF4267105A09D
:1072A00006F07EF81249486820F4605040EAC400B5
:1072B000486010BD4C69627261726965735C5354B9
:1072C0004D3332463130785F537464506572697063
:1072D000685F4472697665725C7372635C73746D27
:1072E0003332663130785F7263632E6300000000D2
:1072F0000010024010B5040006D0012C04D04FF459
:10730000CA7103A006F04CF81048046610BD0000D6
:107310004C69627261726965735C53544D333246D5
:107320003130785F5374645065726970685F44727D
:10733000697665725C7372635C73746D3332663147
:1073400030785F7263632E630000000000004242E9
:1073500070B50C4605000AD0B5F5803F07D0B5F5ED
:10736000403F04D040F27F111DA006F019F874B31D
:10737000B4F5802F2BD0B4F5002F28D0B4F5402FD2
:1073800025D0B4F5801F22D0B4F5A01F1FD0B4F5CE
:10739000C01F1CD0B4F5E01F19D0B4F5001F16D0E3
:1073A000B4F5101F13D0B4F5201F10D0B4F5301F62
:1073B0000DD0B4F5401F0AD0B4F5501F07D0B4F576
:1073C000601F04D04FF4C07105A005F0E9FF134918
:1073D0004868254320F47C1005434D6070BD0000D3
:1073E0004C69627261726965735C53544D33324605
:1073F0003130785F5374645065726970685F4472AD
:10740000697665725C7372635C73746D3332663176
:1074100030785F7263632E6300000000001002404A
:1074200010B5040006D0012C04D04FF4607103A005
:1074300005F0B6FF1048046010BD00004C69627290
:1074400061726965735C53544D3332463130785FF5
:107450005374645065726970685F447269766572CE
:107460005C7372635C73746D3332663130785F7253
:1074700063632E63000000003C04424210B50446E2
:10748000B0F5807F0AD0B4F5007F07D0B4F5407F17
:1074900004D040F2723104A005F082FF1148016A65
:1074A0002143016210BD00004C696272617269651E
:1074B000735C53544D3332463130785F53746450AB
:1074C00065726970685F4472697665725C73726335
:1074D0005C73746D3332663130785F7263632E6330
:1074E000000000000010024010B5040008D0012C7C
:1074F00006D0022C04D04FF40E7105A005F050FF09
:107500001249486820F003002043486010BD000085
:107510004C69627261726965735C53544D333246D3
:107520003130785F5374645065726970685F44727B
:10753000697665725C7372635C73746D3332663145
:1075400030785F7263632E63000000000010024019
:1075500010B54FF4001401214FF0C050FFF7BEFBEF
:107560000120FFF751FBFCF78BFE0120FFF70EFE19
:107570004120FFF743FD98B1A4B14FF48070FFF7AD
:107580007DFF0120FFF74CFF00F078F800F06EF867
:1075900047F6FF7000F034F800F068F8002010BDE6
:1075A000641EE5D14FF0FF3010BD00000248018895
:1075B00041F0100101807047042800400248018812
:1075C00021F0100101807047042800400348008822
:1075D0000249091F098840EA014070471C28004001
:1075E00000B50246FFF7E2FF0449100C0880081DB1
:1075F00002805DF804EBFFF7E1BF000018280040AF
:1076000010B50446B0F5801F03D3A32107A005F0F1
:10761000C7FEFFF7CBFF1449C4F303400880081DE1
:107620000480BDE81040FFF7C9BF00004C696272DA
:1076300061726965735C53544D3332463130785F03
:107640005374645065726970685F447269766572DC
:107650005C7372635C73746D3332663130785F7261
:1076600074632E630000000008280040024801886F
:107670008906FCD5704700000428004004480188B2
:1076800021F00801018001880907FCD5704700003E
:107690000428004008B54FF40060ADF80000032056
:1076A0008DF8020004208DF8030069460148FEF7BA
:1076B0004DF808BD000C014008B54FF40060ADF86E
:1076C000000003208DF8020010208DF803006946A9
:1076D0000148FEF73BF808BD000C01402DE9F041E0
:1076E00004460F46216D001D0A0E62F30706090CC1
:1076F00061F30F26B0F84C1090F84C00090A61F3C2
:10770000174660F31F66E06CE16C000E60F307083B
:10771000E06CC908000C60F30F28B4F84C00002599
:10772000000A60F3174894F84C0060F31F6894F85F
:10773000500041EA407202F03F008021383875F174
:10774000000002F03F002044017323D202F03F0307
:10775000C3F1370CBCF1000F15DD0021C2F1370079
:1077600010F0010002D019194D73012184450ADD82
:107770005A182244491C55735A182244491C801C2B
:1077800055738445F4DCC4E9116804F10C0104F17B
:1077900054003DE03F2090431FD00021C2F13F0044
:1077A00010F0010004D002F03F0121444D7301218B
:1077B00002F03F02C2F13F0383420EDD02EB010CF7
:1077C000A444491C8CF80D5002EB010CA444491C44
:1077D000801C8CF80D508342F0DC04F10C0104F1A4
:1077E000540000F03FF8E56025616561A561E56141
:1077F00025626562A562E56225636563A563C4F8D9
:107800004880E563C4E9105604F10C0104F154000A
:1078100000F028F85FF0000004EB8001496D09BA20
:1078200047F82010401C0828F6DBE56025616561FB
:10783000A561E56125626562A562E5622563656310
:10784000A563E56325646564A5646565A565E5656F
:1078500025666566A566E5662567E5642565BDE878
:10786000F08100002DE9F04FC1B0002240920A687B
:10787000E84612BA00924A6812BA01928A6812BAAD
:107880000292CA6812BA03920A6912BA04924A6949
:1078900012BA05928A6912BA0692CA6912BA079296
:1078A0000A6A12BA08924A6A12BA09928A6A12BA23
:1078B0000A92CA6A12BA0B920A6B12BA0C924A6BFB
:1078C00012BA0D928A6B12BA0E92C96B102209BAC3
:1078D000CDF83C1008EB820151F8083C51F8405CAF
:1078E0004FEA734C8CEAF34C8CEA932C51F83C3CF5
:1078F0004FEAF31484EAB34484EAD304A44451F86D
:107900001C4C2C44A44448F822C051F804CC921CCE
:107910004FEA7C4484EAFC4484EA9C2451F838CC45
:10792000402A4FEAFC1585EABC4585EADC0CA444F4
:1079300051F8184C234463444B60CBDB90E8261489
:10794000DFF86C91D0E905340127C669C9F80870E1
:10795000D9F80870D9F80070409717F1010B554F0E
:107960000AD1DDF800B1C9F800B0D9F80090CDF81F
:107970000091B9F1000F20D0016881EA0706066086
:10798000016981EA070AC0F810A0D0F81CB0D0F84D
:107990001890D0F80CC04769836844688BEA0A01E4
:1079A00089EA0C0287EA03058AEA040A8CEA060CD3
:1079B00083EA0B0384EA09047E40DFF8FCE0002739
:1079C0004FEABC1883EA040988EAFC2809EA0C0992
:1079D00088EA7C6889EA0409C8445EF8279041EA8D
:1079E000020B4E44B0445DF8276001EA0209B0443E
:1079F0004FEAB10686EA71360BEA050B86EAB15604
:107A000049EA0B0906EB090B1E46A1460AEB0803DF
:107A100064464FEAB31C84EA060A8CEAF32C0AEAAD
:107A2000030A8CEA736C8AEA060AD4440EEB870ACE
:107A3000D844DAF804A048EA010BD144E144EC460A
:107A40000CEB870C08EA010ADCF804C00BEA020B15
:107A5000E1444FEAB80C8CEA783C8CEAB85C4AEA1C
:107A60000B0A0CEB0A0B05EB090C92460D46BF1CEA
:107A7000424609EB0B01402FA2DB07683944016045
:107A8000416841444160816829448160C168514432
:107A9000C1600169614401614169194441618169C1
:107AA00021448161C1693144C16141B0BDE8F08FB9
:107AB00000300240F0F0A5A5605402082DE9F04125
:107AC0000F46C16C04461646C1F3C50001EBC60162
:107AD000E164B1EBC60F216D3CBF491C216501EB90
:107AE0005671216581193F2998BF00252BD9C0F116
:107AF000400520440C302A463946FBF702FC04F1CD
:107B00000C0104F15400FFF7ADFE05F13F00B04257
:107B100018D2791911F0030F04D004F15400FFF7C3
:107B2000A1FE0AE0402204F10C00FBF7EAFB04F19D
:107B30000C0104F15400FFF795FE284640357F30D4
:107B4000B042E6D30020721B79192044BDE8F04111
:107B50000C30FBF7D6BB002818BF002901D0002A43
:107B600002DA40F6A3707047037913F0040F1CBFCC
:107B700040F6A170704710B5FFF7A0FF002010BDC0
:107B8000002819BF0029002A40F6A37070472DE98C
:107B9000F0410446806888B0401E90460F46202879
:107BA00022BF40F6A27008B0BDE8F0812079694696
:107BB00040F0040020712046FFF790FDA26869465E
:107BC000501E002817DD481E7B1E12F0010F03D146
:107BD00010F8012F03F8012FA2684578521E5FEAC2
:107BE000620C08D010F8026F5D70457803F8026FE0
:107BF000BCF1010CF6D1A068401E0028A4BF095CAE
:107C00003954A068C8F8000008B00020BDE8F08131
:107C1000002804BF40F6A3707047017921F00601E7
:107C200001710A4941650A4981650A49C1650A49E4
:107C300001660A4941660A4981660A49C1660A49DC
:107C400001670021C16401650846704767E6096A5B
:107C500085AE67BB72F36E3C3AF54FA57F520E516D
:107C60008C68059BABD9831F19CDE05BF0B59DB047
:107C70001C4615460E460746FDF7F2F820200290F6
:107C800000208DF804006846FFF7C2FF00280BD1E2
:107C9000324639466846FFF75EFF002804D1224687
:107CA00029466846FFF76CFF1DB0F0BD704710B560
:107CB00010F014F812F022FBBDE8104010F022B8CA
:107CC0000F4810B5016841F00101016041680D4A9B
:107CD0001140416001680C4A11400160016821F4C3
:107CE00080210160416821F4FE0141604FF41F01D1
:107CF0008160FEF78BF805494FF00060086010BD09
:107D0000001002400000FFF8FFFFF6FE08ED00E063
:107D100010B50FF0E3FF01218C07204600F0BCFAFC
:107D200050B10121204600F0D1F80121204600F099
:107D300053F9034800688047BDE810400FF0E2BFE8
:107D40006804002010B50FF0C9FF0A4C012120463D
:107D500000F0A2FA50B10121204600F0B7F801214D
:107D6000204600F039F9044800688047BDE810401B
:107D70000FF0C8BF00040040A003002010B50FF0B2
:107D8000ADFF0B4C0121204600F086FA58B10121CD
:107D9000204600F09BF80121204600F01DF905491E
:107DA000012081F80802BDE810400FF0ABBF0000D1
:107DB000000C0040AA7F002070B5044624480D4600
:107DC000844234D0B4F1804F31D0224884422ED046
:107DD000214884422BD02148844228D02048844224
:107DE00025D02048844222D01F4884421FD01F48FB
:107DF00084421CD01E48844219D01E48844216D0AA
:107E00001D48844213D01D48844210D01C4884422F
:107E10000DD01C4884420AD01B48844207D01B481E
:107E2000844204D040F2845119A005F0B9FA55B14A
:107E3000012D04D040F2855115A005F0B1FA20883B
:107E400040F0800002E0208820F08000208070BD9B
:107E5000002C01400004004000080040000C0040DD
:107E6000001000400014004000340140004C01406C
:107E7000005001400054014000180040001C004028
:107E80000020004000400140004401400048014003
:107E90004C69627261726965735C53544D3332464A
:107EA0003130785F5374645065726970685F4472F2
:107EB000697665725C7372635C73746D33326631BC
:107EC00030785F74696D2E630000000070B5044661
:107ED00022480D46844234D0B4F1804F31D020483E
:107EE00084422ED01F4884422BD01F48844228D081
:107EF0001E48844225D01E48844222D01D48844218
:107F00001FD01D4884421CD01C48844219D01C48F4
:107F1000844216D01B48844213D01B48844210D0A0
:107F20001A4884420DD01A4884420AD01948844223
:107F300007D01948844204D040F62B2117A005F041
:107F40002FFA15F4614F00D125B940F62C2113A06A
:107F500005F026FAE843208270BD0000002C0140A5
:107F60000004004000080040000C004000100040E9
:107F70000014004000340140004C0140005001401A
:107F80000054014000180040001C00400020004048
:107F90000040014000440140004801404C696272C9
:107FA00061726965735C53544D3332463130785F8A
:107FB0005374645065726970685F44726976657263
:107FC0005C7372635C73746D3332663130785F74E6
:107FD000696D2E630000000070B5044621480D460F
:107FE000844234D0B4F1804F31D01F4884422ED027
:107FF0001E4884422BD01E48844228D01D4884420B
:1080000025D01D48844222D01C4884421FD01C48E1
:1080100084421CD01B48844219D01B48844216D08D
:108020001A48844213D01A48844210D01948844216
:108030000DD0194884420AD01848844207D0184805
:10804000844204D040F6772116A005F0A9F9280A49
:1080500000D125B940F6782112A005F0A1F9E84336
:10806000208270BD002C0140000400400008004048
:10807000000C00400010004000140040003401409B
:10808000004C0140005001400054014000180040E5
:10809000001C00400020004000400140004401401E
:1080A000004801404C69627261726965735C5354A7
:1080B0004D3332463130785F537464506572697065
:1080C000685F4472697665725C7372635C73746D29
:1080D0003332663130785F74696D2E6300000000C2
:1080E00070B5044624480D46844234D0B4F1804F24
:1080F00031D0224884422ED0214884422BD02148BE
:10810000844228D02048844225D02048844222D06E
:108110001F4884421FD01F4884421CD01E488442FE
:1081200019D01E48844216D01D48844213D01D48E1
:10813000844210D01C4884420DD01C4884420AD08E
:108140001B48844207D01B48844204D040F22931A6
:1081500019A005F025F955B1012D04D040F22A31BE
:1081600015A005F01DF9208840F0010002E02088EC
:1081700020F00100208070BD002C01400004004070
:1081800000080040000C00400010004000140040B7
:1081900000340140004C01400050014000540140B7
:1081A00000180040001C004000200040004001403A
:1081B00000440140004801404C6962726172696587
:1081C000735C53544D3332463130785F537464508E
:1081D00065726970685F4472697665725C73726318
:1081E0005C73746D3332663130785F74696D2E6301
:1081F0000000000070B5044613480D46844210D0BC
:10820000124884420DD0124884420AD01148844258
:1082100007D01148844204D040F242310FA005F04B
:10822000BFF85DB1012D04D040F243310BA005F041
:10823000B7F834F8440F40F4004003E034F8440F3A
:10824000C0F30E00208070BD002C014000340140BE
:108250000040014000440140004801404C69627206
:1082600061726965735C53544D3332463130785FC7
:108270005374645065726970685F447269766572A0
:108280005C7372635C73746D3332663130785F7423
:10829000696D2E630000000070B504462C4800266E
:1082A0000D46844234D0B4F1804F31D02948844205
:1082B0002ED0294884422BD02848844228D02848F0
:1082C000844225D02748844222D0274884421FD0A8
:1082D000264884421CD02648844219D0254884422E
:1082E00016D02548844213D02448844210D0244814
:1082F00084420DD0234884420AD02348844207D0C8
:108300002248844204D040F64D2121A005F048F8CF
:10831000012D12D0022D10D0042D0ED0082D0CD01E
:10832000102D0AD0202D08D0402D06D0802D04D04D
:1083300040F64E2116A005F033F8218AA089294283
:1083400000EA050001D000B10126304670BD0000F2
:10835000002C01400004004000080040000C0040D8
:10836000001000400014004000340140004C014067
:10837000005001400054014000180040001C004023
:1083800000200040004001400044014000480140FE
:108390004C69627261726965735C53544D33324645
:1083A0003130785F5374645065726970685F4472ED
:1083B000697665725C7372635C73746D33326631B7
:1083C00030785F74696D2E630000000070B504465C
:1083D000284816460D46844234D0B4F1804F31D03F
:1083E000254884422ED0254884422BD024488442FC
:1083F00028D02448844225D02348844222D02348D0
:1084000084421FD0224884421CD02248844219D082
:108410002148844216D02148844213D02048844207
:1084200010D0204884420DD01F4884420AD01F48F3
:10843000844207D01E48844204D040F26B311DA014
:1084400004F0AEFF280A00D125B94FF45B7119A0E2
:1084500004F0A6FF4EB1012E04D040F26D3115A0FC
:1084600004F09EFFA089284301E0A089A843A081D1
:1084700070BD0000002C01400004004000080040D6
:10848000000C004000100040001400400034014087
:10849000004C0140005001400054014000180040D1
:1084A000001C00400020004000400140004401400A
:1084B000004801404C69627261726965735C535493
:1084C0004D3332463130785F537464506572697051
:1084D000685F4472697665725C7372635C73746D15
:1084E0003332663130785F74696D2E6300000000AE
:1084F0002DE9F05FDFF86491DFF864A1DFF864B183
:108500000D46044648452CD0B4F1804F29D056483A
:10851000844226D05548844223D05548844220D0F6
:1085200054451ED0534884421BD05348844218D02F
:108530005248844215D05248844212D05148844255
:108540000FD0514884420CD05C450AD04F48844239
:1085500007D04F48844204D04FF48E714DA004F0F0
:108560001FFF288870B110280CD020280AD030288E
:1085700008D0602806D0702804D040F21D1145A014
:1085800004F00EFF688830B1012804D04FF48F71D9
:1085900040A004F005FF288930B1022804D040F241
:1085A0001F113CA004F0FCFE208C20F00100208470
:1085B000218CA788208B2A8820F0730042EA0008CB
:1085C000288921F002016E88084306434C4509D0F2
:1085D000544507D05C4505D02C48844202D02C4835
:1085E000844233D1A88830B1042804D04FF49E715E
:1085F00028A004F0D5FE688930B1082804D040F2E4
:108600003D1124A004F0CCFEE889B0F5007F05D030
:1086100020B14FF49F711FA004F0C2FEA889B0F5ED
:10862000807F05D020B140F23F111AA004F0B8FEBF
:1086300026F008016889AE88084320F0040006434C
:1086400027F44071A889EF8908430743A780A4F85D
:108650001880E888A0862684BDE8F09F002C0140A1
:108660000034014000400140000400400008004088
:10867000000C0040004C01400050014000540140FB
:1086800000180040001C0040002000400044014051
:10869000004801404C69627261726965735C5354B1
:1086A0004D3332463130785F53746450657269706F
:1086B000685F4472697665725C7372635C73746D33
:1086C0003332663130785F74696D2E6300000000CC
:1086D00070B5044620480D4684422ED0B4F1804F38
:1086E0002BD01E48844228D01D48844225D01D48E6
:1086F000844222D01C4884421FD01C4884421CD093
:108700001B48844219D01B48844216D01A48844220
:1087100013D01A48844210D0194884420DD0194809
:1087200084420AD01848844207D01848844204D0B2
:1087300040F2E95116A004F033FE082D05D025B112
:1087400040F2EA5112A004F02BFE208B20F008002A
:108750002843208370BD0000002C0140000400402D
:1087600000080040000C004000340140004C014073
:10877000005001400054014000180040001C00401F
:1087800000200040004001400044014000480140FA
:108790004C69627261726965735C53544D33324641
:1087A0003130785F5374645065726970685F4472E9
:1087B000697665725C7372635C73746D33326631B3
:1087C00030785F74696D2E63000000002DE9F05F62
:1087D000DFF850A1DFF850B10D46044650451BD0DC
:1087E000B4F1804F18D05148844215D0504884428B
:1087F00012D0504884420FD05C450DD04E48844280
:108800000AD04E48844207D04D48844204D040F2FA
:108810006F114CA004F0C4FD288870B110280CD052
:1088200020280AD0302808D0602806D0702804D02C
:108830004FF4B87143A004F0B3FD688830B101284B
:1088400004D040F271113FA004F0AAFD288930B194
:10885000022804D04FF4B9713AA004F0A1FD208C95
:1088600020F010002084228CA788208B2B884FF6C4
:10887000FF7920F4E64109EA032343EA0108298944
:1088800022F0200209EA011111436A8809EA02165E
:108890000E43544501D05C453BD1A88830B1042833
:1088A00004D040F28F1127A004F07AFD688930B11E
:1088B000082804D04FF4C87122A004F071FDE889A3
:1088C000B0F5007F05D020B140F291111DA004F059
:1088D00067FDA889B0F5807F05D020B14FF4C9713C
:1088E00018A004F05DFD698926F0800209EA0111F3
:1088F0001143AA8821F0400109EA02160E43A98912
:1089000027F4406209EA81011143EA8909EA8207F2
:108910000F43A780A4F81880E88820872684BDE844
:10892000F09F0000002C0140003401400004004092
:1089300000080040000C0040004C014000180040BE
:10894000004001404C69627261726965735C535406
:108950004D3332463130785F5374645065726970BC
:10896000685F4472697665725C7372635C73746D80
:108970003332663130785F74696D2E630000000019
:1089800070B5044619480D4684421CD0B4F1804F9E
:1089900019D01748844216D01648844213D016487E
:1089A000844210D0154884420DD0154884420AD024
:1089B0001448844207D01448844204D040F2026133
:1089C00012A004F0EDFC082D05D025B140F20361A2
:1089D0000EA004F0E5FC208B4FF6FF7120F4006040
:1089E00001EA05210143218370BD0000002C0140F4
:1089F0000004004000080040000C0040003401402A
:108A0000004C014000180040004001404C69627277
:108A100061726965735C53544D3332463130785F0F
:108A20005374645065726970685F447269766572E8
:108A30005C7372635C73746D3332663130785F746B
:108A4000696D2E63000000002DE9F05FDFF838A1AA
:108A5000DFF838B10D460446504512D0B4F1804FCE
:108A60000FD04B4884420CD04A48844209D04A482F
:108A7000844206D05C4504D040F2C11147A004F006
:108A80008FFC288870B110280CD020280AD03028FC
:108A900008D0602806D0702804D04FF4E1713FA0C0
:108AA00004F07EFC688830B1012804D040F2C31184
:108AB0003AA004F075FC288930B1022804D04FF4A4
:108AC000E27136A004F06CFC208C20F480702084CD
:108AD000208CA788A18B2A8821F0730142EA010823
