:020000040800F2
:10000000400D00206901000813090008630600087C
:1000100011090008D5010008E10F000800000000E8
:10002000000000000000000000000000450B000878
:10003000D70100080000000015090008790E00082B
:100040008301000883010008830100088301000880
:100050008301000883010008830100088301000870
:100060008301000883010008830100088301000860
:100070008301000883010008830100088301000850
:1000800083010008830100088301000800000000CC
:1000900000000000000000000000000083010008D4
:1000A0008301000883010008830100088301000820
:1000B0008301000883010008830100088301000810
:1000C0008301000883010008830100088301000800
:1000D00083010008830100088301000883010008F0
:1000E00083010008830100088301000883010008E0
:1000F00083010008830100080000000000000000E8
:10010000830100080000000083010008830100084B
:1001100083010008830100088301000883010008AF
:10012000830100088301000883010008830100089F
:1001300083010008DFF80CD000F03AF800480047CF
:10014000C9110008400D0020EFF30980704780F3CB
:1001500009887047EFF30880704780F3088870477C
:1001600040BA7047C0BA7047064880470648004703
:10017000FEE7FEE7FEE7FEE7FEE7FEE7FEE7FEE757
:10018000FEE7FEE77D0E00083501000840EA0103A6
:100190009B0703D009E008C9121F08C0042AFAD23D
:1001A00003E011F8013B00F8013B521EF9D2704701
:1001B000064C074D06E0E06840F0010394E80700B4
:1001C00098471034AC42F6D3FFF7B8FF7813000815
:1001D00098130008FEE770472DE9F0474FF001093A
:1001E0004FF00208042700F057F9204D06466868D2
:1001F000B04338D000F04AF904466868304368607C
:1002000000F0CAF806466868411C03D0C04300F0FD
:100210006DF80646E04340070ED0E00700D1814666
:10022000A00701D44FF00008600700D400273A4629
:100230004146484600F074F9042E04D00CA0BDE8F5
:10024000F04700F06BBD15A000F068FD1B4800F002
:1002500065FD1B4801681B4A01F4E0611143016020
:10026000BFF3408FFEE718A0E9E700000000002080
:100270004572726F723A20466C61736820777269BA
:10028000746520756E70726F74656374696F6E202B
:100290006661696C65642E2E2E0D0A0057726974B2
:1002A000652050726F74656374696F6E2064697342
:1002B00061626C65642E2E2E0D0A0000401200084B
:1002C0000CED00E00400FA05466C617368206D6572
:1002D0006D6F7279206E6F7420777269746520700B
:1002E000726F7465637465640D0A00002DE9F04354
:1002F000C043C7B2C0F30726C0F30745040E4FF44E
:100300000059484600F03CF904283BD1DFF87C80D6
:100310001D4AC8F808201E4AC8F80820D8F810203E
:1003200042F01002C8F81020FF2F06D019480780AD
:10033000484600F025F904281BD1FF2E07D01548A8
:10034000801C0680484600F01BF9042811D1FF2DBF
:1003500007D01048001D0580484600F011F9042818
:1003600007D1FF2C07D00B48801D0480484600F0C1
:1003700007F9052806D0D8F8102041F6EF731A4087
:10038000C8F81020BDE8F083230167450020024033
:10039000AB89EFCD08F8FF1F70B5A52500F06CF80C
:1003A00000B100254FF43026304600F0E9F804286B
:1003B00027D1154C1348A0601448A060206940F074
:1003C00020002061206940F040002061304600F0AC
:1003D000D7F841F6EF7604280ED1206941F6DF7197
:1003E00008402061206940F0100020610848058025
:1003F0004FF4005000F0C4F8052802D021693140C4
:10040000216170BD2301674500200240AB89EFCD1B
:1004100000F8FF1F70B505464FF43026304600F057
:10042000AFF8042811D1094C206940F00200206186
:100430006561206940F040002061304600F0A0F87E
:10044000216941F6FD721140216170BD002002401A
:1004500008490420CA68D20701D001207047CA6841
:10046000520701D502207047C968C906FBD5032091
:10047000704700000020024003490020C969890735
:1004800000D5012070470000002002400148C069EB
:1004900080087047002002400148006A7047000051
:1004A0000020024001B50098410503D0012101EB75
:1004B000D02008BDC00A08BD2DE9F841064600203D
:1004C0004FF4005700900D46384600F059F80428C4
:1004D00016D10C4C206940F0010020613580B846EF
:1004E000384600F04DF8BF1E042806D1B61C280C73
:1004F00000963080404600F043F821693940216180
:10050000BDE8F881002002400348024941600349E8
:10051000416070472301674500200240AB89EFCD61
:100520002DE9F041134C0746114816460D46A060D0
:100530001148A0604FF40058404600F021F804280C
:1005400013D1206940F01000206135430B493D4331
:1005500045F0F8000880404600F012F8052804D065
:10056000216941F6EF7211402161BDE8F081000080
:100570002301674500200240AB89EFCD02F8FF1F41
:1005800000B50346FFF764FF03E000BFFFF760FF1D
:100590005B1E012803D0002B00D1052000BD002BDD
:1005A000F4D1FAE7F0B5CA78002502F00F03D206BD
:1005B00001D58A7813430C784FF00F0E0122ECB16D
:1005C000D0F800400F8802FA05F63740B74211D143
:1005D0004FEA850C0EFA0CF724EA070703FA0CF42D
:1005E0003C43CF78282F02D0482F02D002E046614A
:1005F00000E006616D1C082DE4D304600C88FF2C1C
:100600001ED944685FF0000606F1080702FA07F5F4
:100610000F882F40AF420FD14FEA860C0EFA0CF72D
:10062000BC4303FA0CF73C43CF78282F00D1456137
:10063000CF78482F00D10561761C082EE4D34460A2
:10064000F0BD416170470161704708B500208DF829
:100650000000684600F036FB0028FAD09DF8000044
:1006600008BDFEE7F0B500220E4B164614464FF0CB
:100670000A0C00BFB1FBF3F503FB151105F13007C0
:100680008754521CB3FBFCF3851815F8015C302D20
:1006900000D126B1761C641C0A2CEBD3F0BD0022DD
:1006A000F9E7000000CA9A3B2748284C012500685A
:1006B000A0F10060000B20603E2804D205FA00F192
:1006C000491EC84301E04FF000406060FFF7E4FEC0
:1006D0006168814301D0A56001E00020A0601CA0FA
:1006E00000F01CFB2AA000F019FB39A000F016FB5B
:1006F000A06810B146A000F011FB55A000F00EFB61
:10070000FFF7A3FF312804D0322805D033280DD0BD
:100710000FE000F019FAE2E75D4841682161E1600D
:100720000068FFF71AFDE0688047D8E7A068012855
:1007300005D0A06830B157A000F0F0FACFE7FFF77E
:100740004BFDCCE763A0F7E7180000200000002075
:100750000D0A3D3D3D3D3D3D3D3D3D3D3D3D3D3D2C
:100760003D3D3D3D204D61696E204D656E75203DDE
:100770003D3D3D3D3D3D3D3D3D3D3D3D3D3D3D3DA9
:100780003D3D3D3D3D3D3D3D3D3D3D0D0A0A0000A9
:100790002020446F776E6C6F616420496D616765DE
:1007A00020546F207468652053544D3332463130E5
:1007B0007820496E7465726E616C20466C61736856
:1007C000202D2D2D2D2D2D2D20310D0A0A0000005C
:1007D00020204578656375746520546865204E65F2
:1007E000772050726F6772616D202D2D2D2D2D2D6C
:1007F0002D2D2D2D2D2D2D2D2D2D2D2D2D2D2D2D29
:100800002D2D2D2D2D2D2D2D20320D0A0A0000000D
:10081000202044697361626C65207468652077727A
:100820006974652070726F74656374696F6E202DD2
:100830002D2D2D2D2D2D2D2D2D2D2D2D2D2D2D2DE8
:100840002D2D2D2D2D2D2D2D20330D0A0A000000CC
:100850003D3D3D3D3D3D3D3D3D3D3D3D3D3D3D3DC8
:100860003D3D3D3D3D3D3D3D3D3D3D3D3D3D3D3DB8
:100870003D3D3D3D3D3D3D3D3D3D3D3D3D3D3D3DA8
:100880003D3D3D3D3D3D3D3D3D3D0D0A0A000000E5
:1008900000300008496E76616C6964204E756D62A7
:1008A00065722021203D3D3E20546865206E756DA7
:1008B0006265722073686F756C642062652065697B
:1008C0007468657220312C20322C206F7220330D19
:1008D00000000000496E76616C6964204E756D629F
:1008E00065722021203D3D3E20546865206E756D67
:1008F0006265722073686F756C642062652065693B
:10090000746865722031206F7220320D0000000083
:10091000FEE7704770470000044A0029D16901D002
:10092000014300E08143D1617047000000100240A4
:10093000044A0029916901D0014300E0814391619B
:10094000704700000010024030B521494A6812F09B
:100950000C03204A03D0042B01D0082B01D00260E5
:1009600015E04B684C6803F470134FF0020514F463
:10097000803F05EB934307D0CC6A04F00F04641C5E
:10098000B2FBF4F25A43EAE7134A534303604A685E
:100990000F23124C03EA1212A35C0268DA40426091
:1009A0004B68072505EA1323E35C22FA03F383600F
:1009B0004B6805EAD323E35CDA40C260496803234D
:1009C00003EA9131231F595CB2FBF1F1016130BDA3
:1009D0000010024000127A0000093D002C000020A7
:1009E00070B50C46054604E0284600F06BF9012876
:1009F00004D0641EF8D24FF0FF3070BD002070BDEF
:100A00002DE9F84F884600210646C8F800109246A6
:100A100011466846FFF7E4FF4FF0FF39B0BB9DF881
:100A20000000182814D006DC012809D0022809D0BB
:100A300004282BD12EE0412816D0612826D113E0BE
:100A4000802401E04FF4806401253070671D15E0BB
:100A500051466846FFF7C4FFC0B99DF8000018284A
:100A600014D1C8F8009015E00120BDE8F88F701986
:100A70005146FFF7B5FF48B96D1CADB2BD42F6D384
:100A8000B178707881F0FF01884201D04846ECE7E8
:100A9000C8F800400020E8E710B586B0012120200A
:100AA000FFF746FF01211020FFF742FF0121080553
:100AB000FFF732FF03208DF8020004208DF80300B9
:100AC0001D4CADF8000069462046FFF76BFD18206D
:100AD0008DF80300A014ADF8000069461748FFF731
:100AE00061FD10208DF803000820ADF80000694674
:100AF0002046FFF757FD4FF4E13001900020ADF89C
:100B00000800ADF80C00ADF80A00ADF810000C209C
:100B10000B4CADF80E0001A9204600F003FA0122AB
:100B200040F22551204600F0E4F90121204600F072
:100B3000CFF906B010BD00000014014000100140C4
:100B400000500040704700003EB518A207CA8DE86B
:100B5000070019A000F0E2F8264800F043FA041E4E
:100B600014DD254800F0DAF8244800F0D7F82146D3
:100B70006846FFF777FD22A000F0D0F8684600F045
:100B8000CDF822A000F0CAF823A008E0601C05D030
:100B9000A01C07D0E41C07D025A000E02CA000F08A
:100BA000BDF83EBD3AA0FAE740A0F8E7202020209B
:100BB000202020202020000057616974696E672082
:100BC000666F72207468652066696C6520746F209A
:100BD00062652073656E74202E2E2E20287072653B
:100BE00073732027612720746F2061626F727429EC
:100BF0000A0D00003C0000208C1200083C0400207C
:100C00000A0D2053697A653A200000002042797469
:100C100065730D0A000000002D2D2D2D2D2D2D2D7D
:100C20002D2D2D2D2D2D2D2D2D2D2D0A00000000CB
:100C30000A0D4661696C656420746F207265636596
:100C4000697665207468652066696C65210A0D0007
:100C50000A0A0D54686520696D6167652073697AB9
:100C60006520697320686967686572207468616EC1
:100C70002074686520616C6C6F77656420737061A7
:100C80006365206D656D6F7279210A0D00000000AB
:100C90000A0A0D566572696669636174696F6E2030
:100CA0006661696C6564210A0D0000000D0A0A4145
:100CB000626F7274656420627920757365722E0AA2
:100CC0000D00000070B5064C05462021204600F0BE
:100CD00009F9002802D0A0882870012070BD00000A
:100CE0000050004070B50B4D044608212846FFF720
:100CF000AAFC2146084C204600F06EF9402120460F
:100D000000F0F0F80028F9D02846BDE8704008212E
:100D1000FFF797BC001401400050004010B5044696
:100D200003E000BFFFF7DEFF641C20780028F9D144
:100D300010BD00000CB500211F4801910091026810
:100D400042F4803202604FF4A063026802F4003281
:100D50000092019A521C0192009A12B9019A9A4289
:100D6000F3D10268920324D50121009141684160CA
:100D70004168416041684160416821F47C114160F3
:100D8000416841F498114160016841F0807101604F
:100D900001688901FCD5416821F003014160416887
:100DA00041F0020141604168C1F381010229FAD199
:100DB0000CBD00910CBD00000010024070B5002277
:100DC00004781346302C04D14478782C0AD0582C5F
:100DD00008D06FF02F05845C74B36B2C2ED04B2C95
:100DE0002CD030E082780AB30224025D5AB1A2F11D
:100DF0004105052D0AD9A2F16106052E06D9113546
:100E0000092D07D913E001200B6011E0A2F1300693
:100E1000092E01D8303A04E0052D01D8373A00E018
:100E2000573A641C02EB03130B2CDED302E00020C4
:100E30000B2C00D3002070BD0B6002E01AB19802A9
:100E400007E0012015E06D2C01D04D2C03D112B12B
:100E500018050860F5E7A4F13006092E08D803EB61
:100E6000830305EB4303521C23440B2AB3D3E1E76E
:100E700000200B2ADED270BD70470000104810B56C
:100E8000016841F00101016041680E4A1140416072
:100E900001680D4A11400160016821F48021016060
:100EA000416821F4FE0141604FF41F01816000217F
:100EB000C162FFF73FFF05494FF00060086010BDB9
:100EC000001002400000FFF8FFFFF6FE08ED00E012
:100ED0000029818902D041F4005101E021F4005140
:100EE000818170470246002012880A4200D001200A
:100EF000704710B5C1F3421301F01F040121A14056
:100F0000012B07D0022B07D01430002A026805D02D
:100F10000A4304E00C30F8E71030F6E78A43026039
:100F200010BD000030B50446008A85B00D464CF671
:100F3000FF710840E98801432182A1894EF6F31030
:100F40000140A8882A8910436A890A431043A08176
:100F5000A08A4FF6FF410840A9890143A182684653
:100F6000FFF7F2FC1B48844201D1039800E002988D
:100F7000A1890904002900EBC00101EB00102968D8
:100F800002DA4FEA410101E04FEA8101B0FBF1F0E2
:100F90006422B0FBF2F14FEA01114FEA11136FF036
:100FA00018056B4300EB8300A3891D044FF0320347
:100FB00006D503EBC000B0FBF2F000F0070005E03F
:100FC00003EB0010B0FBF2F000F00F0008432081AB
:100FD00005B030BD00380140C1F308018180704781
:100FE000FEE700002DE9F04F80460020ADF2244DD1
:100FF0006B4CDFF8A8B1CDF80804C4F804B005467E
:1010000007464FF480194FF0FF3ACDF81004002640
:101010004A460DF20C416846FFF7F2FC88B1012800
:1010200068D0002F00DD6D1C052D79DD1820FFF73D
:1010300059FE1820FFF756FE00200DF2244DBDE8A2
:10104000F08FDDF80C240025524507D042B19DF801
:101050000100F1B288420BD015209BE00620E9E7A1
:101060000620FFF73FFEDDF810040028CFD05BE03C
:1010700046B10DF103014046FFF788F80027C4F898
:1010800010806CE09DF8030098B300210DF103007F
:10109000444B02E05A54401C491C02780AB1FF2913
:1010A000F8DD00275F543946401C0DF2144302E07E
:1010B0005A54401C491C0278202A01D01029F7DB21
:1010C0005F540DF581611846FFF778FEDDF80804DE
:1010D000B0F5002F07DB1820FFF704FE1820FFF7FC
:1010E00001FE5046A9E7FFF7DDF9C4E90270384672
:1010F0000BE016E044E06288616802FB0010FFF735
:1011000089F92070A068401CA060E168884202D282
:1011100021780429EFD00620FFF7E4FD43202AE0E0
:1011200037E00620FFF7DEFDDDF8080485E72169DA
:101130000968FFF7C1F96068216902680B689A4283
:1011400008D01820FFF7CEFD1820FFF7CBFD6FF079
:10115000010072E7091D001D21613F1D6060DDF87F
:101160000C04874206DADDF80824606802EB0B0104
:101170008842DCD30620FFF7B5FD761C012747E740
:101180001820FFF7AFFD1820FFF7ACFD6FF002004D
:1011900053E74320FFF7A6FD3AE7000000300008C0
:1011A000140000203C04002002E008C8121F08C1FF
:1011B000002AFAD170477047002001E001C1121FD8
:1011C000002AFBD170470000FFF79EF91548006820
:1011D000A0F52541A53911D0FFF75EFC1248FFF7B5
:1011E0009DFD11484C30FFF799FD0F48FFF796FD24
:1011F0000EA0FFF793FDFFF757FA11E00948803082
:1012000001680C4A1140B1F1005F09D141680A4AF6
:101210000A4C116021600068FEF79FFF206880473C
:10122000FEE70000802F0008E01200080D0A0D0AFA
:10123000000000000000FE2F100000200C00002025
:101240002E2E2E616E6420612053797374656D209B
:1012500052657365742077696C6C206265206765E0
:101260006E65726174656420746F2072652D6C6F99
:10127000616420746865206E6577206F7074696F93
:101280006E2062797465730D0A0000000A0A0D2051
:1012900050726F6772616D6D696E6720436F6D701C
:1012A0006C65746564205375636365737366756CF0
:1012B0006C79210A0D2D2D2D2D2D2D2D2D2D2D2D22
:1012C0002D2D2D2D2D2D2D2D2D2D2D2D2D2D2D2D4E
:1012D0002D2D2D2D2D0D0A204E616D653A2000001B
:1012E0000D0A3D3D3D3D3D3D3D3D3D3D3D3D3D3D91
:1012F0003D3D3D3D3D3D3D3D3D3D3D3D3D3D3D3D1E
:101300003D3D3D3D3D3D3D3D3D3D3D3D3D3D3D3D0D
:101310003D3D3D3D3D3D3D3D3D3D3D3D3D3D3D3DFD
:101320003D3D3D3D3D3D3D3D000000000D0A3D2061
:10133000202020202020202020202055736572208E
:101340006170706C69636174696F6E206E6F742078
:1013500065787369742C20656E746572696E672098
:10136000626F6F74206D6F6465202020202009203B
:101370002020203D000000009813000800000020FD
:101380003C000000A8110008D41300083C00002015
:10139000040D0000B811000800000000000000006B
:1013A0000000000000000000000000000400000831
:1013B00000300008000000000000000000000000F5
:1013C00002040608000000000102030401020304F5
:1013D00006070809FFFFFFFFFFFFFFFFFFFFFFFFFB
:1013E000FFFFFFFFFFFFFFFFFFFFFFFFFFFFFFFF0D
:1013F000FFFFFFFFFFFFFFFFFFFFFFFFFFFFFFFFFD
:10140000FFFFFFFFFFFFFFFFFFFFFFFFFFFFFFFFEC
:10141000FFFFFFFFFFFFFFFFFFFFFFFFFFFFFFFFDC
:102F8000A5A50000FFFFFFFFFFFFFFFFFFFFFFFF03
:102F9000FFFFFFFFFFFFFFFFFFFFFFFFFFFFFFFF41
:102FA000FFFFFFFFFFFFFFFFFFFFFFFFFFFFFFFF31
:102FB000FFFFFFFFFFFFFFFFFFFFFFFFFFFFFFFF21
:102FC000FFFFFFFFFFFFFFFFFFFFFFFFFFFFFFFF11
:102FD000FFFFFFFFFFFFFFFFFFFFFFFFFFFFFFFF01
:102FE000FFFFFFFFFFFFFFFFFFFFFFFFFFFFFFFFF1
:102FF000FFFFFFFFFFFFFFFFFFFFFFFFFFFFFFFFE1
:10300000A056002045310008378200080F32000822
:10301000338200086556000869CE000800000000F1
:103020000000000000000000000000001FA70008D2
:10303000DD6600080000000097310008D5AC0008EC
:103040005F3100085F3100085F3100085F31000820
:103050005F3100085F3100085F3100085F31000810
:103060005F3100085F3100085F3100085F31000800
:103070005F310008895D00085F3100085F3100089A
:103080005F3100085F3100085F3100085F310008E0
:103090005F3100085F3100085F3100085F310008D0
:1030A0005F31000895AE00085F3100085F3100080D
:1030B000B1AE0008DDAE00085F3100085F310008E6
:1030C0005F3100085F3100085F3100085F310008A0
:1030D0005F310008A1C10008E1C100089DC20008DD
:1030E0005F3100085F3100085F3100085F31000880
:1030F0005F3100085F3100085F3100085F31000870
:103100005F3100085F3100080DAF00085F31000833
:1031100001C1000819C100085F3100085F310008D3
:103120005F3100085F310008A15D00085F310008D1
:10313000DFF80CD001F01CFA00480047A9E90108AB
:10314000A05600200648804706480047FEE7FEE7F5
:10315000FEE7FEE7FEE7FEE7FEE7FEE7FEE7FEE747
:1031600035AE000831310008EFF3108072B67047B9
:1031700080F310887047334A1368012B04D04FF056
:1031800001031360304A1060304A116030484FF03C
:10319000805101607047EFF3108272B629480168D0
:1031A00091B14FF0000101602748016829B1EFF3A8
:1031B000098121E9F00F0068016024490968096864
:1031C000B1E8F00F81F3098882F310884EF0040E05
:1031D00070471E4908601C494FF0000008601949FB
:1031E0004FF0010008601B484FF47F01D0F8002029
:1031F00041EA0201016016484FF080510160164813
:103200000068006880F3088861B662B670471EF0F7
:10321000040F0CBFEFF30880EFF3098020E9F00FF3
:1032200040F804ED1EF0040F0CBF80F3088880F313
:10323000098800B51FF030F95DF804EB4EF0040E7C
:1032400070470000880200208002002084020020D5
:1032500004ED00E020ED00E008ED00E02DE9F04194
:103260000024061B254671F1000605DA012400271B
:10327000D0EB070067EB0101161E73F1000605DABB
:103280000027D2EB0702012567EB030300F06AFE7B
:1032900086460E4617469C46AC4204D00025D0EB2D
:1032A000050E65EB010624B10020D2EB000760EBB0
:1032B000030C704631463A466346BDE8F081000093
:1032C000004870474416030810B50446FFF7F8FF9E
:1032D0000068005D00F0010010BD000038B5D0E9C5
:1032E0000221491E01EB410102EBC1014268C1EB21
:1032F000011102EB81010268C1EB011102EB8102B5
:10330000D0E9043101EB410103EB81013023A1F548
:10331000527191FBF3F4174D6C4302EBC41291FB15
:10332000F3F403FB141100921A2902DB124B1A4426
:1033300000920C2291FBF2F3104C6343009C04EBCF
:10334000C313009391FBF2F302FB13110C4A08E044
:10335000491E40F2A324535C6343009C04EBC31357
:1033600000930029F4DC0146684600F063FE0098F3
:1033700038BD00003F0C0F008051010067C2030000
:103380004816030810B500F04FFEBDE8104000F0ED
:1033900097BE40EA01039B0703D009E008C9121F4A
:1033A00008C0042AFAD203E011F8013B00F8013BFF
:1033B000521EF9D27047D2B201E000F8012B491E2B
:1033C000FBD270470022F6E710B513460A460446C2
:1033D0001946FFF7F0FF204610BD421E12F8013FCC
:1033E000002BFBD111F8013B02F8013B002BF9D176
:1033F000704730B505462A460B4612F8010B13F804
:10340000014B08B1A042F8D01CB1002802D06D1CBD
:10341000F1E7284630BD10B5044604E00B7800F80B
:10342000013B03B1491C521EF8D2204610BDCAB25E
:10343000401E10F8011F8A4202D00029F9D1002055
:103440007047421C10F8011B0029FBD1801A7047FD
:1034500010B5002200E0521C835C8C5CA34201D1B9
:10346000002BF8D1D8B2E1B2401A10BD30B50446F5
:103470000020034600E05B1C934203D2E05CCD5C7D
:10348000401BF8D030BD034611F8012B00F8012B8A
:10349000002AF9D11846704730B50546002003468A
:1034A00000E05B1C934205D2EC5CC85C201A01D1A1
:1034B000002CF6D130BD0246C9B200E0401C0378B2
:1034C000002BFBD102E003788B4203D0401E9042D8
:1034D000F9D200207047000000B58DB0099000922D
:1034E0000B904FF0FF300A9000200C90044806909B
:1034F000044807906A4609A800F000FF0DB000BD1F
:1035000019430008374300080FB400B58DB010A967
:1035100009900B9000914FF0FF300A9000200C9022
:1035200005480690054807906A4609A80F9900F0DB
:10353000E5FE0DB05DF814FB1943000837430008A1
:103540002DE9FF5F1D464FF0FF3BD5E9014691464F
:103550005F464FF00008A9697F1C01988847296AD7
:10356000824688470028F6D1BAF1FF3F0CD024F4F8
:10357000C064002E19DD600614D5BAF12B0F09D0F6
:10358000BAF12D0F0ED103E0584604B0BDE8F09F0C
:1035900044F48064A9697F1C01988847761E82469E
:1035A000002E02DDBAF1300F03D0B9F1000F26D0A2
:1035B00032E0A969761E44F400747F1C01988847A4
:1035C0008246002E05DDBAF1780F06D0BAF1580F09
:1035D00003D0B9F1000F10D01EE0B9F1000F02D0F6
:1035E000B9F1100F18D1A969761E24F400747F1C5C
:1035F000019888478246102002E0082000E00A2057
:10360000814609E008FB0908A969761E44F40074A4
:103610007F1C019888478246002E05DD49465046AA
:1036200000F0ACFD0028EDDAE96901988847A005B3
:1036300002D46FF00100A8E7E00725D1600613D59A
:10364000600502D5C8F1000000E0404629680A1D67
:103650002A600968220501D5087015E0220701D506
:10366000088011E008600FE02868011D29600068EB
:10367000210502D580F8008006E0210702D5A0F8D8
:10368000008001E0C0F8008038467EE72DE9FF5F4A
:10369000D2E901A74FF00008916999461446DDF878
:1036A00038B0464601988847054659EA0B0005D0D0
:1036B00009E0A169761C019888470546216A2846D9
:1036C00088470028F5D1681C03D05FEACA7005D08E
:1036D00015E04FF0FF3004B0BDE8F09F2068011DF9
:1036E0002160D0F800800AE05FEACA7001D108F8D2
:1036F000015BA169761C7F1E019888470546002F53
:103700001ADD681C18D0B9F1000F0DD0E81705EBD1
:10371000D060421120F01F0059F822102A1A01200F
:1037200090400142E0D107E0BBF1000FDCD1216AFB
:10373000284688470028D7D0E16901988847BBF11F
:10374000000F07D1002E05DD5FEACA7002D100210B
:1037500088F80010A068B84203DDBBF1000F03D069
:1037600017B16FF00100B6E73046B4E72DE9FF4F1F
:10377000087883B09946FF2805D0491C2D2804D02D
:103780000024002008E000200BE00124F9E700EB12
:10379000800003EB4000491C0B78FF2BF7D104B1EC
:1037A000404200230293147819461D462D2C01D067
:1037B0002B2C04D1521C2D2C13D000240294AA4689
:1037C0001478FF2C0FD00A25A3FB057801FB058197
:1037D0004FF0000C03FB0C11521CE3194AEB0101E2
:1037E000EEE70124EAE7814453EA010002D019F52B
:1037F000C87F06DA03980021C0E9001107B0BDE8D0
:10380000F08F0025AE4E2F46DFF8B882184600F044
:103810006FFECDE90001B9F1000002DAC9F1000440
:1038200000E004460023A74A1AEB030B42EB045ABC
:1038300012E0E00707D02A4633463846414600F0FA
:103840002BFA074688462A4633461046194600F0AA
:1038500023FA05460E466410002CEAD1DDE900018A
:10386000B9F1000F5A46534606DA00F087FA3A4695
:10387000434600F083FA05E000F00EFA3A4643466C
:1038800000F00AFA029A0AB181F00041039AC2E9F3
:103890000001B3E72DE9FF4F1F468DB0D7E9014680
:1038A0004FF0FF382E2045464FF000090B90B969C4
:1038B0006D1C0E988847396A824688470028F6D1E1
:1038C000BAF1FF3F0AD024F4D064002E11DDBAF122
:1038D0002B0F08D0BAF12D0F0BD102E0404611B0EA
:1038E0008DE744F48064B9696D1C0E988847824660
:1038F000761E6946600501D52D2000E02B208DF84D
:10390000000001F1010B0DF1200809E0B9696D1CFF
:103910000E98884782460F9844F40074761E05601E
:10392000002E02DDBAF1300FF0D00B998A453ED15E
:1039300044F0800406E00F99681CA9F1010944F4E1
:1039400000740860B9696D1C761E0E98884782461F
:103950003028F0D02BE00B998A4505D1200603D4FE
:1039600044F08004761E18E0504609F08BFF08B33F
:103970000DF11301761E44F400748B4508D2AAF1B0
:1039800030000BF8010B200607D5A9F1010003E078
:10399000200602D409F101008146A00502D50F9945
:1039A000681C0860B9696D1C0E9888478246002E15
:1039B000D1DC53E0002E51DDBAF1650F02D0BAF12F
:1039C000450F4BD1A00549D5B9696D1C24F440744D
:1039D000761E0E9888478246002E0CDD2B2804D0D8
:1039E000BAF12D0F07D144F48074B9696D1C0E989B
:1039F00088478246761EE00501D52D2100E02B2167
:103A000008F8011BCDF82C8021E00DF12901761E6C
:103A100044F4007488450CD2AAF1300010F0FF0085
:103A200088F8000002D10B99884509D908F10108EE
:103A300006E0E00501D5244801E042F20F7081461E
:103A4000B9696D1C0E98884782460F980560002E54
:103A500004DD504609F016FF0028D6D1F9690E980A
:103A60008847FF208BF8000088F8000000200690AF
:103A700007904B466A4608A906A8FFF777FEA005FF
:103A800002D46FF001002AE714F0240F0AD0E007F7
:103A900014D1DDE906123868031D3B600068C0E9F7
:103AA00000120BE0DDE9060100F046FD0146E007EB
:103AB00004D13868021D3A600068016028460EE7AC
:103AC000000014400000F03FF1D8FFFF70B506463B
:103AD00009F0AEFD046805460A220021304600F0D8
:103AE0003BFC2C6070BD80EA010210B502F000437F
:103AF000400022D04A001FD0010E01EB1261C0F33A
:103B00005600C2F3560240F4000042F40002A0FB4B
:103B1000022000047F39140400D0401C50EA1240F7
:103B200001D44000491EC2B20C0604EBD010401C68
:103B30004008802A02D003E0002010BD20F00100E0
:103B4000002900DA0020184310BD2DE9FE4F804601
:103B500081EA0300C00F0C46009021F0004123F0E1
:103B60000045B8EB0200A94105D2404621469046E7
:103B70001C460B46024623F00040104347D0270D59
:103B8000C7F30A00C3F30A510290401A019040287B
:103B90006BDAC3F3130040F4801B0098924620B107
:103BA0000023D2EB030A63EB0B0B01985946C0F1DB
:103BB0004002504600F007FA06460D465046594668
:103BC000019A00F01FFA10EB08006141002487EA17
:103BD000115284EAE7731A4340D0009A62B3019A03
:103BE000012A4FEA075215DC001B61EB02014FF07E
:103BF000004202EA0752CDE90042001C41F5801163
:103C000032462B4600F026FC03B0BDE8F08F40465C
:103C10002146F9E7001B61EB0201001C41F580130E
:103C200000185B412018A2F5001747EB030140EA9A
:103C3000D570B6196D4111E06D084FEA360645EAB8
:103C4000C0754FEA0752001B61EB0201001C41F5F1
:103C5000801149084FEA30000019514132462B4685
:103C600003B0BDE8F04F00F0E6BB00980122400031
:103C70000023D0EB020263EBE073009821464FEA89
:103C8000E074B8EB000061EB0401E9E783F0004366
:103C90005BE781F0004158E72DE9FE4F81EA03041C
:103CA00004F0004421F0004100944FF0000B23F099
:103CB000004350EA01045ED052EA03045BD0C3F330
:103CC0000A54C1F30A552C44A4F2F3340194A0FB26
:103CD0000254C1F3130141F48011C3F3130343F4FD
:103CE000801301FB024400FB034E840A970A44EA56
:103CF000815447EA8357A4FB076802958D0A05FBA8
:103D000007854FEA932C04FB0C542705029D4FEACC
:103D1000065847EA1637B5EB08056EEB070C870E19
:103D2000920E47EA811742EA8312A7FB0201B6EB23
:103D30000B0164EB00042B0D43EA0C335E1844EBDB
:103D40001C50DA465146E7FB0201C5F313044FEA63
:103D50000B3343EA14534FEA0432019C43EA06034F
:103D6000A4F10C040294009CCDE900B400F072FBB5
:103D700003B0BDE8F08F00200146F9E72DE9F04DD2
:103D800081EA030404F0004B21F0004514464FF093
:103D9000000A23F0004150EA050220D054EA010253
:103DA0001DD0C5F30A570246C5F31303C1F3130030
:103DB000C1F30A5640F4801543F48013A7EB0608BC
:103DC000101BD64608F2FD3873EB050002D308F14C
:103DD000010801E092185B41B8F1000F03DA0020FE
:103DE0000146BDE8F08D00204FF480110646844660
:103DF0000EE0171B73EB050705D3121B63EB0503DE
:103E000006434CEA010C49084FEA300092185B4126
:103E100050EA0107EDD152EA030012D082EA040011
:103E200083EA0501084305D0101BAB4106D20122ED
:103E3000002306E000224FF0004302E06FF0010291
:103E400053101AEB06004CEB085110EB0A0041EB43
:103E50000B01BDE8F04D00F0EEBA962300221146AA
:103E600000F0BBBA0EB5C10F80EAE0700844CA0783
:103E7000002140F233438DE80E000A460B4600F065
:103E8000E9FA03B000BD0EB540F2334102910021C2
:103E9000CDE900110A460B4600F0DCFA03B000BD84
:103EA00020F00040C10DC0F3160040F400007F294F
:103EB00001DA00207047962903DCC1F19601C84061
:103EC000704796398840704770B5C1F30A5201F0C7
:103ED00000450024C1F3130140F2FF3341F4801187
:103EE0009A4201DA002070BD40F233439A42A2F2B6
:103EF000334203DC524200F075F800E090402C435E
:103F0000F1D0404270BD000030B5041E71F10004D4
:103F100004DB4FF00044404264EB0101141E73F1D6
:103F2000000405DB1C464FF00043524263EB0403E0
:103F3000994208BF904230BD30B50B460146002083
:103F40002022012409E021FA02F59D4205D303FA5B
:103F500002F5491B04FA02F52844151EA2F10102DC
:103F6000F1DC30BD2DE9F05F0546002092469B460E
:103F700088460646814640241BE02846414647467F
:103F8000224600F02FF853465A46C01A914110D3EA
:103F900011461846224600F016F82D1A67EB010864
:103FA0004F4622460120002100F00DF817EB0009D2
:103FB0004E41201EA4F10104DFDC484631462A466A
:103FC0004346BDE8F09F202A04DB203A00FA02F1C4
:103FD000002070479140C2F1200320FA03F31943F7
:103FE00090407047202A04DB203A21FA02F0002199
:103FF000704721FA02F3D040C2F1200291400843F9
:1040000019467047202A06DBCB17203A41FA02F006
:1040100043EAE07306E041FA02F3D040C2F1200225
:104020009140084319467047014900F003B8000069
:104030005452002010B500683C22B0FBF2F302FBA2
:104040001303B0FBF2F00B60B0FBF2F302FB1303BF
:10405000B0FBF2F018224B60B0FBF2F302FB13034B
:10406000B0FBF2F0021D8B600723B2FBF3F403FBFD
:104070001422800040F2B55300F66C308A61B0FB28
:10408000F3F2B0FBF3F403FB1400443280084A61FE
:10409000C8613B2802D3920700D0401C0022074C85
:1040A00013460A61E25C824203D8801A5B1C0B61F2
:1040B000F8E7401CC860084610BD0000541603080D
:1040C000F0B52A4B2A4C85B00021826902EB4202EE
:1040D0000A44491CA25C03F8012B0329F5DB244C9C
:1040E0004FF0200C002103F801CB1534026902EBDC
:1040F00042020A44491CA25C03F8012B0329F5DBA8
:10410000C168009181680191416802910168039141
:10411000406918A200F26C706C460A27049017E000
:1041200003F8010B12F8010F08B1022500E0042585
:1041300002CC284607E091FBF7F607FB161691FB29
:10414000F7F130361E54061EA0F10100F3DC2B44BB
:1041500010780028E4D11F7058700448017A302983
:1041600001D180F808C005B00048F0BD80520020A1
:104170006016030820203A3A200000003A2800D2B6
:10418000303820F02002412A01D3A2F137008842C2
:1041900001D34FF0FF3070472DE9FF4F1C4681B02F
:1041A0000021D4E9016791464FF0FF358A468846E1
:1041B000A1696D1C02988847216A834688470028B8
:1041C000F6D1BBF1FF3F0CD026F4C066002F1ADDFC
:1041D000700615D5BBF12B0F0AD0BBF12D0F0FD1F7
:1041E00004E04FF0FF3005B0BDE8F08F46F4806684
:1041F000A1696D1C029888477F1E8346002F02DD4F
:10420000BBF1300F03D0B9F1000F2AD025E0A1692E
:104210006D1C46F400767F1E029888478346002F67
:1042200005DDBBF1780F06D0BBF1580F03D0B9F113
:10423000000F10D011E0B9F1000F02D0B9F1100F4A
:104240000BD1A1696D1C26F400767F1E0298884769
:104250008346102000E0082081464FEAE970009074
:1042600017E00A20F8E74346AAFB092803FB098068
:10427000DDF800C07F1E0AFB0C0112EB0B0A41EBBC
:10428000EB78A16946F4007605F1010502988847AC
:104290008346002F06DD49465846FFF76FFF5FEA69
:1042A000000BE0D5E16902988847B00502D46FF0B1
:1042B000010098E7F00718D1700610D57005514637
:1042C00005D50023D1EB030163EB080200E0424671
:1042D0002068031D23600068C0E9001205E0206823
:1042E000011D21600068C0E900A828467BE70000A6
:1042F000026811441378016018467047D160044980
:1043000051610449116200211161114600F042B966
:10431000F1420008C9320008426842B1016811F850
:10432000013B23B1521EC0E900121846704701211B
:10433000C160881E704742685AB1C368016843B9BA
:1043400083688B4205D0491E521CC0E90012002030
:1043500070474FF0FF3070472DE9F04791460F4608
:1043600080460446002614F8015B2DB1FEF7A8FF35
:104370000068405DC007F6D12B2D02D02D2D18D03E
:10438000641E4A463946204600F09AFA27B1396839
:10439000A14201D1C7F8008071054FF002040BD58E
:1043A0004042002803DD09F043F90460A007BDE89E
:1043B000F08746F48066E4E70028F8DA09F038F977
:1043C00004606FF00040F2E70029A8BF7047401C6E
:1043D000490008BF20F00100704710B4B0FA80FC1B
:1043E00000FA0CF050EA010404BF10BC704749B158
:1043F000CCF1200421FA04F411FA0CF118BF0121C8
:1044000021430843A3EB0C01CB1D4FEA00614FEAA7
:10441000102042BF002010BC704700EBC350104476
:104420000029A4BF10BC7047401C490008BF20F001
:10443000010010BC704710B5141E73F1000408DAB7
:10444000401C41F1000192185B411A4301D120F058
:10445000010010BD2DE9F04D92469B4611B1B1FA15
:1044600081F202E0B0FA80F220329046FFF7ABFD15
:1044700004460F4640EA0A0041EA0B0153465A46F9
:10448000084313D0114653EA010019D0C8F1400285
:104490005046FFF7A7FD05460E4650465946424690
:1044A000FFF791FD084305D0012004E0204639467E
:1044B000BDE8F08D0020054346EAE0762C43374303
:1044C0000A986305E40AA0EB08000022FD0A44EA0A
:1044D00047540A3002D500200146E9E701051019CA
:1044E0006941DDE9084500196941BDE8F04DA2E7E1
:1044F0000EB540F2334202920022CDE9002213466B
:10450000FFF7A8FF03B000BDC1F30A52C1F31301C6
:1045100040F2FF3341F480119A4202DA0020014652
:10452000704740F233439A42A2F2334202DC5242D5
:10453000FFF758BDFFF747BD01F0004330B421F04D
:10454000004150EA010206D00A0DA2F56072C1F3E3
:104550001301002A02DC30BC00207047440F44EAFB
:10456000C104C100E01830BC00EBC250FFF72CBF03
:10457000064C074D06E0E06840F0010394E80700B0
:1045800098471034AC42F6D3FEF7D6FD90310308BD
:10459000B03103082DE9F34F8BB04FF0000801F163
:1045A0000C000C464FF0010B46460DF1080A019035
:1045B0006269012101989047051E2DD0252D2CD030
:1045C000216A8847C0B16269012101989047216A38
:1045D00088470028F7D1411E62690198904700E0A2
:1045E000761CA1690B988847216A88470028F7D173
:1045F000E1690B988847DBE7A1690B988847074674
:10460000A84201D1761CD3E7E1690B9888477F1C4B
:1046100002D1B8F1000F6FD046E1002762693D4634
:104620003946019890472A2804D1626901210198EE
:1046300090470125DFF88492626901210198904733
:10464000A0F130010A290AD24F45E5DC07EB8701CA
:1046500000EB4107303FDFD445F01005ECE7E906F9
:1046600001D46FF000476C280AD04C2814D0682879
:1046700015D06A280DD074281CD07A281AD01DE0D5
:1046800062690121019890476C2802D045F0040529
:1046900014E045F002050DE045F020050AE06269EE
:1046A000012101989047682802D045F0080505E0EF
:1046B00045F400656269012101989047C4E90157FA
:1046C00065283DD019DC58287AD00CDC452837D035
:1046D00004DC252826D0412831D131E046282FD0CE
:1046E00047282CD12CE05B2877D0612828D063287C
:1046F0007CD0642823D15AE0D0E06F2848D008DC71
:1047000066281DD067281BD0692821D06E2816D1B5
:1047100027E0702845D0732868D0752847D07828BE
:104720000DD14DE0A1690B988847054625283FF437
:1047300069AFE1690B9888476D1C3FF46AAFB3E03D
:1047400023466A466FF001000B99FFF7A3F89EE03D
:1047500045F040006060A80723464FF0000236D4C1
:104760003EE0E8077FF447AF2068011D2160006844
:10477000290501D506701BE7290701D5068017E733
:10478000A90703D5F117C0E9006111E706600FE73B
:1047900045F040006060A80723464FF0080216D499
:1047A0001EE040F60E0125EA0100606016E045F0CB
:1047B00040006060A80723464FF00A0207D40FE0CC
:1047C00045F040006060A80708D5234610226FF02E
:1047D00001000B99FFF7E0FC59E007E023461022A7
:1047E0006FF001000B99FEF7ABFE50E04FF00009AF
:1047F0004F464B46632802D05B2806D040E0E806CF
:1048000001D40120A06001273AE0626901210198EA
:1048100090475E2805D14FF0010962694946019829
:104820009047216939B900210A46534643F82120AF
:10483000491C0829FADBB0B3216969B9C11700EB3B
:10484000D16253110AEB830122F01F02821A012068
:104850000B68904003430B60626901210198904707
:104860005D28E8D1B9F1000F09D00020514651F878
:104870002020D24341F82020401C0828F7DB02AB5F
:10488000224600976FF001000B99FEF7FFFE00280B
:104890000CDA401C08D1BBF1000F05D04FF0FF30FF
:1048A0000DB0BDE8F08FFFE74046F9E7E90701D119
:1048B00008F1010806444FF0000B79E6CCCCCC0C93
:1048C0002DE9F05F82460078002715468B460AF1F5
:1048D0000104B946302801D09DB113E014F8010B52
:1048E0000127782803D0582801D045B10AE00DB13E
:1048F000102D07D10027102514F8010B02E0082520
:1049000000E00A250026B0460EE005FB080005FB86
:1049100006F1012701EB10461FFA80F8B6F5803F3B
:1049200000D3B94614F8010B2946FFF727FC0028ED
:10493000EBDABBF1000F05D00FB1641E00E0544666
:10494000CBF80040B9F1000F06D008F071FE02214B
:104950000160C81EBDE8F09F48EA0640FAE770B55E
:104960008C1810F8015B15F0070301D110F8013B1A
:104970002A1106D110F8012B03E010F8016B01F8A1
:10498000016B5B1EF9D12B0705D40023521E0DD4F9
:1049900001F8013BFAE710F8013BCB1A921C03E047
:1049A00013F8015B01F8015B521EF9D5A142D8D37F
:1049B000002070BD70B504460D461148844205D0F4
:1049C0001048844202D01048844200D104E04FF4E1
:1049D00097710EA00AF0FAFD0DB1012D00D104E08F
:1049E00040F22F1109A00AF0F1FD25B1A06840F0B6
:1049F0000100A06003E0A06820F00100A06070BD8D
:104A00000024014000280140003C01404C696272D2
:104A100061726965735C53544D3332463130785F4F
:104A20005374645065726970685F44726976657228
:104A30005C7372635C73746D3332663130785F61BE
:104A400064632E630000000070B504460D461048F4
:104A5000844202D00F48844200D104E040F2471162
:104A60000DA00AF0B3FD0DB1012D00D104E04FF40B
:104A7000A47109A00AF0AAFD25B1A06840F48070D5
:104A8000A06003E0A06820F48070A06070BD00000A
:104A900000240140003C01404C696272617269650A
:104AA000735C53544D3332463130785F53746450E5
:104AB00065726970685F4472697665725C7372636F
:104AC0005C73746D3332663130785F6164632E637A
:104AD0000000000070B5044600250C48844205D053
:104AE0000B48844202D00B48844200D104E04FF4CA
:104AF000D97109A00AF06AFDA06800F0040008B1AD
:104B0000012500E00025284670BD0000002401407A
:104B100000280140003C01404C6962726172696585
:104B2000735C53544D3332463130785F5374645064
:104B300065726970685F4472697665725C737263EE
:104B40005C73746D3332663130785F6164632E63F9
:104B50000000000070B5044600250C48844205D0D2
:104B60000B48844202D00B48844200D104E04FF449
:104B7000C67109A00AF02AFDA06800F0080008B17B
:104B8000012500E00025284670BD000000240140FA
:104B900000280140003C01404C6962726172696505
:104BA000735C53544D3332463130785F53746450E4
:104BB00065726970685F4472697665725C7372636E
:104BC0005C73746D3332663130785F6164632E6379
:104BD000000000002DE9F04105460C4600260027A4
:104BE0005D48854205D05D48854202D05C488542DB
:104BF00000D103E0DF215BA00AF0E8FC206818B3D5
:104C00002068B0F5803F1FD02068B0F5003F1BD072
:104C10002068B0F5403F17D02068B0F5802F13D042
:104C20002068B0F5A02F0FD02068B0F5C02F0BD0B2
:104C30002068B0F5E02F07D02068B0F5002F03D032
:104C40002068B0F5102F00D103E0E02145A00AF064
:104C5000BDFC207910B12079012800D103E0E121C9
:104C600040A00AF0B3FC607910B16079012800D14E
:104C700003E0E2213BA00AF0A9FCA06888B3A06889
:104C8000B0F5003F2DD0A068B0F5802F29D0A068E6
:104C9000B0F5C02F25D0A068B0F5002F21D0A068B6
:104CA000B0F5202F1DD0A068B0F5402F19D0A06816
:104CB000B0F5602F15D0A06898B1A068B0F5003F9E
:104CC0000FD0A068B0F5C02F0BD0A068B0F5002FB2
:104CD00007D0A068B0F5202F03D0A068B0F5402F12
:104CE00000D103E0E3211FA00AF070FCE06818B1D6
:104CF000E068B0F5006F00D103E0E42119A00AF0EC
:104D000065FC207C012803DB207C102800DC03E00C
:104D1000E52114A00AF05AFC6E682148064021796A
:104D2000206840EA012006436E60AE681D480640D8
:104D3000D4E902100843617940EA41000643AE60BD
:104D4000EE6A26F47006207C401EC0B2074346EA95
:104D50000756EE62BDE8F0810024014000280140C2
:104D6000003C01404C69627261726965735C535426
:104D70004D3332463130785F5374645065726970D8
:104D8000685F4472697665725C7372635C73746D9C
:104D90003332663130785F6164632E630000000057
:104DA000FFFEF0FFFDF7F1FF2DE9F04706460C4648
:104DB000174698460025A9466048864205D06048B7
:104DC000864202D05F48864200D104E040F2522180
:104DD0005DA00AF0FBFB0CB3012C1FD0022C1DD0F0
:104DE000032C1BD0042C19D0052C17D0062C15D061
:104DF000072C13D0082C11D0092C0FD00A2C0DD061
:104E00000B2C0BD00C2C09D00D2C07D00E2C05D060
:104E10000F2C03D0102C01D0112C00D104E040F253
:104E2000532149A00AF0D2FB012F02DB102F00DC36
:104E300004E04FF4157144A00AF0C8FBB8F1000F6C
:104E400014D0B8F1010F11D0B8F1020F0ED0B8F1A3
:104E5000030F0BD0B8F1040F08D0B8F1050F05D03F
:104E6000B8F1060F02D0B8F1070F00D104E040F20C
:104E7000552135A00AF0AAFB092C13DDF568A4F131
:104E80000A0000EB4001072000FA01F925EA0905B4
:104E9000A4F10A0000EB400008FA00F945EA090510
:104EA000F5600EE0356904EB4401072000FA01F9D2
:104EB00025EA090504EB440008FA00F945EA09056A
:104EC0003561072F11DA756B781E00EB80011F200A
:104ED00000FA01F925EA0905781E00EB800004FAC2
:104EE00000F945EA0905756326E00D2F11DA356BE7
:104EF000F81F00EB80011F2000FA01F925EA0905DF
:104F0000F81F00EB800004FA00F945EA0905356353
:104F100012E0F56AA7F10D0000EB80011F2000FAF6
:104F200001F925EA0905A7F10D0000EB800004FA5C
:104F300000F945EA0905F562BDE8F0870024014063
:104F400000280140003C01404C6962726172696551
:104F5000735C53544D3332463130785F5374645030
:104F600065726970685F4472697665725C737263BA
:104F70005C73746D3332663130785F6164632E63C5
:104F80000000000010B504460948844205D00948D5
:104F9000844202D00848844200D104E04FF4BF713B
:104FA00006A00AF013FBA06840F00800A06010BD46
:104FB0000024014000280140003C01404C6962721D
:104FC00061726965735C53544D3332463130785F9A
:104FD0005374645065726970685F44726976657273
:104FE0005C7372635C73746D3332663130785F6109
:104FF00064632E630000000070B504460D4611483E
:10500000844205D01048844202D01048844200D126
:1050100004E04FF4E6710EA00AF0D8FA0DB1012DAC
:1050200000D104E040F2CD1109A00AF0CFFA25B179
:10503000A06840F4A000A06003E0A06820F4A000F5
:10504000A06070BD0024014000280140003C0140E8
:105050004C69627261726965735C53544D333246B8
:105060003130785F5374645065726970685F447260
:10507000697665725C7372635C73746D333266312A
:1050800030785F6164632E630000000010B5044651
:105090000948844205D00948844202D00848844225
:1050A00000D104E04FF4D27106A00AF08FFAA06894
:1050B00040F00400A06010BD002401400028014021
:1050C000003C01404C69627261726965735C5354C3
:1050D0004D3332463130785F537464506572697075
:1050E000685F4472697665725C7372635C73746D39
:1050F0003332663130785F6164632E6300000000F4
:1051000010B504460CB1012C00D104E040F29241EC
:1051100008A00AF05BFA34B11548006840F40000BA
:105120001349086005E01248006820F400001049A7
:10513000086010BD4C69627261726965735C53549A
:105140004D3332463130785F537464506572697004
:10515000685F4472697665725C7372635C73746DC8
:105160003332663130785F6164632E630000000083
:105170000824014010B50446204600F097F8204668
:1051800000F07EF840F2DC5001F006FB204600F013
:105190003FF8204600F052F8282001F0FDFA10BD3B
:1051A00008B50121082004F031FB0121084604F074
:1051B0002DFB0121124801F01FFE1020ADF8000068
:1051C00003208DF8020010208DF8030069460D4879
:1051D00001F028FD10210B4802F010F80820ADF86E
:1051E000000003208DF8020010208DF803006946AE
:1051F000044801F017FD0821024801F0FFFF08BD37
:1052000000023000000C014010B5FFF7C9FF10BDCF
:1052100010B5044614B1012C0AD104E0102106484F
:1052200001F0ECFF05E00821034801F0E7FF00E092
:1052300000BF00BF10BD0000000C014038B504469F
:1052400004208DF8030003208DF8020014B1012C16
:1052500010D107E01020ADF800006946074801F0C2
:10526000E1FC08E00820ADF800006946034801F0C1
:10527000D9FC00E000BF00BF38BD0000000C0140B9
:1052800010B5044614B1012C0AD104E010210648DF
:1052900001F05EFF05E00821034801F059FF00E03E
:1052A00000BF00BF10BD0000000C014038B504462F
:1052B00014B1012C1CD10DE01020ADF8000003202A
:1052C0008DF8020010208DF8030069460A4801F0AD
:1052D000A9FC0EE00820ADF8000003208DF80200C4
:1052E00010208DF803006946034801F09BFC00E0A4
:1052F00000BF00BF38BD0000000C014070B504467F
:10530000002514B1012C0CD105E01021074801F053
:105310009DFE054606E00821044801F097FE05467B
:1053200000E000BF00BF284670BD0000000C014037
:10533000F0B585B006460024002700250020049023
:10534000039001900290009084480078401C8349AB
:10535000087008460078FF2801DB002008707F48AD
:105360000078062190FBF1F201FB1200C4B214B1E7
:10537000002005B0F0BD7A480078401C78490870DC
:10538000084600781E2801DB1E20087075480021A1
:105390000160214604F0BCFD04A9085504A8005D85
:1053A000E8B17048008840B96E48008828B96E4856
:1053B000005D401C6C49085516E000206A490855FC
:1053C00068480088ADF80C0066484088ADF80E00CB
:1053D000B6F8A80340F00101A6F8A81304E062485B
:1053E000005D401C604908555F48005D142815DDCC
:1053F00040F21D115D48A0F8081440F23721A0F8D2
:105400000A14B6F8A80320F00101A6F8A813FFF7C4
:10541000FBFE00240020524908709BE05248005DCA
:105420000028FAD1BDF80C00B0F57A7F2FDABDF86C
:105430000C0060B3BDF80E0048B3BDF80E00B0F527
:105440007A7F24DA4A48005D401C494908550846DD
:10545000005DFF2801DB002008554548005D05215F
:1054600090FBF1F201FB1200C7B2BDF80C0004EB97
:105470008401404A02EB810121F81700BDF80E10AB
:1054800004EB840002EB80000A3020F8171000259E
:105490003EE004EB8400374901EB800030F8150052
:1054A00090B104EB840001EB800030F8150001A9F5
:1054B00031F82410084401A921F824001DF8140033
:1054C000401CC0B20DF8140004EB8400294901EB24
:1054D00080000A3030F81500C0B104EB840001EB05
:1054E00080000A3030F8150001A901EB84014988D9
:1054F000084401A901EB84014880684600EB4400A0
:105500004078401C694601EB44014870681CC5B2F4
:10551000052DBEDB01A830F824001DF8141090FB07
:10552000F1F11248008D084481B2134820F824108C
:1055300001A800EB84004088694601EB44014978EA
:1055400090FBF1F10948408D084481B20A4800EB14
:105550008400418004A8005D0BE7000024010020C6
:105560002901002020010020270100208C090020B3
:1055700025010020CC350020940D00200146132980
:1055800021D2DFE801F00A0B0C0D130E0F141011DD
:10559000181516191A1B1C1D1E0000BF00BF00BFE6
:1055A00000BF00BF00BF00BF05200EE000BF00BF6E
:1055B00000BF032009E000BF00BF00BF00BF00BF65
:1055C00000BF0A2001E0052000BF00BF70470000B7
:1055D00038B5044660780D4981F8F000E078A1F80C
:1055E000F200207991F8F21040EA01200749A1F871
:1055F000F2000846B0F8F20000902379E278617872
:1056000003A01DF009FB012038BD0000740E00202E
:105610007538427566665B315D3D25642C333D25EA
:10562000642C343D25642C6C5F7379732E4865615E
:105630007457617465725F466C6F773D25640A002C
:1056400010B5034607E018780C78A04201D000207E
:1056500010BD5B1C491C101EA2F10104A2B2F2D1C4
:105660000120F5E700BFFEE708B54FF48050ADF824
:10567000000004208DF8030003208DF80200694625
:10568000014801F0CFFA08BD0008014010B5012122
:10569000C80204F0BBF80121052004F0B7F810BDE2
:1056A0001FB51C4805F0D6FE0020ADF80A00ADF885
:1056B00006004EF66020ADF808000020ADF80400AA
:1056C00001A9144806F044FC0223002211461148A7
:1056D00006F00AF819208DF8000001208DF803006B
:1056E0008DF8010003208DF80200684602F0BEFD2F
:1056F0000121084805F03EFD01221146054806F04B
:1057000001FA0021034806F0A7FB0121014805F03A
:10571000B9FD1FBD002C01402DE9F34106464FF0B5
:10572000000800243746BDF80450432F65D006DC3E
:10573000382F09D03A2F3AD0422F7BD151E0442F55
:1057400066D0452FF9D179E0BDF804403C2C0BD14F
:10575000FF201BF039FB022021F0D2FC4FF47A70BD
:105760001FF0ACFE02F040FE5A2C08D1012021F0BF
:10577000C7FC4FF47A701FF0A1FE02F035FE692CD1
:1057800008D1012021F062FA4FF47A701FF096FEE2
:1057900002F02AFE2D2C07D100F0F8F84FF47A70B1
:1057A0001FF08CFE02F020FE4FF004086CE0BDF804
:1057B00004402CB94FF4FA701FF080FE02F014FE82
:1057C00007EB8701324A32F821000223012201A9A6
:1057D0001BF024F910B94FF0000801E04FF0040865
:1057E00052E0BDF804402CB120461BF0EDFA002039
:1057F000BDE8FC814FF0040846E0BDF804405A2C97
:1058000003D10CF0FBFA0020F2E74FF004083BE074
:105810002C4684B10A201F4981F80B01084690F8F4
:105820000A0140F0010081F80A011B48A0F8B641C6
:105830000020DDE717E04FF0040825E02C467CB19E
:105840000A20144981F80B01084690F80A0140F03B
:10585000020081F80A011048A0F8B8410020C7E70B
:105860004FF0040810E007EB8701094A32F82100E5
:105870000223012201A91BF0D1F810B94FF0000852
:1058800001E04FF0040800BF00BF4046B0E7000051
:1058900050C00208740E00208C0900202DE9F04F42
:1058A00095B083460C4691464FF0000A4846FEF7F5
:1058B000D9FACDE910012046FEF7E5FA05460E4675
:1058C0005846FEF7E0FA07464FF06632214BFEF7E6
:1058D000E3F90022204BCDE90001FEF7DDF90022BB
:1058E0001E4BCDE90201FEF7D7F900221C4BCDE992
:1058F0000401FEF743FA00224FF08043CDE9060190
:10590000FEF7C4F90022174BCDE90801FEF7C4F9F0
:105910000022154BCDE90A01FEF7BEF92A463346AF
:10592000CDE90C01FEF72AFACDE90E01DDE91023DD
:10593000FEF70BF9CDE91201FEF7C6FA8246BAF17D
:10594000000F01DC47F6FF7A0FFA8AF015B0BDE8C8
:10595000F08F000066660A400000594000001040C9
:105960000000D44000408F400000244010B50446A1
:105970000121054805F0FEFB0021034806F06CFA02
:105980000020208010BD0000002C014000B5012146
:1059900013201BF0CBF900BD01460448B0F8C40148
:1059A000884201DA012070470020FCE78C090020C2
:1059B00001460448B0F8C201884201DD0120704769
:1059C0000020FCE78C09002070B5002400204A4923
:1059D00081F8F70001F010FD06464848B0F8C00114
:1059E00001287DD144F001044448B0F8FC0305B21D
:1059F00006F01000002860D047F6FF7085425CD0AA
:105A000044F002043D48B0F8C201A8421DDA3C4807
:105A10000088782805DA3A480088401C3849088010
:105A200068E00220344981F8F80044F004040120C1
:105A300081F8F70033490870012105201BF076F941
:105A4000012106201BF072F954E02C48B0F8C40183
:105A5000A84214DD00202A4908800420264981F844
:105A6000F80044F0080400202649087000210520B1
:105A70001BF05CF9002106201BF058F93AE00020E9
:105A80001F4908801F480078012811D103201A49B6
:105A900081F8F80044F01004012081F8F70001219A
:105AA00005201BF043F9012106201BF03FF921E0FE
:105AB0000520114981F8F8001CE0002010490880F9
:105AC00044F0200401200C4981F8F8000021052051
:105AD0001BF02CF9002106201BF028F90AE0FFE753
:105AE00044F04004002105201BF020F9002106208D
:105AF0001BF01CF970BD0000740E00208C09002002
:105B00008A0000208800002010B500241F48005D96
:105B1000401C1E4908551E48005D07282ED2DFE8AC
:105B200000F004050D20272E2F002DE01748005D02
:105B3000FA2802DD06201649085525E004EB840109
:105B4000144A02EB8100FFF743FD04EB8401114A84
:105B500002EB81001421FDF735FC03200C490855A8
:105B600012E00020094908550420094908550BE0B6
:105B70000648005D642800DA06E000BF00BF00BFF1
:105B800000200349085500BF00BF10BDC50000201C
:105B9000C30000201C34002010B5374807F062F81D
:105BA000C4B20120354981F80102084690F802028A
:105BB00000285ED10846007810B1032854D117E0C0
:105BC0002E48B0F80602A04211D100202B49A1F8BE
:105BD00004020846B0F80412B0F80402401C274A38
:105BE000A2F80402501C44540320114608703FE000
:105BF0002248B0F80402B0F5007F2DDA1F48B0F853
:105C00000412B0F80402401C1C4AA2F80402501C02
:105C10004454401E807810280BD01046B0F804027F
:105C2000082820DB0120114681F8020200200870BC
:105C300019E01248B0F80402092814DB0F48B0F844
:105C40000412C079093081420DD101200B4981F83D
:105C500002020020087006E000200849A1F80402B2
:105C600081F80202087003E000200449087000BFB8
:105C700000BF012010BD000000440040DA490020B0
:105C800010B53D4806F0EEFFC4B201203B4981F853
:105C90000102084690F8020200286BD108460078FD
:105CA00030B1012819D0022828D003285DD13CE06A
:105CB0005A2C11D100203149A1F804020846B0F84D
:105CC0000412B0F80402401C2C4AA2F80402501C32
:105CD00044540120114608704BE0A52C0DD12748F3
:105CE000B0F80412B0F80402401C244AA2F80402DE
:105CF000501C44540220114608703AE01F48B0F886
:105D00000402B0F5007F0FDA1C4880F80A42B0F8B0
:105D10000412B0F80402401C184AA2F80402501CF5
:105D2000445403201146087023E01448B0F80402DC
:105D3000B0F5007F18DA1148B0F80412B0F8040288
:105D4000401C0E4AA2F80402501C4454401EB0F8F5
:105D5000041290F80A02C01C814205DB01201146A2
:105D600081F802020020087003E000200349087057
:105D700000BF00BF012010BD00440040DA490020F0
:105D80000121402003F070BC10B51CF09BFE0348BD
:105D90000FF048FC1CF0C0FE10BD00005034002085
:105DA00010B51CF08FFE03480FF03CFC1CF0B4FE55
:105DB00010BD0000B434002010B5044604F070405B
:105DC00010B10948204008B904B104E040F20E21A6
:105DD00006A009F0FBFB04F0805010B112480460EB
:105DE00001E01248446010BD0000F0EF4C6962729F
:105DF00061726965735C53544D3332463130785F5C
:105E00005374645065726970685F44726976657234
:105E10005C7372635C73746D3332663130785F64C7
:105E20006D612E6300000000040402400000024087
:105E300070B504460D46244884422AD022481430C6
:105E4000844226D020482830844222D01E483C304C
:105E500084421ED01C48503084421AD01A48643004
:105E6000844216D018487830844212D017488442B1
:105E70000FD01648143084420BD014482830844286
:105E800007D012483C30844203D01048503084423E
:105E900000D104E040F229110DA009F097FB0DB1EB
:105EA000012D00D104E04FF4957109A009F08EFB9B
:105EB00025B1206840F00100206004E020684FF622
:105EC000FE710840206070BD0800024008040240D6
:105ED0004C69627261726965735C53544D3332462A
:105EE0003130785F5374645065726970685F4472D2
:105EF000697665725C7372635C73746D333266319C
:105F000030785F646D612E630000000070B58CB066
:105F10000546EC6CEE6DA86DC0F38F216161012226
:105F200040F22441206806F0EDFC0121084603F010
:105F30009BFB0121022003F097FBA06800F03EF8D4
:105F40002068001D01903068029000200390A86D29
:105F5000C0F38F2004900020059080200690002040
:105F6000079008902020099000020A9000200B90D2
:105F700001A9A06800F0CEFAE068FFF71DFF01223A
:105F80000221A06800F050FA01224021206806F0AA
:105F9000BDFA0121A068FFF74BFF207C8DF80000BF
:105FA00000208DF801008DF8020001208DF803001B
:105FB000684602F05BF90CB070BD000010B50446F5
:105FC0006A4884422AD069481430844226D06748FF
:105FD0002830844222D065483C3084421ED0634839
:105FE000503084421AD061486430844216D05F48F1
:105FF0007830844212D05E4884420FD05C4814301E
:1060000084420BD05A482830844207D058483C304C
:10601000844203D056485030844200D103E06F21BF
:1060200054A009F0D3FA20684FF6FE7108402060B2
:10603000002020606060A060E0604C48844208D18D
:106040004A480838406840F00F004849083948601D
:106050008AE046481430844208D1444808384068F1
:1060600040F0F0004149083948607DE03F48283061
:10607000844208D13D480838406840F470603B498C
:106080000839486070E039483C30844208D13748CC
:106090000838406840F4704034490839486063E08B
:1060A00032485030844208D130480838406840F4C3
:1060B00070202E490839486056E02C4864308442EC
:1060C00008D12A480838406840F470002749083948
:1060D000486049E025487830844208D12348083890
:1060E000406840F070602149083948603CE0204831
:1060F000844206D1001F006840F00F00211F086095
:1061000032E01B481430844208D11948001F00684F
:1061100040F0F0001649091F086025E014482830B7
:10612000844208D11248001F006840F47060104992
:10613000091F086018E00E483C30844208D10C4822
:10614000001F006840F470400949091F08600BE017
:1061500007485030844207D10548001F006840F4CA
:1061600070200349091F086010BD000008000240AC
:10617000080402404C69627261726965735C535431
:106180004D3332463130785F5374645065726970B4
:10619000685F4472697665725C7372635C73746D78
:1061A0003332663130785F646D612E630000000029
:1061B00010B504461B4884422AD01A481430844241
:1061C00026D018482830844222D016483C308442D9
:1061D0001ED01448503084421AD012486430844291
:1061E00016D010487830844212D00F4884420FD025
:1061F0000D48143084420BD00B482830844207D01D
:1062000009483C30844203D007485030844200D1D2
:1062100004E04FF4BB7105A009F0D8F9606880B2C2
:1062200010BD000008000240080402404C69627280
:1062300061726965735C53544D3332463130785F17
:106240005374645065726970685F447269766572F0
:106250005C7372635C73746D3332663130785F6483
:106260006D612E630000000070B504460025002615
:10627000012C7DD0022C7BD0042C79D0082C77D037
:10628000102C75D0202C73D0402C71D0802C7FD056
:10629000B4F5807F7CD0B4F5007F79D0B4F5806F01
:1062A00076D0B4F5006F73D0B4F5805F70D0B4F5DC
:1062B000005F6DD0B4F5804F6AD0B4F5004F67D061
:1062C000B4F5803F64D0B4F5003F61D0B4F5802FC1
:1062D0005ED0B4F5002F5BD0B4F5801F58D0B4F574
:1062E000001F55D0B4F5800F52D0B4F5000F4FD039
:1062F000B4F1807F4CD0B4F1007F49D0B4F1806F0D
:1063000046D0B4F1006F43D02C48844240D0401CAA
:1063100084423DD0801C84423AD0001D844237D054
:1063200026480F30844233D024481F3084422FD077
:1063300022483F3084422BD020487F30844227D0EF
:106340001E48FF30844223D01D48844220D01D487F
:1063500084421DD01C4884421AD0B4F1102F17D0AB
:106360004FEAF030844213D01848844210D000E045
:106370000EE0174884420BD01648844208D01648D5
:10638000844205D01548844202D01548844200D189
:1063900004E040F2B71113A009F018F904F080509E
:1063A00010B11F48066801E01E48066806EA0400AE
:1063B00008B1012500E00025284670BD010000104D
:1063C000000200100004001000080010004000103F
:1063D00000800010000001100000021000000410F6
:1063E000000008104C69627261726965735C5354F5
:1063F0004D3332463130785F537464506572697042
:10640000685F4472697665725C7372635C73746D05
:106410003332663130785F646D612E6300000000B6
:10642000000402400000024070B504460D461646C6
:10643000274884422AD026481430844226D0244853
:106440002830844222D022483C3084421ED020484A
:10645000503084421AD01E486430844216D01C4802
:106460007830844212D01B4884420FD0194814302F
:1064700084420BD017482830844207D015483C305E
:10648000844203D013485030844200D104E040F2EB
:10649000491111A009F09AF825F00E0008B905B1CC
:1064A00004E04FF4A5710CA009F090F80EB1012E94
:1064B00000D104E040F24B1107A009F087F81EB1AB
:1064C00020682843206002E02068A843206070BD57
:1064D00008000240080402404C69627261726965FA
:1064E000735C53544D3332463130785F537464508B
:1064F00065726970685F4472697665725C73726315
:106500005C73746D3332663130785F646D612E6315
:106510000000000070B505460C4600265E48854226
:106520002AD05D481430854226D05B482830854209
:1065300022D059483C3085421ED0574850308542C1
:106540001AD055486430854216D053487830854279
:1065500012D0524885420FD05048143085420BD09B
:106560004E482830854207D04C483C30854203D005
:106570004A485030854200D103E0CF2148A009F0BD
:1065800025F8A068102801D0A06800B903E0D02148
:1065900043A009F01BF8E06820B1E068B0F5803F47
:1065A00000D203E0D1213EA009F010F82069402874
:1065B00001D0206900B903E0D22139A009F006F822
:1065C0006069802801D0606900B903E0D32134A05C
:1065D00008F0FCFFA06938B1A069B0F5807F03D056
:1065E000A069B0F5007F00D103E0D4212CA008F011
:1065F000EDFFE06938B1E069B0F5806F03D0E06984
:10660000B0F5006F00D103E0D52125A008F0DEFF32
:10661000206A202801D0206A00B903E0D62120A0FA
:1066200008F0D4FF606AB0F5405F09D0606AB0F549
:10663000005F05D0606AB0F5805F01D0606A00B984
:1066400003E0D72116A008F0C1FFA06AB0F5804F83
:1066500001D0A06A00B903E0D82111A008F0B6FF6C
:106660002E6847F6F0708643216AA06808432169C6
:10667000084361690843A1690843E1690843616A05
:106680000843A16A084306432E60E06868602068FA
:10669000A8606068E86070BD08000240080402401D
:1066A0004C69627261726965735C53544D33324652
:1066B0003130785F5374645065726970685F4472FA
:1066C000697665725C7372635C73746D33326631C4
:1066D00030785F646D612E63000000007047000039
:1066E00070B500F073F800B170BD2948B0F8F6033A
:1066F00004B22748B0F8F80305B22548B0F876018F
:1067000000B2A0420FDD23480088B42805DA2148F2
:106710000088401C1F49088013E00122042100204A
:1067200023F0EEFB0DE01A48B0F8780100B2A04269
:1067300007DA00201749088000220421104623F0C0
:10674000DFFB1348B0F8760100B2A8420FDD114814
:106750004088B42805DA0F484088401C0D4948801D
:1067600013E001220521002023F0CAFB0DE00848B8
:10677000B0F8780100B2A84207DA00200549488045
:1067800000220521104623F0BBFB00BFACE7000050
:106790008C09002084000020014605E0002001E073
:1067A000421CD0B20928FBDB0A1EA1F10101F5D180
:1067B000704710B5FEF76AFFFEF756FFFEF770FF51
:1067C00010BD72B6704762B6704700000648B0F858
:1067D0009001022800D170470348B0F890010128C9
:1067E00000D1F8E70020F6E78C09002010B5044638
:1067F00024F0350008B904B104E040F2B65103A01A
:1068000008F0E4FE1048C46010BD00004C696272DC
:1068100061726965735C53544D3332463130785F31
:106820005374645065726970685F4472697665720A
:106830005C7372635C73746D3332663130785F669B
:106840006C6173682E6300000020024070B504463E
:106850000425B4F1006F03D31448844200D204E04D
:1068600040F2A71112A008F0B1FE4FF4302000F062
:106870003DF90546042D17D11C48006940F002007F
:106880001A49086108464461006940F04000086107
:106890004FF4302000F02AF905461448006941F60B
:1068A000FD71084011490861284670BDFFFF0F08BF
:1068B0004C69627261726965735C53544D33324640
:1068C0003130785F5374645065726970685F4472E8
:1068D000697665725C7372635C73746D33326631B2
:1068E00030785F666C6173682E63000000200240A0
:1068F00004200B49C96801F0010109B101200EE033
:106900000749C96801F0040109B1022007E0044900
:10691000C96801F0100109B1032000E004207047AC
:10692000002002400348006940F0800001490861EE
:10693000704700000020024010B50446102C00D023
:1069400004B904E040F22F1106A008F03FFE1448FD
:10695000006820F0100012490860084600682043D3
:10696000086010BD4C69627261726965735C535452
:106970004D3332463130785F5374645065726970BC
:10698000685F4472697665725C7372635C73746D80
:106990003332663130785F666C6173682E63000055
:1069A00000200240F8B504460D4604260020009061
:1069B000B4F1006F03D31B48844200D204E040F2DC
:1069C000AF2119A008F002FE4FF4005000F08EF83D
:1069D0000646042E24D12348006940F001002149D5
:1069E00008612580F00200F081F80646042E10D1DF
:1069F000A01C0090280C00990880F00200F076F8A6
:106A000006461848006941F6FE71084015490861BC
:106A100006E01448006941F6FE710840114908611A
:106A20003046F8BDFFFF0F084C69627261726965FC
:106A3000735C53544D3332463130785F5374645035
:106A400065726970685F4472697665725C737263BF
:106A50005C73746D3332663130785F666C61736875
:106A60002E6300000020024070B5044600251CB1D2
:106A7000012C01D0022C00D104E040F2031105A04A
:106A800008F0A4FD1248056805F0380525430560A7
:106A900070BD00004C69627261726965735C535429
:106AA0004D3332463130785F53746450657269708B
:106AB000685F4472697665725C7372635C73746D4F
:106AC0003332663130785F666C6173682E63000024
:106AD000002002400248034948600348486070476C
:106AE0002301674500200240AB89EFCD00B5024687
:106AF0000423FFF7FDFE034603E0FFF7F9FE03461C
:106B0000521E012B01D1002AF7D102B905231846E4
:106B100000BD10B5044634B1012C09D10121032078
:106B20001AF004F909E0002103201AF0FFF804E04C
:106B3000002103201AF0FAF800BF00BF10BD70B5A5
:106B4000024610880B88B0F57A7F0FDB4FF47A7518
:106B500090FBF5F5ACB21D19ABB20B804FF47A7512
:106B600090FBF5F605FB1605A8B2108070BD00007D
:106B700008B502208DF802000121264800F03CF9FA
:106B800004208DF80300C001ADF8000069462248DA
:106B900000F048F818208DF803004FF48070ADF82D
:106BA000000069461C4800F03DF804208DF8030001
:106BB0004002ADF800006946184800F033F818208C
:106BC0008DF803004FF48060ADF80000694613486B
:106BD00000F028F810208DF80300C002ADF8000086
:106BE00069460F4800F01EF804208DF80300ADF848
:106BF00000006946084800F015F818208DF80300D9
:106C00004FF48050ADF800006946044800F00AF8DF
:106C100008BD0000300014000014014000100140C5
:106C2000000801402DE9F05F05460C464FF00009D1
:106C3000CA4600260027B046B3465948854211D0BF
:106C4000584885420ED0584885420BD05748854257
:106C500008D05748854205D05648854202D056484C
:106C6000854200D103E0B22154A008F0AFFCE078E7
:106C7000A0B1E078042811D0E07828280ED0E07880
:106C800048280BD0E078142808D0E078102805D0E8
:106C9000E0781C2802D0E078182800D103E0B32166
:106CA00046A008F093FC002010B9208800B103E052
:106CB000B42142A008F08AFCE07800F00F09E078E7
:106CC00000F0100080B1A078012805D0A07802283B
:106CD00002D0A078032800D103E0BB2137A008F040
:106CE00075FCA07840EA0909207838B3D5F800800F
:106CF00000261FE0012000FA06F7208800EA070AB4
:106D0000BA4516D1B7000F2000FA07FB28EA0B0896
:106D100009FA07F040EA0808E078282803D10120A2
:106D2000B040686105E0E078482802D10120B04019
:106D30002861761C082EDDD3C5F800802088FF2846
:106D40002BDDD5F80480002623E006F108000121A0
:106D500001FA00F7208800EA070ABA4518D1B700FF
:106D60000F2000FA07FB28EA0B0809FA07F040EAAF
:106D70000808E078282803D106F1080081406961FD
:106D8000E078482804D106F10800012181402961FA
:106D9000761C082ED9D3C5F80480BDE8F09F00000A
:106DA00000080140000C01400010014000140140A7
:106DB00000180140001C0140002001404C69627233
:106DC00061726965735C53544D3332463130785F7C
:106DD0005374645065726970685F44726976657255
:106DE0005C7372635C73746D3332663130785F67E5
:106DF00070696F2E630000002DE9F04704460E46CF
:106E00000027B8460025A946012C7DD0022C7BD056
:106E1000042C79D0082C77D0694884427FD0684808
:106E2000203084427BD06748844278D065488030E7
:106E3000844274D06448844271D0644884426ED0E5
:106E4000634884426BD06348844268D0624884427D
:106E500065D0B4F5805F62D0B4F5EA1F5FD0B4F5B9
:106E6000EB1F5CD0B4F5004F59D05C48844256D03B
:106E7000401C844253D0801C844250D0001D844268
:106E80004DD056480F30844249D0B4F1201F46D02F
:106E90004FEAF030844242D0514884423FD05148BA
:106EA00084423CD05048844239D05048844236D045
:106EB0004F48844233D0B4F5011F30D04D4884424E
:106EC0002DD0401C84422AD0801C844227D0001D33
:106ED000844224D047480F30844220D045481F3098
:106EE00084421CD043483F30844218D041487F3010
:106EF000844214D03F48FF30844210D03E48844240
:106F00000DD03E48844200E009E008D03C4884426D
:106F100005D03C48844202D03B48844200D104E082
:106F200040F22A2139A008F051FB0EB1012E00D108
:106F300004E040F22B2135A008F048FB04F00040AB
:106F4000B0F1004F02D14048C56901E03E484568B4
:106F5000C4F30349A7B204F44010B0F5401F08D1B0
:106F600025F070653848406820F070603649486008
:106F700013E004F48010B0F5801F07D1032000FA5D
:106F800009F825EA080545F0706506E0600D000186
:106F900007FA00F0854345F0706526B1600D0101E8
:106FA00007FA01F0054304F00040B0F1004F02D1B0
:106FB0002548C56101E024484560BDE8F087000030
:106FC0001000140040001600000118000002180014
:106FD0000003180000081A00000C1A00010020002D
:106FE00000013000000230000004300000112000D9
:106FF00000202000010000800002008000040080CA
:107000000008008000100080002000804C6962723F
:1070100061726965735C53544D3332463130785F29
:107020005374645065726970685F44726976657202
:107030005C7372635C73746D3332663130785F6792
:1070400070696F2E630000000000014070B50546B6
:107050000C4600262848854211D0284885420ED08B
:10706000274885420BD02748854208D026488542CC
:1070700005D02648854202D02548854200D104E04B
:107080004FF48F7123A008F0A1FA012C25D0022C17
:1070900023D0042C21D0082C1FD0102C1DD0202C44
:1070A0001BD0402C19D0802C17D0B4F5807F14D081
:1070B000B4F5007F11D0B4F5806F0ED0B4F5006F39
:1070C0000BD0B4F5805F08D0B4F5005F05D0B4F5FF
:1070D000804F02D0B4F5004F00D104E040F21F1100
:1070E0000CA008F073FAA868204008B1012600E05F
:1070F0000026304670BD000000080140000C014031
:10710000001001400014014000180140001C014023
:10711000002001404C69627261726965735C53546E
:107120004D3332463130785F537464506572697004
:10713000685F4472697665725C7372635C73746DC8
:107140003332663130785F6770696F2E63000000FC
:1071500070B504460D461348844211D0124884424B
:107160000ED0124884420BD01148844208D01148F6
:10717000844205D01048844202D01048844200D195
:1071800004E040F279110EA008F020FA002008B9BE
:1071900005B104E04FF4BD7109A008F017FA65616C
:1071A00070BD000000080140000C014000100140CB
:1071B0000014014000180140001C01400020014063
:1071C0004C69627261726965735C53544D33324627
:1071D0003130785F5374645065726970685F4472CF
:1071E000697665725C7372635C73746D3332663199
:1071F00030785F6770696F2E6300000070B50446D9
:107200000D461348844211D0124884420ED01248D1
:1072100084420BD01148844208D01148844205D0E2
:107220001048844202D01048844200D104E040F269
:1072300069110EA008F0CAF9002008B905B104E0F0
:107240004FF4B57109A008F0C1F9256170BD0000C7
:1072500000080140000C01400010014000140140F2
:1072600000180140001C0140002001404C6962727E
:1072700061726965735C53544D3332463130785FC7
:107280005374645065726970685F447269766572A0
:107290005C7372635C73746D3332663130785F6730
:1072A00070696F2E6300000070B505460C461646E7
:1072B0002B48854211D02B4885420ED02A48854262
:1072C0000BD02A48854208D02948854205D0294854
:1072D000854202D02848854200D104E040F28D1159
:1072E00026A008F073F9012C25D0022C23D0042C01
:1072F00021D0082C1FD0102C1DD0202C1BD0402CAE
:1073000019D0802C17D0B4F5807F14D0B4F5007F4D
:1073100011D0B4F5806F0ED0B4F5006F0BD0B4F57A
:10732000805F08D0B4F5005F05D0B4F5804F02D07F
:10733000B4F5004F00D104E04FF4C7710FA008F07E
:1073400045F90EB1012E00D104E040F28F110BA0DF
:1073500008F03CF90EB12C6100E06C6170BD0000DA
:1073600000080140000C01400010014000140140E1
:1073700000180140001C0140002001404C6962726D
:1073800061726965735C53544D3332463130785FB6
:107390005374645065726970685F4472697665728F
:1073A0005C7372635C73746D3332663130785F671F
:1073B00070696F2E6300000010B5002420210C4876
:1073C000FFF744FE10B944F0020401E024F0020487
:1073D00010210748FFF73AFE10B944F0010401E01C
:1073E00024F00104034880F8FE40204610BD000050
:1073F00000180140740E002010B50024002022F077
:10740000A3FA10B944F0010401E024F001040120C2
:1074100022F09AFA10B944F0020401E024F00204C8
:107420001C4890F84A0000F0020008B924F0020459
:10743000022022F089FA10B944F0040401E024F09B
:107440000404032022F080FA10B944F0080401E09B
:1074500024F00804042022F077FA10B944F0100454
:1074600001E024F01004052022F06EFA10B944F077
:10747000200401E024F02004062022F065FA10B96F
:1074800044F0400401E024F040040248A0F8BE4467
:10749000204610BD8C09002010B502F065FA0120CD
:1074A00002F098FB00BF212002F0EEFA0028FAD08B
:1074B0001020FFF741FA0220FFF7D6FA002002F071
:1074C00047FB002002F0F2FB002002F0B1FB4FF47A
:1074D0006011002002F056FC012002F025FC00BFE4
:1074E000392002F0D1FA0028FAD0022002F0B6FCCE
:1074F00000BF02F025FB0828FBD110BDF8B50446FB
:10750000A748B0F8D40440F00101A548A0F8D4146D
:107510002146684624F074FD0020A249085504EB7A
:107520008400A14908448078052871D2DFE800F082
:10753000033280C3FE009DF80000012829D19B4939
:1075400008559DF8000004EB8401994A02F82100D7
:107550009DF8000097490880012004EB8401924ABD
:107560001144087104EB8400114608448078401CE3
:1075700004EB8401114488708948B0F8D40440F0C9
:1075800002018748A0F8D4148A4801888448A0F8EA
:10759000DA1401E19DF80000012802D09DF80000F6
:1075A000A8BB844800889DF80010084481490880E1
:1075B0009DF8001004EB84007B4A1044027904EB30
:1075C0008400794B18440079401C04EB8403764E08
:1075D0003344187104EB8400754B03EB8000815435
:1075E0000E207549087004EB840031460844807809
:1075F000401C04EB84013246114488706848B0F89E
:10760000D40440F004016648A0F8D4140AE000E075
:10761000B8E0002004EB8401634A1144887006201E
:1076200062490855634801885D48A0F8DC14B3E05E
:10763000604800889DF8001008445E4908809DF865
